:020000040800F2
:1000000000000320293A0008A50C0008AD0C0008E8
:10001000B50C0008BD0C0008C50C0008000000006D
:10002000000000000000000000000000CD0C0008EF
:10003000DB0C000800000000E90C0008F70C0008C9
:10004000793A0008793A0008793A0008793A0008C4
:10005000793A0008793A0008793A0008793A0008B4
:10006000793A0008793A0008793A0008793A0008A4
:10007000793A0008793A0008793A0008793A000894
:10008000793A0008793A0008793A0008793A000884
:10009000793A0008793A0008793A0008793A000874
:1000A000793A0008793A0008793A0008793A000864
:1000B000793A0008793A0008793A0008793A000854
:1000C000793A0008793A0008793A0008793A000844
:1000D000793A0008793A0008793A0008793A000834
:1000E000793A0008793A0008793A0008793A000824
:1000F000793A0008793A0008793A0008793A000814
:10010000793A0008793A0008793A0008793A000803
:10011000793A0008793A0008793A0008793A0008F3
:10012000793A0008793A0008793A0008793A0008E3
:10013000793A0008793A0008793A0008793A0008D3
:10014000793A0008793A0008793A0008793A0008C3
:10015000793A0008793A0008793A0008793A0008B3
:10016000793A0008793A0008793A0008793A0008A3
:10017000793A0008793A0008793A0008000000004E
:10018000793A0008793A0008793A0008793A000883
:10019000793A0008793A0008793A0008793A000873
:0C01A000793A0008793A0008793A000822
:1001B00081F0004102E000BF83F0004330B54FEA18
:1001C00041044FEA430594EA050F08BF90EA020F85
:1001D0001FBF54EA000C55EA020C7FEA645C7FEA18
:1001E000655C00F0E2804FEA5454D4EB5555B8BF3B
:1001F0006D420CDD2C4480EA020281EA030382EAAC
:10020000000083EA010180EA020281EA0303362D3D
:1002100088BF30BD11F0004F4FEA01314FF4801C10
:100220004CEA113102D0404261EB410113F0004F22
:100230004FEA03334CEA133302D0524263EB4303D9
:1002400094EA050F00F0A780A4F10104D5F1200E77
:100250000DDB02FA0EFC22FA05F2801841F10001D2
:1002600003FA0EF2801843FA05F359410EE0A5F1A6
:1002700020050EF1200E012A03FA0EFC28BF4CF0D7
:10028000020C43FA05F3C01851EBE37101F000458D
:1002900007D54FF0000EDCF1000C7EEB00006EEB9A
:1002A0000101B1F5801F1BD3B1F5001F0CD3490824
:1002B0005FEA30004FEA3C0C04F101044FEA44527B
:1002C00012F5800F80F09A80BCF1004F08BF5FEA02
:1002D000500C50F1000041EB045141EA050130BDE2
:1002E0005FEA4C0C404141EB0101013C28BFB1F5F4
:1002F000801FE9D291F0000F04BF01460020B1FA3F
:1003000081F308BF2033A3F10B03B3F120020CDA11
:100310000C3208DD02F1140CC2F10C0201FA0CF0EF
:1003200021FA02F10CE002F11402D8BFC2F1200C54
:1003300001FA02F120FA0CFCDCBF41EA0C0190400A
:10034000E41AA2BF01EB0451294330BD6FEA040453
:100350001F3C1CDA0C340EDC04F11404C4F120023E
:1003600020FA04F001FA02F340EA030021FA04F350
:1003700045EA030130BDC4F10C04C4F1200220FAA7
:1003800002F001FA04F340EA0300294630BD21FAE5
:1003900004F0294630BD94F0000F83F4801306BFAB
:1003A00081F480110134013D4EE77FEA645C18BF9F
:1003B0007FEA655C29D094EA050F08BF90EA020F36
:1003C00005D054EA000C04BF1946104630BD91EA2E
:1003D000030F1EBF0021002030BD5FEA545C05D131
:1003E0004000494128BF41F0004130BD14F5800470
:1003F0003CBF01F5801130BD01F0004545F0FE41E4
:1004000041F470014FF0000030BD7FEA645C1ABF18
:10041000194610467FEA655C1CBF0B46024650EA4F
:10042000013406BF52EA033591EA030F41F400217B
:1004300030BD00BF90F0000F04BF0021704730B501
:100440004FF4806404F132044FF000054FF00001D6
:1004500050E700BF90F0000F04BF0021704730B597
:100460004FF4806404F1320410F0004548BF40426C
:100470004FF000013EE700BF42004FEAE2014FEAC1
:1004800031014FEA02701FBF12F07F4393F07F4F9C
:1004900081F06051704732F07F4208BF704793F09F
:1004A0007F4F04BF41F40021704730B54FF46074B2
:1004B00001F0004521F000411CE700BF50EA0102B5
:1004C00008BF704730B54FF000050AE050EA01025E
:1004D00008BF704730B511F0004502D5404261EBCE
:1004E00041014FF4806404F132045FEA915C3FF40F
:1004F000D8AE4FF003025FEADC0C18BF03325FEAAC
:10050000DC0C18BF033202EBDC02C2F1200300FA5C
:1005100003FC20FA02F001FA03FE40EA0E0021FA81
:1005200002F11444BDE600BF70B54FF0FF0C4CF46F
:10053000E06C1CEA11541DBF1CEA135594EA0C0F21
:1005400095EA0C0F00F0DEF82C4481EA030621EA5C
:100550004C5123EA4C5350EA013518BF52EA033597
:1005600041F4801143F4801338D0A0FB02CE4FF049
:100570000005E1FB02E506F00042E0FB03E54FF079
:100580000006E1FB03569CF0000F18BF4EF0010E71
:10059000A4F1FF04B6F5007F64F5407404D25FEA6D
:1005A0004E0E6D4146EB060642EAC62141EA555120
:1005B0004FEAC52040EA5E504FEACE2EB4F1FD0C62
:1005C00088BFBCF5E06F1ED8BEF1004F08BF5FEAE0
:1005D000500E50F1000041EB045170BD06F0004692
:1005E00046EA010140EA020081EA0301B4EB5C043F
:1005F000C2BFD4EB0C0541EA045170BD41F4801137
:100600004FF0000E013C00F3AB8014F1360FDEBF5B
:10061000002001F0004170BDC4F10004203C35DA37
:100620000C341BDC04F11404C4F1200500FA05F3BA
:1006300020FA04F001FA05F240EA020001F000425B
:1006400021F0004110EBD37021FA04F642EB0601D1
:100650005EEA430E08BF20EAD37070BDC4F10C04FB
:10066000C4F1200500FA04F320FA05F001FA04F2BF
:1006700040EA020001F0004110EBD37041F10001AB
:100680005EEA430E08BF20EAD37070BDC4F12005B6
:1006900000FA05F24EEA020E20FA04F301FA05F21E
:1006A00043EA020321FA04F001F0004121FA04F2C6
:1006B00020EA020000EBD3705EEA430E08BF20EA96
:1006C000D37070BD94F0000F0FD101F000464000D0
:1006D00041EB010111F4801F08BF013CF7D041EA52
:1006E000060195F0000F18BF704703F00046520056
:1006F00043EB030313F4801F08BF013DF7D043EA27
:100700000603704794EA0C0F0CEA135518BF95EADC
:100710000C0F0CD050EA410618BF52EA4306D1D163
:1007200081EA030101F000414FF0000070BD50EA82
:10073000410606BF1046194652EA430619D094EA0C
:100740000C0F02D150EA013613D195EA0C0F05D1F6
:1007500052EA03361CBF104619460AD181EA03014A
:1007600001F0004141F0FE4141F470014FF0000002
:1007700070BD41F0FE4141F4780170BD70B54FF09D
:10078000FF0C4CF4E06C1CEA11541DBF1CEA13551D
:1007900094EA0C0F95EA0C0F00F0A7F8A4EB0504FF
:1007A00081EA030E52EA03354FEA013100F08880F6
:1007B0004FEA03334FF0805545EA131343EA1263BF
:1007C0004FEA022245EA111545EA10654FEA002674
:1007D0000EF000419D4208BF964244F1FD0404F52D
:1007E000407402D25B084FEA3202B61A65EB030589
:1007F0005B084FEA32024FF480104FF4002CB6EB46
:10080000020E75EB030E22BFB61A754640EA0C00C5
:100810005B084FEA3202B6EB020E75EB030E22BF05
:10082000B61A754640EA5C005B084FEA3202B6EB46
:10083000020E75EB030E22BFB61A754640EA9C0005
:100840005B084FEA3202B6EB020E75EB030E22BFD5
:10085000B61A754640EADC0055EA060E18D04FEA93
:10086000051545EA16754FEA06164FEAC30343EA33
:1008700052734FEAC2025FEA1C1CC0D111F4801F00
:100880000BD141EA00014FF000004FF0004CB6E7F9
:1008900011F4801F04BF01430020B4F1FD0C88BF98
:1008A000BCF5E06F3FF6AFAEB5EB030C04BFB6EBA3
:1008B000020C5FEA500C50F1000041EB045170BD96
:1008C0000EF0004E4EEA113114EB5C04C2BFD4EBC3
:1008D0000C0541EA045170BD41F480114FF0000E47
:1008E000013C90E645EA060E8DE60CEA135594EAC3
:1008F0000C0F08BF95EA0C0F3FF43BAF94EA0C0FC6
:100900000AD150EA01347FF434AF95EA0C0F7FF43A
:1009100025AF104619462CE795EA0C0F06D152EA8E
:1009200003353FF4FDAE1046194622E750EA410672
:1009300018BF52EA43067FF4C5AE50EA41047FF483
:100940000DAF52EA43057FF4EBAE12E753B94AB953
:10095000002908BF00281CBF4FF0FF314FF0FF30C7
:1009600000F00CB8ADF1080C6DE904CE03F0B2F85C
:10097000DDF804E0DDE9022304B07047704700BFF2
:100980000348044B834202D0034B03B1184770471E
:100990000C0000200C000020000000000548064B61
:1009A0001B1AD90F01EBA301491002D0034B03B16D
:1009B000184770470C0000200C00002000000000C9
:1009C00010B5064C237843B9FFF7DAFF044B13B197
:1009D0000448AFF300800123237010BD0C000020F9
:1009E00000000000903D000808B5054B1BB105490B
:1009F0000548AFF30080BDE80840FFF7CFBF00BF58
:100A00000000000010000020903D000880B594B068
:100A100000AF07F158037B6402F09AFC00F020F865
:100A200000F0E8F800F07CF800F0BAF80A4800F0AE
:100A300033FA3B461946084800F092FA4FF47A70B0
:100A400002F0F8FCD7E90223C7E91223002103488A
:100A500000F070FB00BFECE728000020A83D000874
:100A600080B594B000AF07F1200330220021184672
:100A700003F003F807F10C0300221A605A609A6031
:100A8000DA601A610023BB60234B1B6C224A43F0DF
:100A900080531364204B1B6C03F08053BB60BB6816
:100AA00000237B601D4B1B6823F440431B4A43F427
:100AB00080431360194B1B6803F440437B607B68E1
:100AC00002233B620123FB6210233B630023BB63D1
:100AD00007F12003184601F037FD0346002B01D033
:100AE00000F0DAF80F23FB6000233B6100237B61F9
:100AF0000023BB610023FB6107F10C0300211846B2
:100B000001F09AFF0346002B01D000F0C5F800BFAA
:100B10005037BD4680BD00BF003802400070004025
:100B200080B500AF1B4B1C4A1A601A4B1B4A5A6017
:100B3000184B00229A60174B0022DA60154B4FF4D5
:100B400040421A61134B00225A61124B00229A61F3
:100B5000104B0022DA610F4B00221A620D4800F0A0
:100B600025FB0346002B01D000F096F80021094830
:100B700001F06EFC0346002B01D000F08DF800213F
:100B8000044801F0A1FC0346002B01D000F084F8DA
:100B900000BF80BD2800002000540040A086010056
:100BA00080B500AF114B124A1A60104B4FF4E1327E
:100BB0005A600E4B00229A600C4B0022DA600B4BFD
:100BC00000221A61094B0C225A61084B00229A61DB
:100BD000064B0022DA61054802F062FC0346002B56
:100BE00001D000F059F800BF80BD00BF7C0000209C
:100BF000004C004080B588B000AF07F10C03002224
:100C00001A605A609A60DA601A610023BB60204B58
:100C10001B6B1F4A43F0010313631D4B1B6B03F057
:100C20000103BB60BB6800237B60194B1B6B184A38
:100C300043F040031363164B1B6B03F040037B60D0
:100C40007B6800233B60124B1B6B114A43F002038D
:100C500013630F4B1B6B03F002033B603B680022E6
:100C60004FF4C0410B4802F073FA4FF4C043FB60ED
:100C700001233B6100237B610023BB6107F10C036F
:100C80001946044802F0B8F800BF2037BD4680BDC1
:100C9000003802400018024080B400AF72B600BFB6
:100CA00000BFFDE780B400AF00BFFDE780B400AF38
:100CB00000BFFDE780B400AF00BFFDE780B400AF28
:100CC00000BFFDE780B400AF00BFFDE780B400AF18
:100CD00000BFBD465DF8047B704780B400AF00BF25
:100CE000BD465DF8047B704780B400AF00BFBD46D1
:100CF0005DF8047B704780B500AF02F07BFB00BF5E
:100D000080BD000080B483B000AF00237B60104B37
:100D10005B6C0F4A43F4804353640D4B5B6C03F4EC
:100D200080437B607B6800233B60094B1B6C084A57
:100D300043F080531364064B1B6C03F080533B60FD
:100D40003B6800BF0C37BD465DF8047B704700BFB1
:100D50000038024080B58AB000AF786007F1140314
:100D600000221A605A609A60DA601A617B681B6818
:100D7000194A93422BD100233B61184B1B6B174A36
:100D800043F002031363154B1B6B03F002033B613B
:100D90003B69C0237B611223BB610023FB610323FA
:100DA0003B6204237B6207F1140319460C4802F0EE
:100DB00023F80023FB60094B1B6C084A43F4001323
:100DC0001364064B1B6C03F40013FB60FB6800BF4D
:100DD0002837BD4680BD00BF0054004000380240A7
:100DE0000004024080B58AB000AF786007F11403B8
:100DF00000221A605A609A60DA601A617B681B6888
:100E0000194A93422BD100233B61184B1B6C174AA4
:100E100043F400231364154B1B6C03F400233B6164
:100E20003B690023FB60114B1B6B104A43F001032D
:100E300013630E4B1B6B03F00103FB60FB68032382
:100E40007B610223BB610023FB6103233B62082318
:100E50007B6207F114031946054801F0CDFF00BF7E
:100E60002837BD4680BD00BF004C0040003802401E
:100E70000000024080B584B000AF78604FF47A7310
:100E80000622D021786800F001FE0346FB73FB7B4D
:100E900018461037BD4680BD80B588B004AF786075
:100EA0007868FFF7E7FF0346FB73FB7B002B0CD151
:100EB000642302930123019307F10B0300930123A1
:100EC0007522D021786800F0AFFBFB7A682B42D105
:100ED0000023BB72642302930123019307F10A03E9
:100EE000009301236B22D021786800F0A3FA034617
:100EF000BB730723BB72BB7A1A4664230293012398
:100F0000019307F10A0300930123D021786800F0D0
:100F100091FA0823BB72642302930123019307F122
:100F20000A03009301231B22D021786800F082FA83
:100F300003467B730823BB7264230293012301934E
:100F400007F10A03009301231C22D021786800F0E6
:100F500071FA03463B7300BF1037BD4680BD0000E9
:100F600080B58AB004AF78603960642302930623A9
:100F7000019307F11003009301233B22D0217868ED
:100F800000F052FB0346FB753B7C1BB21B021AB2FE
:100F90007B7C1BB213431AB23B681A80BB7C1BB22A
:100FA0001B021AB2FB7C1BB213431AB23B685A8075
:100FB0003B7D1BB21B021AB27B7D1BB213431AB2DC
:100FC0003B689A803B68B3F900301846FFF742FA55
:100FD00053A3D3E90023FFF7A7FA02460B461046B6
:100FE00019464FF00002524BFFF7C8FB02460B4672
:100FF0003968C1E902233B68B3F902301846FFF7AC
:1010000029FA47A3D3E90023FFF78EFA02460B46DD
:10101000104619464FF00002454BFFF7AFFB024662
:101020000B463968C1E904233B68B3F9043018461C
:10103000FFF710FA3AA3D3E90023FFF775FA024647
:101040000B46104619464FF00002394BFFF796FB4E
:1010500002460B463968C1E906236423029306233E
:10106000019307F10803009301234322D0217868FC
:1010700000F0DAFA0346FB753B7A1BB21B021AB288
:101080007B7A1BB213431AB23B681A84BB7A1BB239
:101090001B021AB2FB7A1BB213431AB23B685A8482
:1010A0003B7B1BB21B021AB27B7B1BB213431AB2EF
:1010B0003B689A843B68B3F920301846FFF7CAF9B9
:1010C00019A3D3E90023FFF759FB02460B46396801
:1010D000C1E90A233B68B3F922301846FFF7BAF991
:1010E00011A3D3E90023FFF749FB02460B463968F9
:1010F000C1E90C233B68B3F924301846FFF7AAF97D
:1011000009A3D3E90023FFF739FB02460B463968F0
:10111000C1E90E2300BF1837BD4680BDAFF3008084
:101120001F85EB51B89E2340000000000060504036
:101130000000C04080B485B000AF03460A46FB7192
:101140001346BB714FF06043D3F8803E03F00103B8
:10115000002B20D04FF06043D3F8002EBB7922FA49
:1011600003F303F00103002B17D041F28833FB6037
:1011700005E0FB68013BFB60FB68002B0FD04FF0E4
:101180006042BB7952F82330002BF2D04FF060421E
:10119000FB79137004E000BF02E000BF00E000BF75
:1011A0001437BD465DF8047B7047000080B584B0FD
:1011B00000AF78607B68002B01D101232BE17B68B5
:1011C00093F83D30DBB2002B06D17B68002283F818
:1011D0003C207868FFF7BEFD7B68242283F83D2021
:1011E0007B681B681A687B681B6822F001021A6022
:1011F0007B681B681A687B681B6842F400421A60AF
:101200007B681B681A687B681B6822F400421A60BE
:1012100001F0CAFDF8607B685B68814A934207D899
:10122000FB68804A934294BF01230023DBB206E0AF
:10123000FB687D4A934294BF01230023DBB2002B5D
:1012400001D00123E7E0FB68784AA2FB03239B0C53
:10125000BB607B681B685B6823F03F017B681B6891
:10126000BA680A435A607B681B681B6A23F03F0117
:101270007B685B686A4A934202D8BB68013309E025
:10128000BB684FF4967202FB03F3694AA2FB032387
:101290009B0901337A6812680B4313627B681B68F1
:1012A000DB6923F44F4222F0FF027B685B685C49F4
:1012B0008B4219D8FB68591E7B685B685B00B1FBE9
:1012C000F3F3591C40F6FC730B40002B0AD0FB686B
:1012D000591E7B685B685B00B1FBF3F30133C3F31A
:1012E0000B0351E004234FE07B689B68002B11D176
:1012F000FB68581E7B6859680B465B000B44B0FBCB
:10130000F3F30133C3F30B03002B0CBF01230023C2
:10131000DBB212E0FB68581E7B6859680B469B00E5
:101320000B4499000B44B0FBF3F30133C3F30B03FD
:10133000002B0CBF01230023DBB2002B01D00123C3
:1013400022E07B689B68002B0ED1FB68581E7B68EF
:1013500059680B465B000B44B0FBF3F30133C3F356
:101360000B0343F400430FE0FB68581E7B68596889
:101370000B469B000B4499000B44B0FBF3F3013385
:10138000C3F30B0343F44043796809681343CB610B
:101390007B681B681B6823F0C0017B68DA697B6887
:1013A0001B6A1A437B681B680A431A607B681B68C8
:1013B0009B6823F4034323F0FF037A6811697A687A
:1013C000D26811437A6812680B4393607B681B688C
:1013D000DB6823F0FF017B685A697B689B691A43CD
:1013E0007B681B680A43DA607B681B681A687B6845
:1013F0001B6842F001021A607B6800221A647B6855
:10140000202283F83D207B6800221A637B6800223B
:1014100083F83E20002318461037BD4680BD00BF2C
:10142000A08601007F841E00FF083D0083DE1B4371
:10143000D34D621080B588B002AFF86008461146FF
:101440001A4603467B810B463B811346FB8001F025
:10145000E5FF7861FB6893F83D30DBB2202B40F06C
:10146000D9807B690093192301226D49F86800F047
:10147000B9FD0346002B01D00223CCE0FB6893F8B2
:101480003C30012B01D10223C5E0FB68012283F827
:101490003C20FB681B681B6803F00103012B07D08D
:1014A000FB681B681A68FB681B6842F001021A603F
:1014B000FB681B681A68FB681B6822F400621A60EC
:1014C000FB68212283F83D20FB68402283F83E2000
:1014D000FB6800221A64FB683A6A5A62FB68BA8C9D
:1014E0005A85FB685B8D9AB2FB681A85FB684D4A8A
:1014F000DA62F8883A8979897B690193BB6A00933B
:101500000346F86800F0F0FB0346002B52D001239D
:1015100081E07A69B96AF86800F07EFE0346002B24
:101520000DD0FB681B6C042B07D1FB681B681A6885
:10153000FB681B6842F400721A6001236BE0FB68D1
:101540005B6A1A78FB681B681A61FB685B6A5A1C45
:10155000FB685A62FB681B8D013B9AB2FB681A85D7
:10156000FB685B8D9BB2013B9AB2FB685A85FB68B6
:101570001B685B6903F00403042B1BD1FB681B8D04
:10158000002B17D0FB685B6A1A78FB681B681A612E
:10159000FB685B6A5A1CFB685A62FB681B8D013B47
:1015A0009AB2FB681A85FB685B8D9BB2013B9AB2CD
:1015B000FB685A85FB681B8D002BAAD17A69B96A32
:1015C000F86800F071FE0346002B0DD0FB681B6C21
:1015D000042B07D1FB681B681A68FB681B6842F480
:1015E00000721A60012316E0FB681B681A68FB682A
:1015F0001B6842F400721A60FB68202283F83D20C9
:10160000FB68002283F83E20FB68002283F83C2020
:10161000002300E0022318461837BD4680BD00BFF6
:10162000020010000000FFFF80B58CB002AFF86030
:10163000084611461A4603467B810B463B811346FA
:10164000FB8001F0EBFE7862FB6893F83D30DBB283
:10165000202B40F014827B6A0093192301227B49DE
:10166000F86800F0BFFC0346002B01D0022307E21C
:10167000FB6893F83C30012B01D1022300E2FB68A8
:10168000012283F83C20FB681B681B6803F0010300
:10169000012B07D0FB681B681A68FB681B6842F0C7
:1016A00001021A60FB681B681A68FB681B6822F459
:1016B00000621A60FB68222283F83D20FB6840220A
:1016C00083F83E20FB6800221A64FB683A6B5A627A
:1016D000FB68BA8E5A85FB685B8D9AB2FB681A85E7
:1016E000FB685B4ADA62F8883A8979897B6A0193F8
:1016F000BB6B00930346F86800F08CFB0346002B9D
:1017000001D00123BCE1FB681B8D002B13D100230A
:101710003B62FB681B685B693B62FB681B689B69FB
:101720003B623B6AFB681B681A68FB681B6842F4F3
:1017300000721A6090E1FB681B8D012B1BD1FB68C6
:101740001B681A68FB681B6822F480621A60002319
:10175000FB61FB681B685B69FB61FB681B689B693D
:10176000FB61FB69FB681B681A68FB681B6842F435
:1017700000721A6070E1FB681B8D022B1BD1FB68A5
:101780001B681A68FB681B6822F480621A60FB6899
:101790001B681A68FB681B6842F400621A60002329
:1017A000BB61FB681B685B69BB61FB681B689B696D
:1017B000BB61BB6950E100237B61FB681B685B690F
:1017C0007B61FB681B689B697B617B6944E1FB680B
:1017D0001B8D032B00F2F180FB681B8D012B23D1A5
:1017E0007A6AB96BF86800F0A7FD0346002B01D0B8
:1017F000012345E1FB681B681A69FB685B6AD2B28A
:101800001A70FB685B6A5A1CFB685A62FB681B8D86
:10181000013B9AB2FB681A85FB685B8D9BB2013B6A
:101820009AB2FB685A8517E1FB681B8D022B4ED1DB
:101830007B6A0093BB6B00220649F86800F0D2FB7C
:101840000346002B08D001231AE100BF020010005C
:101850000000FFFF04000100FB681B681A68FB68BA
:101860001B6842F400721A60FB681B681A69FB6807
:101870005B6AD2B21A70FB685B6A5A1CFB685A62D8
:10188000FB681B8D013B9AB2FB681A85FB685B8D78
:101890009BB2013B9AB2FB685A85FB681B681A69C8
:1018A000FB685B6AD2B21A70FB685B6A5A1CFB6801
:1018B0005A62FB681B8D013B9AB2FB681A85FB6874
:1018C0005B8D9BB2013B9AB2FB685A85C4E07B6A90
:1018D0000093BB6B00226C49F86800F083FB034661
:1018E000002B01D00123CBE0FB681B681A68FB6862
:1018F0001B6822F480621A60FB681B681A69FB6827
:101900005B6AD2B21A70FB685B6A5A1CFB685A6247
:10191000FB681B8D013B9AB2FB681A85FB685B8DE7
:101920009BB2013B9AB2FB685A857B6A0093BB6B02
:1019300000225549F86800F055FB0346002B01D002
:1019400001239DE0FB681B681A68FB681B6842F472
:1019500000721A60FB681B681A69FB685B6AD2B286
:101960001A70FB685B6A5A1CFB685A62FB681B8D25
:10197000013B9AB2FB681A85FB685B8D9BB2013B09
:101980009AB2FB685A85FB681B681A69FB685B6A38
:10199000D2B21A70FB685B6A5A1CFB685A62FB6819
:1019A0001B8D013B9AB2FB681A85FB685B8D9BB26D
:1019B000013B9AB2FB685A854EE07A6AB96BF868C7
:1019C00000F0BAFC0346002B01D0012358E0FB686D
:1019D0001B681A69FB685B6AD2B21A70FB685B6AA3
:1019E0005A1CFB685A62FB681B8D013B9AB2FB686C
:1019F0001A85FB685B8D9BB2013B9AB2FB685A85E6
:101A0000FB681B685B6903F00403042B24D1FB68AB
:101A10001B8D032B07D1FB681B681A68FB681B68CA
:101A200022F480621A60FB681B681A69FB685B6AB3
:101A3000D2B21A70FB685B6A5A1CFB685A62FB6878
:101A40001B8D013B9AB2FB681A85FB685B8D9BB2CC
:101A5000013B9AB2FB685A85FB681B8D002B7FF413
:101A6000B6AEFB68202283F83D20FB68002283F895
:101A70003E20FB68002283F83C20002300E0022384
:101A800018462837BD4680BD0400010080B58AB0E5
:101A900002AFF8607A603B600B467B8101F0BEFCD0
:101AA000F8610023BB61FB6893F83D30DBB2202B6B
:101AB00040F01181FB690093192301228849F868DD
:101AC00000F090FA0346002B01D0022304E1FB68EA
:101AD00093F83C30012B01D10223FDE0FB68012289
:101AE00083F83C20FB681B681B6803F00103012B93
:101AF00007D0FB681B681A68FB681B6842F001028C
:101B00001A60FB681B681A68FB681B6822F4006295
:101B10001A60FB68242283F83D20FB6800221A64C7
:101B2000FB68704ADA62FB681B681A68FB681B680E
:101B300042F480721A60FB6900933B6800224FF008
:101B40000111F86800F04EFA0346002B0DD0FB6837
:101B50001B681B6803F48073B3F5807F03D1FB68B7
:101B60004FF400721A640323B6E07B89DBB21A4695
:101B7000FB681B6802F0FE021A6101F04FFCF8617D
:101B8000FB681B685B6903F00203022B0CBF012397
:101B90000023DBB2FB75FB681B685B6903F48063A1
:101BA000B3F5806F0CBF01230023DBB2BB7525E0CA
:101BB00001F034FC0246FB69D31A3A689A4202D318
:101BC0003B68002B03D1FB68A02283F83D20FB6813
:101BD0001B685B6903F00203022B0CBF0123002387
:101BE000DBB2FB75FB681B685B6903F48063B3F5CC
:101BF000806F0CBF01230023DBB2BB75FB6893F839
:101C00003D30DBB2A02B05D0FB7D002B02D1BB7D8C
:101C1000002BCDD0FB68202283F83D20FB681B6899
:101C20005B6903F00203022B29D1FB681B681A6869
:101C3000FB681B6842F400721A6000233B61FB687A
:101C40001B685B693B61FB681B689B693B613B6987
:101C5000FB690093192301222149F86800F0C2F9B9
:101C60000346002B01D0012336E0FB68202283F8D5
:101C70003D20FB68002283F83C2000232CE0FB6819
:101C80001B681A68FB681B6842F400721A60FB68E4
:101C90001B686FF480625A61FB690093192301226B
:101CA0000F49F86800F09EF90346002B01D001238C
:101CB00012E0BB690133BB61BA697B689A42FFF4E9
:101CC00032AFFB68202283F83D20FB68002283F8B6
:101CD0003C20012300E0022318462037BD4680BD8A
:101CE000020010000000FFFF80B588B002AFF8606E
:101CF000084611461A4603467B810B463B81134634
:101D0000FB80FB681B681A68FB681B6842F48072E2
:101D10001A607B6A00933B6A00224FF00111F86859
:101D200000F060F90346002B0DD0FB681B681B68B0
:101D300003F48073B3F5807F03D1FB684FF4007226
:101D40001A6403235FE07B89DBB21A46FB681B68D9
:101D500002F0FE021A617B6A3A6A2D49F86800F0C7
:101D6000BBF90346002B01D001234CE000237B612B
:101D7000FB681B685B697B61FB681B689B697B6117
:101D80007B697A6A396AF86800F046FA0346002BE4
:101D90000DD0FB681B6C042B07D1FB681B681A680D
:101DA000FB681B6842F400721A6001232BE0FB8879
:101DB000012B05D13B89DAB2FB681B681A6121E06F
:101DC0003B891B0A9BB2DAB2FB681B681A617A6A0C
:101DD000396AF86800F020FA0346002B0DD0FB6842
:101DE0001B6C042B07D1FB681B681A68FB681B6817
:101DF00042F400721A60012305E03B89DAB2FB6805
:101E00001B681A61002318461837BD4680BD00BF05
:101E10000200010080B588B002AFF86008461146A4
:101E20001A4603467B810B463B811346FB80FB68C9
:101E30001B681A68FB681B6842F480621A60FB68C2
:101E40001B681A68FB681B6842F480721A607B6A20
:101E500000933B6A00224FF00111F86800F0C2F8CD
:101E60000346002B0DD0FB681B681B6803F48073CE
:101E7000B3F5807F03D1FB684FF400721A6403232B
:101E8000AAE07B89DBB21A46FB681B6802F0FE02FF
:101E90001A617B6A3A6A5249F86800F01DF90346F4
:101EA000002B01D0012397E000237B61FB681B68B6
:101EB0005B697B61FB681B689B697B617B697A6AF4
:101EC000396AF86800F0A8F90346002B0DD0FB68CA
:101ED0001B6C042B07D1FB681B681A68FB681B6826
:101EE00042F400721A60012376E0FB88012B05D1D1
:101EF0003B89DAB2FB681B681A6121E03B891B0A47
:101F00009BB2DAB2FB681B681A617A6A396AF868B0
:101F100000F082F90346002B0DD0FB681B6C042BEC
:101F200007D1FB681B681A68FB681B6842F40072E3
:101F30001A60012350E03B89DAB2FB681B681A6122
:101F40007A6A396AF86800F067F90346002B0DD009
:101F5000FB681B6C042B07D1FB681B681A68FB68C5
:101F60001B6842F400721A60012335E0FB681B68AD
:101F70001A68FB681B6842F480721A607B6A0093DF
:101F80003B6A00224FF00111F86800F02BF803467D
:101F9000002B0DD0FB681B681B6803F48073B3F53E
:101FA000807F03D1FB684FF400721A64032313E0AF
:101FB0007B89DBB243F00103DAB2FB681B681A616C
:101FC0007B6A3A6A0649F86800F086F80346002BF7
:101FD00001D0012300E0002318461837BD4680BD1C
:101FE0000200010080B584B000AFF860B9603B60CA
:101FF0001346FB7148E03B68B3F1FF3F44D001F06A
:102000000DFA0246BB69D31A3A689A4202D33B687A
:10201000002B39D1BB681B0CDBB2012B0DD1FB6847
:102020001B685B69DA43BB6813409BB2002B0CBF93
:1020300001230023DBB21A460CE0FB681B689B6996
:10204000DA43BB6813409BB2002B0CBF0123002373
:10205000DBB21A46FB799A4216D1FB6800221A635A
:10206000FB68202283F83D20FB68002283F83E2095
:10207000FB681B6C43F02002FB681A64FB680022BB
:1020800083F83C20012323E0BB681B0CDBB2012B4F
:102090000DD1FB681B685B69DA43BB6813409BB2D8
:1020A000002B0CBF01230023DBB21A460CE0FB68B7
:1020B0001B689B69DA43BB6813409BB2002B0CBFC3
:1020C00001230023DBB21A46FB799A4293D0002306
:1020D00018461037BD4680BD80B584B000AFF860AB
:1020E000B9607A603B6071E0FB681B685B6903F470
:1020F0008063B3F5806F23D1FB681B681A68FB68A7
:102100001B6842F400721A60FB681B686FF48062FF
:102110005A61FB6800221A63FB68202283F83D2085
:10212000FB68002283F83E20FB681B6C43F004022E
:10213000FB681A64FB68002283F83C20012367E0F7
:102140007B68B3F1FF3F41D001F068F902463B687C
:10215000D31A7A689A4202D37B68002B36D1BB68C7
:102160001B0CDBB2012B0CD1FB681B685B69DA43EB
:10217000BB6813409BB2002B14BF01230023DBB2CA
:102180000BE0FB681B689B69DA43BB6813409BB29A
:10219000002B14BF01230023DBB2002B16D0FB68F9
:1021A00000221A63FB68202283F83D20FB6800228E
:1021B00083F83E20FB681B6C43F02002FB681A6426
:1021C000FB68002283F83C20012321E0BB681B0C44
:1021D000DBB2012B0CD1FB681B685B69DA43BB687F
:1021E00013409BB2002B14BF01230023DBB20BE092
:1021F000FB681B689B69DA43BB6813409BB2002BEA
:1022000014BF01230023DBB2002B7FF46DAF00234A
:1022100018461037BD4680BD80B584B000AFF86069
:10222000B9607A6034E0F86800F0E3F80346002B08
:1022300001D0012334E0BB68B3F1FF3F28D001F0A7
:10224000EDF802467B68D31ABA689A4202D3BB689B
:10225000002B1DD1FB681B685B6903F08003802B9A
:1022600016D0FB6800221A63FB68202283F83D2009
:10227000FB68002283F83E20FB681B6C43F02002C1
:10228000FB681A64FB68002283F83C20012307E006
:10229000FB681B685B6903F08003802BC3D10023BC
:1022A00018461037BD4680BD80B584B000AFF860D9
:1022B000B9607A6034E0F86800F09BF80346002BC0
:1022C00001D0012334E0BB68B3F1FF3F28D001F017
:1022D000A5F802467B68D31ABA689A4202D3BB6853
:1022E000002B1DD1FB681B685B6903F00403042B02
:1022F00016D0FB6800221A63FB68202283F83D2079
:10230000FB68002283F83E20FB681B6C43F0200230
:10231000FB681A64FB68002283F83C20012307E075
:10232000FB681B685B6903F00403042BC3D1002323
:1023300018461037BD4680BD80B584B000AFF86048
:10234000B9607A6049E0FB681B685B6903F01003C1
:10235000102B19D1FB681B686FF010025A61FB68E3
:1023600000221A63FB68202283F83D20FB680022CC
:1023700083F83E20FB681A6CFB681A64FB68002235
:1023800083F83C20012330E001F048F802467B68E6
:10239000D31ABA689A4202D3BB68002B1DD1FB68DE
:1023A0001B685B6903F04003402B16D0FB680022DA
:1023B0001A63FB68202283F83D20FB68002283F823
:1023C0003E20FB681B6C43F02002FB681A64FB682C
:1023D000002283F83C20012307E0FB681B685B694F
:1023E00003F04003402BAED1002318461037BD4602
:1023F00080BD80B483B000AF78607B681B685B6988
:1024000003F48063B3F5806F1BD17B681B686FF4A6
:1024100080625A617B6800221A637B68202283F8FD
:102420003D207B68002283F83E207B681B6C43F0D4
:1024300004027B681A647B68002283F83C20012335
:1024400000E0002318460C37BD465DF8047B70475A
:1024500080B483B000AF786039607B6893F83D301A
:10246000DBB2202B29D17B68242283F83D207B68B6
:102470001B681A687B681B6822F001021A607B687F
:102480001B685A6A7B681B6822F010025A627B68DC
:102490001B68596A7B681B683A680A435A627B6802
:1024A0001B681A687B681B6842F001021A607B682F
:1024B000202283F83D20002300E0022318460C3739
:1024C000BD465DF8047B704780B485B000AF78608E
:1024D00039600023FB817B6893F83D30DBB2202B11
:1024E0002AD17B68242283F83D207B681B681A6808
:1024F0007B681B6822F001021A607B681B685B6ABC
:10250000FB81FB8923F00F03FB813B689AB2FB89B7
:102510001343FB817B681B68FA895A627B681B68DE
:102520001A687B681B6842F001021A607B682022EF
:1025300083F83D20002300E0022318461437BD46EF
:102540005DF8047B7047000080B586B000AF78600E
:102550007B68002B01D1012367E27B681B6803F0D5
:102560000103002B75D0884B9B6803F00C03042BF0
:102570000CD0854B9B6803F00C03082B12D1824BC7
:102580005B6803F48003B3F5800F0BD17E4B1B68AF
:1025900003F40033002B5BD07B685B68002B57D1C2
:1025A000012342E27B685B68B3F5803F06D1764B3E
:1025B0001B68754A43F4803313601DE07B685B68D9
:1025C000B3F5A02F0CD1704B1B686F4A43F48023E6
:1025D00013606D4B1B686C4A43F4803313600BE04F
:1025E000694B1B68684A23F480331360664B1B6891
:1025F000654A23F4802313607B685B68002B13D04B
:1026000000F00CFF386108E000F008FF02463B696B
:10261000D31A642B01D9032307E25B4B1B6803F435
:102620000033002BF0D014E000F0F8FE386108E031
:1026300000F0F4FE02463B69D31A642B01D9032350
:10264000F3E1514B1B6803F40033002BF0D100E0A1
:1026500000BF7B681B6803F00203002B63D04A4B6A
:102660009B6803F00C03002B0BD0474B9B6803F0D7
:102670000C03082B1CD1444B5B6803F48003002B34
:1026800016D1414B1B6803F00203002B05D07B6879
:10269000DB68012B01D00123C7E13B4B1B6823F012
:1026A000F8027B681B69DB00374913430B603AE093
:1026B0007B68DB68002B20D0344B01221A6000F0CD
:1026C000ADFE386108E000F0A9FE02463B69D31A6E
:1026D000022B01D90323A8E12B4B1B6803F0020353
:1026E000002BF0D0284B1B6823F0F8027B681B6995
:1026F000DB00254913430B6015E0244B00221A60D0
:1027000000F08CFE386108E000F088FE02463B696C
:10271000D31A022B01D9032387E11B4B1B6803F05B
:102720000203002BF0D17B681B6803F00803002B29
:1027300036D07B685B69002B16D0154B01221A60DE
:1027400000F06CFE386108E000F068FE02463B696C
:10275000D31A022B01D9032367E10B4B5B6F03F004
:102760000203002BF0D01BE0094B00221A6000F09E
:1027700055FE38610EE000F051FE02463B69D31A67
:10278000022B07D9032350E10038024000004742E2
:10279000800E4742884B5B6F03F00203002BEAD1A7
:1027A0007B681B6803F00403002B00F09780002374
:1027B000FB75814B1B6C03F08053002B0FD1002362
:1027C000BB607D4B1B6C7C4A43F0805313647A4B97
:1027D0001B6C03F08053BB60BB680123FB75774B18
:1027E0001B6803F48073002B18D1744B1B68734A69
:1027F00043F48073136000F011FE386108E000F0CC
:102800000DFE02463B69D31A022B01D903230CE1CA
:102810006A4B1B6803F48073002BF0D07B689B68C5
:10282000012B06D1644B1B6F634A43F0010313670E
:102830001CE07B689B68052B0CD15F4B1B6F5E4ACD
:1028400043F0040313675C4B1B6F5B4A43F00103C7
:1028500013670BE0584B1B6F574A23F001031367B4
:10286000554B1B6F544A23F0040313677B689B6826
:10287000002B15D000F0D2FD38610AE000F0CEFD4B
:1028800002463B69D31A41F28832934201D90323AD
:10289000CBE0494B1B6F03F00203002BEED014E09A
:1028A00000F0BCFD38610AE000F0B8FD02463B696B
:1028B000D31A41F28832934201D90323B5E03E4B4B
:1028C0001B6F03F00203002BEED1FB7D012B05D122
:1028D000394B1B6C384A23F0805313647B689B6927
:1028E000002B00F0A180344B9B6803F00C03082BF5
:1028F0005CD07B689B69022B41D1314B00221A606E
:1029000000F08CFD386108E000F088FD02463B696C
:10291000D31A022B01D9032387E0274B1B6803F04E
:102920000073002BF0D17B68DA697B681B6A1A435D
:102930007B685B6A9B011A437B689B6A5B08013B6F
:102940001B041A437B68DB6A1B061B4913434B605D
:102950001B4B01221A6000F061FD386108E000F0B5
:102960005DFD02463B69D31A022B01D903235CE0CB
:10297000114B1B6803F00073002BF0D054E0104B98
:1029800000221A6000F04AFD386108E000F046FDC0
:1029900002463B69D31A022B01D9032345E0064BBB
:1029A0001B6803F00073002BF0D13DE07B689B694E
:1029B000012B07D1012338E00038024000700040AD
:1029C000600047421B4B5B68FB607B689B69012B87
:1029D00028D0FB6803F480027B68DB699A4221D12E
:1029E000FB6803F03F027B681B6A9A421AD1FA68BF
:1029F00047F6C07313407A68526A9201934211D12C
:102A0000FB6803F440327B689B6A5B08013B1B0454
:102A10009A4207D1FB6803F070627B68DB6A1B0691
:102A20009A4201D0012300E0002318461837BD4622
:102A300080BD00BF0038024080B584B000AF786030
:102A400039607B68002B01D10123CCE0684B1B6807
:102A500003F00F033A689A420CD9654B3A68D2B238
:102A60001A70634B1B6803F00F033A689A4201D057
:102A70000123B8E07B681B6803F00203002B20D021
:102A80007B681B6803F00403002B05D0594B9B683F
:102A9000584A43F4E05393607B681B6803F00803D3
:102AA000002B05D0534B9B68524A43F4604393601C
:102AB000504B9B6823F0F0027B689B684D491343A1
:102AC0008B607B681B6803F00103002B44D07B689C
:102AD0005B68012B07D1474B1B6803F40033002BC5
:102AE00019D101237FE07B685B68022B03D07B68F0
:102AF0005B68032B07D13F4B1B6803F00073002B6F
:102B000009D101236FE03B4B1B6803F00203002B4C
:102B100001D1012367E0374B9B6823F003027B68F8
:102B20005B68344913438B6000F078FCF8600AE07E
:102B300000F074FC0246FB68D31A41F288329342DB
:102B400001D903234FE02B4B9B6803F00C027B68F9
:102B50005B689B009A42EBD1254B1B6803F00F0387
:102B60003A689A420CD2224B3A68D2B21A70204B81
:102B70001B6803F00F033A689A4201D0012332E048
:102B80007B681B6803F00403002B08D0194B9B687B
:102B900023F4E0527B68DB68164913438B607B6843
:102BA0001B6803F00803002B09D0124B9B6823F429
:102BB00060427B681B69DB000E4913438B6000F0A9
:102BC00021F802460B4B9B681B0903F00F030A49CF
:102BD000CB5C22FA03F3094A1360094B1B681846C1
:102BE00000F0D8FB002318461037BD4680BD00BF5B
:102BF000003C024000380240B03D000808000020C0
:102C0000000000202DE9B04F90B000AF00237B639F
:102C10000023FB6300233B630023BB63594B9B688A
:102C200003F00C03082B0DD0082B00F2A180002B21
:102C300002D0042B03D09BE0534BBB639BE0534B70
:102C4000BB6398E04F4B5B6803F03F037B634D4BE6
:102C50005B6803F48003002B28D04A4B5B689B0918
:102C600000223B627A623B6AC3F308000021474BB3
:102C700003FB01F2002300FB03F31344434AA0FBD0
:102C80000212FA620A46BA62FA6A1344FB627B6B6A
:102C90000022BB61FA61D7E90623D7E90A01FDF7F3
:102CA00055FE02460B461346FB6353E0354B5B680B
:102CB0009B0900223B617A613B69C3F3080A4FF02C
:102CC000000B52465B464FF000004FF000015901E7
:102CD00041EAD261500102460B46B2EB0A0863EBAF
:102CE0000B094FF000024FF000034FEA891343EA4B
:102CF00098634FEA8812B2EB080463EB09054FF0C2
:102D000000024FF00003EB0043EA5473E200144664
:102D10001D4614EB0A033B6045EB0B037B604FF051
:102D200000024FF00003D7E9004529468B022146F7
:102D300043EA915321468A02104619467B6B0022D2
:102D4000BB60FA60D7E90223FDF700FE02460B469E
:102D50001346FB630B4B5B681B0C03F0030301334F
:102D60005B003B63FA6B3B6BB2FBF3F3BB6302E0CC
:102D7000054BBB6300BFBB6B18464037BD46BDE883
:102D8000B08F00BF003802400024F40040787D017D
:102D900080B400AF034B1B681846BD465DF8047B4A
:102DA000704700BF0800002080B500AFFFF7F0FFBC
:102DB0000246054B9B689B0A03F007030349CB5C63
:102DC00022FA03F3184680BD00380240C03D0008D7
:102DD00080B500AFFFF7DCFF0246054B9B685B0B3D
:102DE00003F007030349CB5C22FA03F3184680BDC6
:102DF00000380240C03D000880B489B000AF786060
:102E0000396000237B6100233B610023BB61002309
:102E1000FB6177E10122FB6902FA03F37B613B6806
:102E20001B687A6913403B613A697B699A4240F0BA
:102E300066813B685B6803F00303012B05D03B68A8
:102E40005B6803F00303022B30D17B689B68BB6196
:102E5000FB695B00032202FA03F3DB43BA69134008
:102E6000BB613B68DA68FB695B0002FA03F3BA698D
:102E70001343BB617B68BA699A607B685B68BB611E
:102E80000122FB6902FA03F3DB43BA691340BB6119
:102E90003B685B681B0903F00102FB6902FA03F35C
:102EA000BA691343BB617B68BA695A603B685B6867
:102EB00003F00303032B17D07B68DB68BB61FB695E
:102EC0005B00032202FA03F3DB43BA691340BB61E0
:102ED0003B689A68FB695B0002FA03F3BA69134323
:102EE000BB617B68BA69DA603B685B6803F0030327
:102EF000022B23D1FB69DA087B68083253F82230B1
:102F0000BB61FB6903F007039B000F2202FA03F386
:102F1000DB43BA691340BB613B681A69FB6903F084
:102F200007039B0002FA03F3BA691343BB61FB6911
:102F3000DA087B680832B96943F822107B681B689D
:102F4000BB61FB695B00032202FA03F3DB43BA694E
:102F50001340BB613B685B6803F00302FB695B00E5
:102F600002FA03F3BA691343BB617B68BA691A605A
:102F70003B685B6803F44033002B00F0C080002303
:102F8000FB60664B5B6C654A43F480435364634B60
:102F90005B6C03F48043FB60FB68614AFB699B0840
:102FA000023352F82330BB61FB6903F003039B003B
:102FB0000F2202FA03F3DB43BA691340BB617B685B
:102FC000584A934237D07B68574A934231D07B6846
:102FD000564A93422BD07B68554A934225D07B6852
:102FE000544A93421FD07B68534A934219D07B685E
:102FF000524A934213D07B68514A93420DD07B686A
:10300000504A934207D07B684F4A934201D109232B
:1030100012E00A2310E008230EE007230CE0062349
:103020000AE0052308E0042306E0032304E002236A
:1030300002E0012300E00023FA6902F0030292009B
:103040009340BA691343BB613549FB699B0802335E
:10305000BA6941F823203D4B9B68BB613B69DB4368
:10306000BA691340BB613B685B6803F48013002BB3
:1030700003D0BA693B691343BB61344ABB699360AF
:10308000324BDB68BB613B69DB43BA691340BB6110
:103090003B685B6803F40013002B03D0BA693B69FB
:1030A0001343BB61294ABB69D360284B5B68BB6192
:1030B0003B69DB43BA691340BB613B685B6803F45F
:1030C0000033002B03D0BA693B691343BB611F4A2D
:1030D000BB6953601D4B1B68BB613B69DB43BA692D
:1030E0001340BB613B685B6803F48033002B03D063
:1030F000BA693B691343BB61144ABB691360FB693E
:103100000133FB61FB690F2B7FF684AE00BF00BF6C
:103110002437BD465DF8047B704700BF003802408D
:103120000038014000000240000402400008024054
:10313000000C02400010024000140240001802403F
:10314000001C02400020024000240240003C0140DC
:1031500080B483B000AF78600B467B8013467B70F1
:103160007B78002B03D07A887B689A6103E07B88A8
:103170001A047B689A6100BF0C37BD465DF8047B7A
:103180007047000080B485B000AF78607B6803F0C2
:103190000703FB600C4BDB68BB60BA684FF6FF03AC
:1031A0001340BB60FB681A02BB68134343F0BF6364
:1031B00043F40033BB60044ABB68D36000BF1437DC
:1031C000BD465DF8047B704700ED00E080B400AFC1
:1031D000044BDB681B0A03F007031846BD465DF885
:1031E000047B704700ED00E080B483B000AF03467D
:1031F0003960FB7197F90730002B0ADB3B68DAB2C4
:103200000C4997F907301201D2B20B4483F800231E
:103210000AE03B68DAB20849FB7903F00F03043B8C
:103220001201D2B20B441A7600BF0C37BD465DF8CE
:10323000047B704700E100E000ED00E080B489B05D
:1032400000AFF860B9607A60FB6803F00703FB61C8
:10325000FB69C3F10703042B28BF0423BB61FB698F
:103260000433062B02D9FB69033B00E000237B619A
:103270004FF0FF32BB6902FA03F3DA43BB681A402E
:103280007B699A404FF0FF317B6901FA03F3D94320
:103290007B680B40134318462437BD465DF8047B1A
:1032A0007047000080B582B000AF78607B68013B5A
:1032B000B3F1807F01D301230FE00A4A7B68013B11
:1032C00053600F214FF0FF30FFF78EFF054B0022B8
:1032D0009A60044B07221A60002318460837BD463F
:1032E00080BD00BF10E000E080B582B000AF786024
:1032F0007868FFF747FF00BF0837BD4680BD80B53F
:1033000086B000AF0346B9607A60FB7300237B612F
:10331000FFF75CFF78617A68B9687869FFF78EFF1C
:10332000024697F90F3011461846FFF75DFF00BFC0
:103330001837BD4680BD80B582B000AF7860786830
:10334000FFF7B0FF034618460837BD4680BD0000B2
:1033500080B500AF0E4B1B680D4A43F40073136039
:103360000B4B1B680A4A43F480631360084B1B68CD
:10337000074A43F4807313600320FFF7B5FF0F2063
:1033800000F008F8FDF7BEFC0023184680BD00BF22
:10339000003C024080B582B000AF7860124B1A68E2
:1033A000124B1B7819464FF47A73B3FBF1F3B2FB5F
:1033B000F3F31846FFF7BFFF0346002B01D00123AC
:1033C0000EE07B680F2B0AD8002279684FF0FF309F
:1033D000FFF795FF064A7B681360002300E0012396
:1033E00018460837BD4680BD0800002004000020B4
:1033F0000000002080B400AF064B1B781A46064B35
:103400001B681344044A136000BFBD465DF8047B8B
:10341000704700BF04000020C400002080B400AF4B
:10342000034B1B681846BD465DF8047B704700BF20
:10343000C400002080B584B000AF7860FFF7EEFFD5
:10344000B8607B68FB60FB68B3F1FF3F05D00A4BB7
:103450001B781A46FB681344FB6000BFFFF7DEFFD2
:103460000246BB68D31AFA689A42F7D800BF00BF79
:103470001037BD4680BD00BF0400002080B400AFFF
:10348000064BD3F88830054A43F47003C2F88830FD
:1034900000BFBD465DF8047B704700BF00ED00E053
:1034A00080B582B000AF78607B68002B01D101232A
:1034B00042E07B6893F84130DBB2002B06D17B6899
:1034C000002283F840207868FDF78CFC7B6824227A
:1034D00083F841207B681B68DA687B681B6822F4EC
:1034E0000052DA60786800F02BF87B681B681A6974
:1034F0007B681B6822F490421A617B681B685A69DA
:103500007B681B6822F02A025A617B681B68DA68B4
:103510007B681B6842F40052DA607B6800225A64C0
:103520007B68202283F841207B68202283F8422098
:103530007B6800225A63002318460837BD4680BDC9
:103540002DE9B04FC0B000AFC7F8F400D7F8F430A1
:103550001B681B6923F44050D7F8F430D968D7F8BA
:10356000F4301A6840EA01031361D7F8F4309A681E
:10357000D7F8F4301B691A43D7F8F4305B691A4363
:10358000D7F8F430DB691343C7F8F830D7F8F430D4
:103590001B68DB6823F4164121F00C01D7F8F430E6
:1035A0001A68D7F8F8300B43D360D7F8F4301B68AB
:1035B0005B6923F44070D7F8F4309969D7F8F43098
:1035C0001A6840EA01035361D7F8F4301A688F4B48
:1035D0009A4205D0D7F8F4301A688D4B9A4204D13C
:1035E000FFF7F6FBC7F8FC0003E0FFF7DDFBC7F8C9
:1035F000FC00D7F8F430DB69B3F5004F40F00C81E4
:10360000D7F8FC300022C7F8E830C7F8EC20D7E93B
:103610003A4522462B469118B9655B41FB65D7E9CF
:103620001623214612EB0108294643EB01094FF00E
:1036300000024FF000034FEAC90343EA58734FEA10
:10364000C80290469946234618EB0303C7F8E030BA
:103650002B4649EB0303C7F8E430D7F8F4305B6836
:103660000022C7F8D830C7F8DC20D7E936120B465D
:10367000DB183B65134642EB03037B65D7E9142354
:10368000D7E93801FDF762F902460B46614BA3FB0F
:1036900002235B091C01D7F8FC300022C7F8D030A8
:1036A000C7F8D420D7E9348942464B469118B9640B
:1036B0005B41FB64D7E91223414612EB010A4946FC
:1036C00043EB010B4FF000024FF000034FEACB0336
:1036D00043EA5A734FEACA0292469B4643461AEBA4
:1036E0000303C7F8C8304B464BEB0303C7F8CC3095
:1036F000D7F8F4305B680022C7F8C030C7F8C420A0
:10370000D7E930120B46DB183B64134642EB030348
:103710007B64D7E91023D7E93201FDF717F9024698
:103720000B4611463B4BA3FB01235B09642202FBC2
:1037300003F3CB1ADB0003F13202364BA3FB022367
:103740005B095B0003F4F8731C44D7F8FC300022DB
:10375000C7F8B830C7F8BC20D7E92E8942464B4697
:103760009118B9635B41FB63D7E90E2341465118B9
:10377000396349464B417B634FF000024FF0000331
:10378000D7E90CAB5946CB00514643EA5173514639
:10379000CA0010461946034642469B18C7F8B03087
:1037A0004B460A4642EB0303C7F8B430D7F8F4306F
:1037B0005B680022C7F8A830C7F8AC20D7E92A1206
:1037C0000B46DB18BB62134642EB0303FB62D7E9EF
:1037D0000A23D7E92C01FDF7B9F802460B460D4B39
:1037E000A3FB02135B09642101FB03F3D31ADB0083
:1037F0003233084AA2FB03235B0903F00702D7F820
:10380000F4301B6822449A6006E100BF00100140BA
:10381000001401401F85EB51D7F8FC300022C7F897
:10382000A030C7F8A420D7E9288942464B46911812
:1038300039625B417B62D7E9082341465418494607
:1038400043EB01054FF000024FF00003EB0043EAA9
:103850005473E20014461D464346E318C7F89830F7
:103860004B4645EB0303C7F89C30D7F8F4305B6850
:103870000022C7F89030C7F894204FF000024FF0B4
:103880000003D7E9244529468B00214643EA91737A
:1038900021468A00D7E92601FDF758F802460B4673
:1038A000604BA3FB02235B091C01D7F8FC3000220C
:1038B000C7F88830C7F88C20D7E9228942464B46A2
:1038C0009118B9615B41FB61D7E906234146511864
:1038D000396149464B417B614FF000024FF00003D4
:1038E000D7E904AB5946CB00514643EA51735146E0
:1038F000CA0010461946034642469B18C7F8803056
:103900004B460A4642EB0303C7F88430D7F8F4303D
:103910005B680022BB67FA674FF000024FF00003BC
:10392000D7E91E8949468B00414643EA91734146D7
:103930008A00D7E92001FDF709F802460B46114637
:10394000384BA3FB01235B09642202FB03F3CB1A70
:103950001B013233334AA2FB03235B0903F0F0035C
:103960001C44D7F8FC3000223B677A67D7E91C89F2
:1039700042464B469118B9605B41FB60D7E9022390
:1039800041465118396049464B417B604FF0000277
:103990004FF00003D7E900AB5946CB00514643EA4C
:1039A00051735146CA0010461946034642469B18B9
:1039B000BB664B460A4642EB0303FB66D7F8F4307E
:1039C0005B6800223B667A664FF000024FF000030E
:1039D000D7E9188949468B00414643EA917341462D
:1039E0008A00D7E91A01FCF7B1FF02460B460D4BDE
:1039F000A3FB02135B09642101FB03F3D31A1B0130
:103A00003233084AA2FB03235B0903F00F02D7F805
:103A1000F4301B6822449A6000BF07F58077BD46EA
:103A2000BDE8B08F1F85EB51DFF834D0FFF726FDDE
:103A30000C480D490D4A002302E0D458C450043309
:103A4000C4188C42F9D30A4A0A4C002301E01360DF
:103A50000432A242FBD300F019F8FCF7D7FF7047FD
:103A600000000320000000200C000020D83D0008CA
:103A70000C000020C8000020FEE7024403469342E9
:103A800000D1704703F8011BF9E7000070B50D4D38
:103A90000D4C641BA4100026A64209D10B4D0C4C02
:103AA00000F076F9641BA4100026A64205D170BD73
:103AB00055F8043B98470136EEE755F8043B984724
:103AC0000136F2E7D03D0008D03D0008D03D0008A7
:103AD000D43D00082DE9F047089D0E4604460F46E8
:103AE000002B4AD194468C45B2FA82F260D942B199
:103AF000C2F12003974020FA03F30CFA02FC1F43A3
:103B000094404FEA1C4E1FFA8CF6B7FBFEF1230CD3
:103B10000EFB117743EA074301FB06F098420AD9EE
:103B20001CEB030301F1FF3780F01581984240F24E
:103B30001281023963441B1AA4B2B3FBFEF00EFBE0
:103B4000103344EA034400FB06F6A6420AD91CEBF4
:103B5000040400F1FF3380F00081A64240F2FD80B2
:103B60006444023840EA0140A41B00211DB1D44046
:103B70000023C5E90043BDE8F0878B4205D90DB1AC
:103B8000C5E9000100210846F5E7B3FA83F10029F1
:103B900046D1B34202D3824200F2F580841A66EB2A
:103BA000030201201746002DE5D0C5E90047E2E7F2
:103BB000002A40F09380A1EB0C034FEA1C471FFA48
:103BC0008CFE0121B3FBF7F607FB1630230C43EA0A
:103BD00000430EFB06F0984208D91CEB030306F1E4
:103BE000FF3802D2984200F2D08046461B1AA4B297
:103BF000B3FBF7F007FB103344EA03440EFB00FE6F
:103C0000A64508D91CEB040400F1FF3302D2A645F7
:103C100000F2B6801846A4EB0E0440EA0640A5E781
:103C2000C1F120078B4022FA07FC4CEA030C06FA8C
:103C300001FE20FA07F426FA07F344EA0E0400FA1C
:103C400001F84FEA1C404FEA1449B3FBF0FE1FFA9B
:103C50008CF600FB1E3349EA03430EFB06F9994537
:103C600002FA01F20BD91CEB03030EF1FF3A80F0CC
:103C70008580994540F28280AEF1020E6344A3EB49
:103C80000909A4B2B9FBF0F300FB139944EA094413
:103C900003FB06F6A64208D91CEB040403F1FF302F
:103CA00068D2A64266D9023B644443EA0E40A41B94
:103CB000A0FB02E6B4427346B14652D34FD05DB189
:103CC000B8EB030264EB090404FA07F722FA01F3E4
:103CD0001F43CC40C5E9007400214CE7C2F120012C
:103CE00020FA01F30CFA02FC26FA01F19640334364
:103CF0004FEA1C471FFA8CFEB1FBF7F007FB1016CA
:103D0000190C41EA064100FB0EF68E4204FA02F459
:103D100008D91CEB010100F1FF382DD28E422BD9BE
:103D200002386144891B9BB2B1FBF7F607FB161101
:103D300043EA014306FB0EF1994208D91CEB030349
:103D400006F1FF3814D2994212D9023E63445B1A3D
:103D500046EA004136E73946EDE6184602E7F04507
:103D6000ADD2BEEB020366EB0C060138B146A6E706
:103D70004646ECE7034698E74046D3E7D6467EE75B
:103D80006444023847E708460DE7023E63442DE7E6
:103D9000F8B500BFF8BC08BC9E467047F8B500BF38
:083DA000F8BC08BC9E46704708
:103DA8004B696C6C0A000000000000000000000075
:103DB80001020304060708090000000001020304C9
:083DC8000CFDFF7F010000006B
:043DD000E9090008F5
:043DD400C109000819
:0C3DD80010000000010000000024F400B6
:0400000508003A298C
:00000001FF
