:020000040800F2
:1000000000000320D5730008AD0D0008B50D0008F1
:10001000BD0D0008C50D0008CD0D00080000000052
:10002000000000000000000000000000D50D0008E6
:10003000E30D000800000000F10D0008FF0D0008AE
:10004000257400082574000825740008257400082C
:10005000257400082574000825740008257400081C
:10006000257400082574000825740008257400080C
:1000700025740008257400082574000825740008FC
:1000800025740008257400082574000825740008EC
:1000900025740008257400082574000825740008DC
:1000A00025740008257400082574000825740008CC
:1000B00025740008257400082574000825740008BC
:1000C00025740008257400082574000825740008AC
:1000D000257400082574000825740008257400089C
:1000E000257400082574000825740008257400088C
:1000F000257400082574000825740008257400087C
:10010000257400082574000825740008257400086B
:10011000257400082574000825740008257400085B
:10012000257400082574000825740008257400084B
:10013000257400082574000825740008257400083B
:10014000257400082574000825740008257400082B
:10015000257400082574000825740008257400081B
:10016000257400082574000825740008257400080B
:10017000257400080D0E000825740008000000001A
:1001800025740008257400082574000825740008EB
:1001900025740008257400082574000825740008DB
:0C01A00025740008257400082574000870
:1001B00001F0FF01102A2BDB10F0070F08D010F818
:1001C000013B013A8B422DD010F0070F42B3F6D11C
:1001D000F0B441EA012141EA014122F007047FF035
:1001E00000070023F0E80256083C85EA010586EA8C
:1001F000010685FA47F5A3FA87F586FA47F6A5FAC8
:1002000087F68EB9EED1F0BC01F0FF0102F00702D3
:1002100032B110F8013B013A83EA010313B1F8D17E
:100220000020704701387047002D06BF354603385F
:10023000073815F0010F07D1013015F4807F02BF98
:10024000013015F4C03F0130F0BC0138704700BFE9
:1002500081F0004102E000BF83F0004330B54FEA77
:1002600041044FEA430594EA050F08BF90EA020FE4
:100270001FBF54EA000C55EA020C7FEA645C7FEA77
:10028000655C00F0E2804FEA5454D4EB5555B8BF9A
:100290006D420CDD2C4480EA020281EA030382EA0B
:1002A000000083EA010180EA020281EA0303362D9D
:1002B00088BF30BD11F0004F4FEA01314FF4801C70
:1002C0004CEA113102D0404261EB410113F0004F82
:1002D0004FEA03334CEA133302D0524263EB430339
:1002E00094EA050F00F0A780A4F10104D5F1200ED7
:1002F0000DDB02FA0EFC22FA05F2801841F1000132
:1003000003FA0EF2801843FA05F359410EE0A5F105
:1003100020050EF1200E012A03FA0EFC28BF4CF036
:10032000020C43FA05F3C01851EBE37101F00045EC
:1003300007D54FF0000EDCF1000C7EEB00006EEBF9
:100340000101B1F5801F1BD3B1F5001F0CD3490883
:100350005FEA30004FEA3C0C04F101044FEA4452DA
:1003600012F5800F80F09A80BCF1004F08BF5FEA61
:10037000500C50F1000041EB045141EA050130BD41
:100380005FEA4C0C404141EB0101013C28BFB1F553
:10039000801FE9D291F0000F04BF01460020B1FA9E
:1003A00081F308BF2033A3F10B03B3F120020CDA71
:1003B0000C3208DD02F1140CC2F10C0201FA0CF04F
:1003C00021FA02F10CE002F11402D8BFC2F1200CB4
:1003D00001FA02F120FA0CFCDCBF41EA0C0190406A
:1003E000E41AA2BF01EB0451294330BD6FEA0404B3
:1003F0001F3C1CDA0C340EDC04F11404C4F120029E
:1004000020FA04F001FA02F340EA030021FA04F3AF
:1004100045EA030130BDC4F10C04C4F1200220FA06
:1004200002F001FA04F340EA0300294630BD21FA44
:1004300004F0294630BD94F0000F83F4801306BF0A
:1004400081F480110134013D4EE77FEA645C18BFFE
:100450007FEA655C29D094EA050F08BF90EA020F95
:1004600005D054EA000C04BF1946104630BD91EA8D
:10047000030F1EBF0021002030BD5FEA545C05D190
:100480004000494128BF41F0004130BD14F58004CF
:100490003CBF01F5801130BD01F0004545F0FE4143
:1004A00041F470014FF0000030BD7FEA645C1ABF78
:1004B000194610467FEA655C1CBF0B46024650EAAF
:1004C000013406BF52EA033591EA030F41F40021DB
:1004D00030BD00BF90F0000F04BF0021704730B561
:1004E0004FF4806404F132044FF000054FF0000136
:1004F00050E700BF90F0000F04BF0021704730B5F7
:100500004FF4806404F1320410F0004548BF4042CB
:100510004FF000013EE700BF42004FEAE2014FEA20
:1005200031014FEA02701FBF12F07F4393F07F4FFB
:1005300081F06051704732F07F4208BF704793F0FE
:100540007F4F04BF41F40021704730B54FF4607411
:1005500001F0004521F000411CE700BF50EA010214
:1005600008BF704730B54FF000050AE050EA0102BD
:1005700008BF704730B511F0004502D5404261EB2D
:1005800041014FF4806404F132045FEA915C3FF46E
:10059000D8AE4FF003025FEADC0C18BF03325FEA0B
:1005A000DC0C18BF033202EBDC02C2F1200300FABC
:1005B00003FC20FA02F001FA03FE40EA0E0021FAE1
:1005C00002F11444BDE600BF70B54FF0FF0C4CF4CF
:1005D000E06C1CEA11541DBF1CEA135594EA0C0F81
:1005E00095EA0C0F00F0DEF82C4481EA030621EABC
:1005F0004C5123EA4C5350EA013518BF52EA0335F7
:1006000041F4801143F4801338D0A0FB02CE4FF0A8
:100610000005E1FB02E506F00042E0FB03E54FF0D8
:100620000006E1FB03569CF0000F18BF4EF0010ED0
:10063000A4F1FF04B6F5007F64F5407404D25FEACC
:100640004E0E6D4146EB060642EAC62141EA55517F
:100650004FEAC52040EA5E504FEACE2EB4F1FD0CC1
:1006600088BFBCF5E06F1ED8BEF1004F08BF5FEA3F
:10067000500E50F1000041EB045170BD06F00046F1
:1006800046EA010140EA020081EA0301B4EB5C049E
:10069000C2BFD4EB0C0541EA045170BD41F4801196
:1006A0004FF0000E013C00F3AB8014F1360FDEBFBB
:1006B000002001F0004170BDC4F10004203C35DA97
:1006C0000C341BDC04F11404C4F1200500FA05F31A
:1006D00020FA04F001FA05F240EA020001F00042BB
:1006E00021F0004110EBD37021FA04F642EB060131
:1006F0005EEA430E08BF20EAD37070BDC4F10C045B
:10070000C4F1200500FA04F320FA05F001FA04F21E
:1007100040EA020001F0004110EBD37041F100010A
:100720005EEA430E08BF20EAD37070BDC4F1200515
:1007300000FA05F24EEA020E20FA04F301FA05F27D
:1007400043EA020321FA04F001F0004121FA04F225
:1007500020EA020000EBD3705EEA430E08BF20EAF5
:10076000D37070BD94F0000F0FD101F0004640002F
:1007700041EB010111F4801F08BF013CF7D041EAB1
:10078000060195F0000F18BF704703F000465200B5
:1007900043EB030313F4801F08BF013DF7D043EA86
:1007A0000603704794EA0C0F0CEA135518BF95EA3C
:1007B0000C0F0CD050EA410618BF52EA4306D1D1C3
:1007C00081EA030101F000414FF0000070BD50EAE2
:1007D000410606BF1046194652EA430619D094EA6C
:1007E0000C0F02D150EA013613D195EA0C0F05D156
:1007F00052EA03361CBF104619460AD181EA0301AA
:1008000001F0004141F0FE4141F470014FF0000061
:1008100070BD41F0FE4141F4780170BD70B54FF0FC
:10082000FF0C4CF4E06C1CEA11541DBF1CEA13557C
:1008300094EA0C0F95EA0C0F00F0A7F8A4EB05045E
:1008400081EA030E52EA03354FEA013100F0888055
:100850004FEA03334FF0805545EA131343EA12631E
:100860004FEA022245EA111545EA10654FEA0026D3
:100870000EF000419D4208BF964244F1FD0404F58C
:10088000407402D25B084FEA3202B61A65EB0305E8
:100890005B084FEA32024FF480104FF4002CB6EBA5
:1008A000020E75EB030E22BFB61A754640EA0C0025
:1008B0005B084FEA3202B6EB020E75EB030E22BF65
:1008C000B61A754640EA5C005B084FEA3202B6EBA6
:1008D000020E75EB030E22BFB61A754640EA9C0065
:1008E0005B084FEA3202B6EB020E75EB030E22BF35
:1008F000B61A754640EADC0055EA060E18D04FEAF3
:10090000051545EA16754FEA06164FEAC30343EA92
:1009100052734FEAC2025FEA1C1CC0D111F4801F5F
:100920000BD141EA00014FF000004FF0004CB6E758
:1009300011F4801F04BF01430020B4F1FD0C88BFF7
:10094000BCF5E06F3FF6AFAEB5EB030C04BFB6EB02
:10095000020C5FEA500C50F1000041EB045170BDF5
:100960000EF0004E4EEA113114EB5C04C2BFD4EB22
:100970000C0541EA045170BD41F480114FF0000EA6
:10098000013C90E645EA060E8DE60CEA135594EA22
:100990000C0F08BF95EA0C0F3FF43BAF94EA0C0F25
:1009A0000AD150EA01347FF434AF95EA0C0F7FF49A
:1009B00025AF104619462CE795EA0C0F06D152EAEE
:1009C00003353FF4FDAE1046194622E750EA4106D2
:1009D00018BF52EA43067FF4C5AE50EA41047FF4E3
:1009E0000DAF52EA43057FF4EBAE12E753B94AB9B3
:1009F000002908BF00281CBF4FF0FF314FF0FF3027
:100A000000F00CB8ADF1080C6DE904CE07F0C6F9A2
:100A1000DDF804E0DDE9022304B07047704700BF51
:100A20000348044B834202D0034B03B1184770477D
:100A30006000002060000020000000000548064B18
:100A40001B1AD90F01EBA301491002D0034B03B1CC
:100A50001847704760000020600000200000000080
:100A600010B5064C237843B9FFF7DAFF044B13B1F6
:100A70000448AFF300800123237010BD6000002004
:100A8000000000005880000808B5054B1BB105495F
:100A90000548AFF30080BDE80840FFF7CFBF00BFB7
:100AA00000000000640000205880000880B5B2B04B
:100AB00002AF02F011FD00F039F800F011F900F07A
:100AC000A5F800F0E3F8174800F094FA07F1600386
:100AD0001946144800F0F4FA642002F06FFDD7E9DB
:100AE0001A23C7E92E23D7E91C23C7E92C23D7E90A
:100AF0001E23C7E92A233846D7E92A23CDE9002354
:100B0000094A402106F090FCC7F8A4003B46D7F8FC
:100B1000A410184605F012F84FF47A7002F04EFD5A
:100B200000BFD3E77C0000207880000880B594B037
:100B300000AF07F1200330220021184606F0A8FC80
:100B400007F10C0300221A605A609A60DA601A6199
:100B50000023BB602B4B1B6C2A4A43F08053136469
:100B6000284B1B6C03F08053BB60BB6800237B6089
:100B7000254B1B68244A43F440431360224B1B68F7
:100B800003F440437B607B6802233B620123FB62EA
:100B900010233B630223BB630023FB6308233B64F6
:100BA000B4237B640223BB640423FB6407F12003AA
:100BB000184601F03DFD0346002B01D000F0F0F88F
:100BC00002F054FB0346002B01D000F0E9F80F239C
:100BD000FB6002233B6100237B614FF4A053BB61A8
:100BE0004FF48053FB6107F10C030521184601F017
:100BF00097FF0346002B01D000F0D2F800BF50371A
:100C0000BD4680BD003802400070004080B500AF96
:100C10001B4B1C4A1A601A4B1B4A5A60184B002285
:100C20009A60174B0022DA60154B4FF440421A616C
:100C3000134B00225A61124B00229A61104B002282
:100C4000DA610F4B00221A620D4800F023FB0346C5
:100C5000002B01D000F0A4F80021094801F06CFC41
:100C60000346002B01D000F09BF80021044801F05E
:100C70009FFC0346002B01D000F092F800BF80BD1E
:100C80007C00002000540040A086010080B500AF29
:100C9000114B124A1A60104B4FF4E1325A600E4B5E
:100CA00000229A600C4B0022DA600B4B00221A6182
:100CB000094B0C225A61084B00229A61064B002214
:100CC000DA61054802F0B0FC0346002B01D000F0C9
:100CD00067F800BF80BD00BFD000002000100140B9
:100CE00080B58AB000AF07F1140300221A605A6081
:100CF0009A60DA601A6100233B61274B1B6B264A1E
:100D000043F004031363244B1B6B03F004033B61A8
:100D10003B690023FB60204B1B6B1F4A43F0010320
:100D200013631D4B1B6B03F00103FB60FB68002387
:100D3000BB60194B1B6B184A43F002031363164B3D
:100D40001B6B03F00203BB60BB6800237B60124B8C
:100D50001B6B114A43F0400313630F4B1B6B03F0F3
:100D600040037B607B6800224FF4C0410B4802F0D7
:100D700063FA4FF4C0437B610123BB610023FB6135
:100D800000233B6207F114031946044802F0A8F857
:100D900000BF2837BD4680BD003802400018024021
:100DA00080B400AF72B600BF00BFFDE780B400AFF3
:100DB00000BFFDE780B400AF00BFFDE780B400AF27
:100DC00000BFFDE780B400AF00BFFDE780B400AF17
:100DD00000BFFDE780B400AF00BFBD465DF8047BF7
:100DE000704780B400AF00BFBD465DF8047B70471C
:100DF00080B400AF00BFBD465DF8047B704780B58E
:100E000000AF02F0BBFB00BF80BD000080B500AFAB
:100E1000024802F0CDFE00BF80BD00BFF8030020F5
:100E200080B483B000AF00237B60104B5B6C0F4A33
:100E300043F4804353640D4B5B6C03F480437B604D
:100E40007B6800233B60094B1B6C084A43F08053CE
:100E50001364064B1B6C03F080533B603B6800BF80
:100E60000C37BD465DF8047B704700BF0038024078
:100E700080B58AB000AF786007F1140300221A60D1
:100E80005A609A60DA601A617B681B68194A93425B
:100E90002CD100233B61184B1B6B174A43F0020314
:100EA0001363154B1B6B03F002033B613B694FF46B
:100EB00010737B611223BB610023FB6103233B6240
:100EC00004237B6207F1140319460C4802F008F86A
:100ED0000023FB60084B1B6C074A43F400131364A8
:100EE000054B1B6C03F40013FB60FB6800BF283745
:100EF000BD4680BD0054004000380240000402405E
:100F000080B58AB000AF786007F1140300221A6040
:100F10005A609A60DA601A617B681B68284A9342BB
:100F20004AD100233B61274B5B6C264A43F01003F8
:100F30005364244B5B6C03F010033B613B6900235B
:100F4000FB60204B1B6B1F4A43F0010313631D4BD7
:100F50001B6B03F00103FB60FB680023BB60194BB4
:100F60001B6B184A43F002031363164B1B6B03F011
:100F70000203BB60BB684FF400737B610223BB615B
:100F80000023FB6103233B6207237B6207F1140309
:100F900019460D4801F0A4FF80237B610223BB6149
:100FA0000023FB6103233B6207237B6207F11403E9
:100FB0001946064801F094FF00BF2837BD4680BDA2
:100FC00000100140003802400000024000040240CE
:100FD00080B584B000AF78604FF47A730622D021D8
:100FE000786800F0C7FD0346FB73FB7B184610379B
:100FF000BD4680BD80B588B004AF78607868FFF7E3
:10100000E7FF0346FB73FB7B002B0CD164230293A9
:101010000123019307F10B03009301237522D021D3
:10102000786800F075FBFB7A682B42D10023BB7215
:10103000642302930123019307F10A030093012320
:101040006B22D021786800F069FA0346BB7307234E
:10105000BB72BB7A1A46642302930123019307F102
:101060000A0300930123D021786800F057FA08237F
:10107000BB72642302930123019307F10A030093D7
:1010800001231B22D021786800F048FA03467B73C5
:101090000823BB72642302930123019307F10A031F
:1010A000009301231C22D021786800F037FA034610
:1010B0003B7300BF1037BD4680BD0000000000003C
:1010C00080B58AB004AF7860396064230293062348
:1010D000019307F11003009301233B22D02178688C
:1010E00000F016FB0346FB753B7C1BB21B021AB2D9
:1010F0007B7C1BB213431AB23B681A80BB7C1BB2C9
:101100001B021AB2FB7C1BB213431AB23B685A8013
:101110003B7D1BB21B021AB27B7D1BB213431AB27A
:101120003B689A803B68B3F900301846FFF7E2F954
:1011300053A3D3E90023FFF747FA02460B461046B4
:1011400019464FF00002524BFFF768FB02460B4670
:101150003968C1E902233B68B3F902301846FFF74A
:10116000C9F947A3D3E90023FFF72EFA02460B463D
:10117000104619464FF00002454BFFF74FFB024661
:101180000B463968C1E904233B68B3F904301846BB
:10119000FFF7B0F93AA3D3E90023FFF715FA0246A7
:1011A0000B46104619464FF00002394BFFF736FB4D
:1011B00002460B463968C1E90623642302930623DD
:1011C000019307F10803009301234322D02178689B
:1011D00000F09EFA0346FB753B7A1BB21B021AB263
:1011E0007B7A1BB213431AB23B681A84BB7A1BB2D8
:1011F0001B021AB2FB7A1BB213431AB23B685A8421
:101200003B7B1BB21B021AB27B7B1BB213431AB28D
:101210003B689A843B68B3F920301846FFF76AF9B7
:1012200019A3D3E90023FFF7F9FA02460B46396800
:10123000C1E90A233B68B3F922301846FFF75AF98F
:1012400011A3D3E90023FFF7E9FA02460B463968F8
:10125000C1E90C233B68B3F924301846FFF74AF97B
:1012600009A3D3E90023FFF7D9FA02460B463968F0
:10127000C1E90E2300BF1837BD4680BDAFF3008023
:101280001F85EB51B89E23400000000000605040D5
:101290000000C04080B584B000AF78607B68002B50
:1012A00001D101232BE17B6893F83D30DBB2002BA9
:1012B00006D17B68002283F83C207868FFF7D8FDD0
:1012C0007B68242283F83D207B681B681A687B6852
:1012D0001B6822F001021A607B681B681A687B6831
:1012E0001B6842F400421A607B681B681A687B68BE
:1012F0001B6822F400421A6001F0CAFDF8607B68A6
:101300005B68814A934207D8FB68804A934294BF46
:1013100001230023DBB206E0FB687D4A934294BFC1
:1013200001230023DBB2002B01D00123E7E0FB689F
:10133000784AA2FB03239B0CBB607B681B685B683D
:1013400023F03F017B681B68BA680A435A607B68D8
:101350001B681B6A23F03F017B685B686A4A934203
:1013600002D8BB68013309E0BB684FF4967202FBF8
:1013700003F3694AA2FB03239B0901337A681268CD
:101380000B4313627B681B68DB6923F44F4222F036
:10139000FF027B685B685C498B4219D8FB68591E69
:1013A0007B685B685B00B1FBF3F3591C40F6FC7390
:1013B0000B40002B0AD0FB68591E7B685B685B0002
:1013C000B1FBF3F30133C3F30B0351E004234FE00C
:1013D0007B689B68002B11D1FB68581E7B6859689D
:1013E0000B465B000B44B0FBF3F30133C3F30B0379
:1013F000002B0CBF01230023DBB212E0FB68581E58
:101400007B6859680B469B000B4499000B44B0FB6A
:10141000F3F30133C3F30B03002B0CBF01230023B1
:10142000DBB2002B01D0012322E07B689B68002BFC
:101430000ED1FB68581E7B6859680B465B000B4455
:10144000B0FBF3F30133C3F30B0343F400430FE0AA
:10145000FB68581E7B6859680B469B000B4499003B
:101460000B44B0FBF3F30133C3F30B0343F44043EA
:10147000796809681343CB617B681B681B6823F09C
:10148000C0017B68DA697B681B6A1A437B681B684A
:101490000A431A607B681B689B6823F4034323F0AC
:1014A000FF037A6811697A68D26811437A68126812
:1014B0000B4393607B681B68DB6823F0FF017B684C
:1014C0005A697B689B691A437B681B680A43DA6028
:1014D0007B681B681A687B681B6842F001021A600F
:1014E0007B6800221A647B68202283F83D207B6899
:1014F00000221A637B68002283F83E2000231846EE
:101500001037BD4680BD00BFA08601007F841E004D
:10151000FF083D0083DE1B43D34D621080B588B0C9
:1015200002AFF860084611461A4603467B810B4617
:101530003B811346FB8002F035F87861FB6893F835
:101540003D30DBB2202B40F0D9807B69009319231A
:1015500001226D49F86800F0B9FD0346002B01D067
:101560000223CCE0FB6893F83C30012B01D102232D
:10157000C5E0FB68012283F83C20FB681B681B6800
:1015800003F00103012B07D0FB681B681A68FB6896
:101590001B6842F001021A60FB681B681A68FB684E
:1015A0001B6822F400621A60FB68212283F83D2048
:1015B000FB68402283F83E20FB6800221A64FB6827
:1015C0003A6A5A62FB68BA8C5A85FB685B8D9AB29C
:1015D000FB681A85FB684D4ADA62F8883A8979898E
:1015E0007B690193BB6A00930346F86800F0F0FB47
:1015F0000346002B52D0012381E07A69B96AF8686A
:1016000000F07EFE0346002B0DD0FB681B6C042B04
:1016100007D1FB681B681A68FB681B6842F40072FC
:101620001A6001236BE0FB685B6A1A78FB681B6831
:101630001A61FB685B6A5A1CFB685A62FB681B8D67
:10164000013B9AB2FB681A85FB685B8D9BB2013B3C
:101650009AB2FB685A85FB681B685B6903F0040358
:10166000042B1BD1FB681B8D002B17D0FB685B6A1A
:101670001A78FB681B681A61FB685B6A5A1CFB6876
:101680005A62FB681B8D013B9AB2FB681A85FB68A6
:101690005B8D9BB2013B9AB2FB685A85FB681B8D40
:1016A000002BAAD17A69B96AF86800F071FE034686
:1016B000002B0DD0FB681B6C042B07D1FB681B684B
:1016C0001A68FB681B6842F400721A60012316E076
:1016D000FB681B681A68FB681B6842F400721A609A
:1016E000FB68202283F83D20FB68002283F83E201F
:1016F000FB68002283F83C20002300E00223184608
:101700001837BD4680BD00BF020010000000FFFF7B
:1017100080B58CB002AFF860084611461A46034601
:101720007B810B463B811346FB8001F03BFF7862D7
:10173000FB6893F83D30DBB2202B40F014827B6ACB
:101740000093192301227B49F86800F0BFFC03468F
:10175000002B01D0022307E2FB6893F83C30012BF9
:1017600001D1022300E2FB68012283F83C20FB68E0
:101770001B681B6803F00103012B07D0FB681B6883
:101780001A68FB681B6842F001021A60FB681B685C
:101790001A68FB681B6822F400621A60FB68222248
:1017A00083F83D20FB68402283F83E20FB6800223E
:1017B0001A64FB683A6B5A62FB68BA8E5A85FB68FA
:1017C0005B8D9AB2FB681A85FB685B4ADA62F8881F
:1017D0003A8979897B6A0193BB6B00930346F86869
:1017E00000F08CFB0346002B01D00123BCE1FB6819
:1017F0001B8D002B13D100233B62FB681B685B69C8
:101800003B62FB681B689B693B623B6AFB681B6829
:101810001A68FB681B6842F400721A6090E1FB686A
:101820001B8D012B1BD1FB681B681A68FB681B68AA
:1018300022F480621A600023FB61FB681B685B690D
:10184000FB61FB681B689B69FB61FB69FB681B68AC
:101850001A68FB681B6842F400721A6070E1FB684A
:101860001B8D022B1BD1FB681B681A68FB681B6869
:1018700022F480621A60FB681B681A68FB681B68A8
:1018800042F400621A600023BB61FB681B685B695D
:10189000BB61FB681B689B69BB61BB6950E10023AE
:1018A0007B61FB681B685B697B61FB681B689B69EC
:1018B0007B617B6944E1FB681B8D032B00F2F180A7
:1018C000FB681B8D012B23D17A6AB96BF86800F095
:1018D000A7FD0346002B01D0012345E1FB681B68EF
:1018E0001A69FB685B6AD2B21A70FB685B6A5A1CA1
:1018F000FB685A62FB681B8D013B9AB2FB681A8534
:10190000FB685B8D9BB2013B9AB2FB685A8517E17D
:10191000FB681B8D022B4ED17B6A0093BB6B0022B0
:101920000649F86800F0D2FB0346002B08D00123DB
:101930001AE100BF020010000000FFFF04000100D8
:10194000FB681B681A68FB681B6842F400721A6027
:10195000FB681B681A69FB685B6AD2B21A70FB6885
:101960005B6A5A1CFB685A62FB681B8D013B9AB28A
:10197000FB681A85FB685B8D9BB2013B9AB2FB68E2
:101980005A85FB681B681A69FB685B6AD2B21A70D9
:10199000FB685B6A5A1CFB685A62FB681B8D013B43
:1019A0009AB2FB681A85FB685B8D9BB2013B9AB2C9
:1019B000FB685A85C4E07B6A0093BB6B00226C49CC
:1019C000F86800F083FB0346002B01D00123CBE035
:1019D000FB681B681A68FB681B6822F480621A6047
:1019E000FB681B681A69FB685B6AD2B21A70FB68F5
:1019F0005B6A5A1CFB685A62FB681B8D013B9AB2FA
:101A0000FB681A85FB685B8D9BB2013B9AB2FB6851
:101A10005A857B6A0093BB6B00225549F86800F039
:101A200055FB0346002B01D001239DE0FB681B689A
:101A30001A68FB681B6842F400721A60FB681B6836
:101A40001A69FB685B6AD2B21A70FB685B6A5A1C3F
:101A5000FB685A62FB681B8D013B9AB2FB681A85D2
:101A6000FB685B8D9BB2013B9AB2FB685A85FB68B1
:101A70001B681A69FB685B6AD2B21A70FB685B6A02
:101A80005A1CFB685A62FB681B8D013B9AB2FB68CB
:101A90001A85FB685B8D9BB2013B9AB2FB685A8545
:101AA0004EE07A6AB96BF86800F0BAFC0346002B86
:101AB00001D0012358E0FB681B681A69FB685B6A68
:101AC000D2B21A70FB685B6A5A1CFB685A62FB68E8
:101AD0001B8D013B9AB2FB681A85FB685B8D9BB23C
:101AE000013B9AB2FB685A85FB681B685B6903F08F
:101AF0000403042B24D1FB681B8D032B07D1FB6847
:101B00001B681A68FB681B6822F480621A60FB6815
:101B10001B681A69FB685B6AD2B21A70FB685B6A61
:101B20005A1CFB685A62FB681B8D013B9AB2FB682A
:101B30001A85FB685B8D9BB2013B9AB2FB685A85A4
:101B4000FB681B8D002B7FF4B6AEFB68202283F868
:101B50003D20FB68002283F83E20FB68002283F8CA
:101B60003C20002300E0022318462837BD4680BDF4
:101B70000400010080B58AB002AFF8607A603B6073
:101B80000B467B8101F00EFDF8610023BB61FB6811
:101B900093F83D30DBB2202B40F01181FB690093BC
:101BA000192301228849F86800F090FA0346002BB7
:101BB00001D0022304E1FB6893F83C30012B01D1F2
:101BC0000223FDE0FB68012283F83C20FB681B68D0
:101BD0001B6803F00103012B07D0FB681B681A6820
:101BE000FB681B6842F001021A60FB681B681A68F8
:101BF000FB681B6822F400621A60FB68242283F8E9
:101C00003D20FB6800221A64FB68704ADA62FB68B8
:101C10001B681A68FB681B6842F480721A60FB69D3
:101C200000933B6800224FF00111F86800F04EFA73
:101C30000346002B0DD0FB681B681B6803F4807300
:101C4000B3F5807F03D1FB684FF400721A6403235D
:101C5000B6E07B89DBB21A46FB681B6802F0FE0225
:101C60001A6101F09FFCF861FB681B685B6903F077
:101C70000203022B0CBF01230023DBB2FB75FB68C0
:101C80001B685B6903F48063B3F5806F0CBF0123AD
:101C90000023DBB2BB7525E001F084FC0246FB6942
:101CA000D31A3A689A4202D33B68002B03D1FB68EF
:101CB000A02283F83D20FB681B685B6903F00203E8
:101CC000022B0CBF01230023DBB2FB75FB681B68F2
:101CD0005B6903F48063B3F5806F0CBF01230023BD
:101CE000DBB2BB75FB6893F83D30DBB2A02B05D0AF
:101CF000FB7D002B02D1BB7D002BCDD0FB682022C9
:101D000083F83D20FB681B685B6903F00203022B2C
:101D100029D1FB681B681A68FB681B6842F40072D3
:101D20001A6000233B61FB681B685B693B61FB68D1
:101D30001B689B693B613B69FB6900931923012286
:101D40002149F86800F0C2F90346002B01D00123B5
:101D500036E0FB68202283F83D20FB68002283F8F0
:101D60003C2000232CE0FB681B681A68FB681B689A
:101D700042F400721A60FB681B686FF480625A615B
:101D8000FB690093192301220F49F86800F09EF9BE
:101D90000346002B01D0012312E0BB690133BB6174
:101DA000BA697B689A42FFF432AFFB68202283F85D
:101DB0003D20FB68002283F83C20012300E0022341
:101DC00018462037BD4680BD020010000000FFFF0E
:101DD00080B588B002AFF860084611461A4603463F
:101DE0007B810B463B811346FB80FB681B681A68AE
:101DF000FB681B6842F480721A607B6A00933B6A3E
:101E000000224FF00111F86800F060F90346002B42
:101E10000DD0FB681B681B6803F48073B3F5807FEB
:101E200003D1FB684FF400721A6403235FE07B89DF
:101E3000DBB21A46FB681B6802F0FE021A617B6A7D
:101E40003A6A2D49F86800F0BBF90346002B01D02F
:101E500001234CE000237B61FB681B685B697B61AD
:101E6000FB681B689B697B617B697A6A396AF868E1
:101E700000F046FA0346002B0DD0FB681B6C042BC8
:101E800007D1FB681B681A68FB681B6842F4007284
:101E90001A6001232BE0FB88012B05D13B89DAB2C4
:101EA000FB681B681A6121E03B891B0A9BB2DAB20E
:101EB000FB681B681A617A6A396AF86800F020FAD0
:101EC0000346002B0DD0FB681B6C042B07D1FB686D
:101ED0001B681A68FB681B6842F400721A600123D1
:101EE00005E03B89DAB2FB681B681A6100231846DB
:101EF0001837BD4680BD00BF0200010080B588B024
:101F000002AFF860084611461A4603467B810B462D
:101F10003B811346FB80FB681B681A68FB681B68E3
:101F200042F480621A60FB681B681A68FB681B68D1
:101F300042F480721A607B6A00933B6A00224FF081
:101F40000111F86800F0C2F80346002B0DD0FB68C1
:101F50001B681B6803F48073B3F5807F03D1FB68B3
:101F60004FF400721A640323AAE07B89DBB21A469D
:101F7000FB681B6802F0FE021A617B6A3A6A5249EA
:101F8000F86800F01DF90346002B01D0012397E00B
:101F900000237B61FB681B685B697B61FB681B68D6
:101FA0009B697B617B697A6A396AF86800F0A8F9F5
:101FB0000346002B0DD0FB681B6C042B07D1FB687C
:101FC0001B681A68FB681B6842F400721A600123E0
:101FD00076E0FB88012B05D13B89DAB2FB681B68F0
:101FE0001A6121E03B891B0A9BB2DAB2FB681B68CD
:101FF0001A617A6A396AF86800F082F90346002BA0
:102000000DD0FB681B6C042B07D1FB681B681A689A
:10201000FB681B6842F400721A60012350E03B89A0
:10202000DAB2FB681B681A617A6A396AF86800F0EC
:1020300067F90346002B0DD0FB681B6C042B07D1FE
:10204000FB681B681A68FB681B6842F400721A6020
:10205000012335E0FB681B681A68FB681B6842F4C3
:1020600080721A607B6A00933B6A00224FF0011174
:10207000F86800F02BF80346002B0DD0FB681B68B6
:102080001B6803F48073B3F5807F03D1FB684FF4C2
:1020900000721A64032313E07B89DBB243F001036F
:1020A000DAB2FB681B681A617B6A3A6A0649F8680B
:1020B00000F086F80346002B01D0012300E0002346
:1020C00018461837BD4680BD0200010080B584B0B7
:1020D00000AFF860B9603B601346FB7148E03B68B5
:1020E000B3F1FF3F44D001F05DFA0246BB69D31A59
:1020F0003A689A4202D33B68002B39D1BB681B0C6B
:10210000DBB2012B0DD1FB681B685B69DA43BB684E
:1021100013409BB2002B0CBF01230023DBB21A46F5
:102120000CE0FB681B689B69DA43BB6813409BB2F9
:10213000002B0CBF01230023DBB21A46FB799A4225
:1021400016D1FB6800221A63FB68202283F83D2029
:10215000FB68002283F83E20FB681B6C43F02002E2
:10216000FB681A64FB68002283F83C20012323E00B
:10217000BB681B0CDBB2012B0DD1FB681B685B69D4
:10218000DA43BB6813409BB2002B0CBF0123002332
:10219000DBB21A460CE0FB681B689B69DA43BB683C
:1021A00013409BB2002B0CBF01230023DBB21A4665
:1021B000FB799A4293D0002318461037BD4680BD64
:1021C00080B584B000AFF860B9607A603B6071E0C0
:1021D000FB681B685B6903F48063B3F5806F23D1F0
:1021E000FB681B681A68FB681B6842F400721A607F
:1021F000FB681B686FF480625A61FB6800221A63F7
:10220000FB68202283F83D20FB68002283F83E20F3
:10221000FB681B6C43F00402FB681A64FB68002235
:1022200083F83C20012367E07B68B3F1FF3F41D096
:1022300001F0B8F902463B68D31A7A689A4202D391
:102240007B68002B36D1BB681B0CDBB2012B0CD199
:10225000FB681B685B69DA43BB6813409BB2002BC9
:1022600014BF01230023DBB20BE0FB681B689B69F2
:10227000DA43BB6813409BB2002B14BF0123002339
:10228000DBB2002B16D0FB6800221A63FB68202209
:1022900083F83D20FB68002283F83E20FB681B6C1E
:1022A00043F02002FB681A64FB68002283F83C209C
:1022B000012321E0BB681B0CDBB2012B0CD1FB68B6
:1022C0001B685B69DA43BB6813409BB2002B14BFE9
:1022D00001230023DBB20BE0FB681B689B69DA4338
:1022E000BB6813409BB2002B14BF01230023DBB259
:1022F000002B7FF46DAF002318461037BD4680BD1C
:1023000080B584B000AFF860B9607A6034E0F868F6
:1023100000F0E3F80346002B01D0012334E0BB6852
:10232000B3F1FF3F28D001F03DF902467B68D31A94
:10233000BA689A4202D3BB68002B1DD1FB681B68A8
:102340005B6903F08003802B16D0FB6800221A63C0
:10235000FB68202283F83D20FB68002283F83E20A2
:10236000FB681B6C43F02002FB681A64FB680022C8
:1023700083F83C20012307E0FB681B685B6903F0DE
:102380008003802BC3D1002318461037BD4680BD83
:1023900080B584B000AFF860B9607A6034E0F86866
:1023A00000F09BF80346002B01D0012334E0BB680A
:1023B000B3F1FF3F28D001F0F5F802467B68D31A4D
:1023C000BA689A4202D3BB68002B1DD1FB681B6818
:1023D0005B6903F00403042B16D0FB6800221A6328
:1023E000FB68202283F83D20FB68002283F83E2012
:1023F000FB681B6C43F02002FB681A64FB68002238
:1024000083F83C20012307E0FB681B685B6903F04D
:102410000403042BC3D1002318461037BD4680BDEA
:1024200080B584B000AFF860B9607A6049E0FB68BD
:102430001B685B6903F01003102B19D1FB681B6844
:102440006FF010025A61FB6800221A63FB682022B9
:1024500083F83D20FB68002283F83E20FB681A6C5D
:10246000FB681A64FB68002283F83C20012330E0FB
:1024700001F098F802467B68D31ABA689A4202D3F0
:10248000BB68002B1DD1FB681B685B6903F0400330
:10249000402B16D0FB6800221A63FB68202283F8C9
:1024A0003D20FB68002283F83E20FB681B6C43F054
:1024B0002002FB681A64FB68002283F83C20012399
:1024C00007E0FB681B685B6903F04003402BAED15B
:1024D000002318461037BD4680BD80B483B000AFDE
:1024E00078607B681B685B6903F48063B3F5806F79
:1024F0001BD17B681B686FF480625A617B68002285
:102500001A637B68202283F83D207B68002283F8D1
:102510003E207B681B6C43F004027B681A647B6876
:10252000002283F83C20012300E0002318460C37EA
:10253000BD465DF8047B704780B483B000AF78601F
:1025400039607B6893F83D30DBB2202B29D17B6862
:10255000242283F83D207B681B681A687B681B680F
:1025600022F001021A607B681B685A6A7B681B684C
:1025700022F010025A627B681B68596A7B681B68EC
:102580003A680A435A627B681B681A687B681B6852
:1025900042F001021A607B68202283F83D2000236C
:1025A00000E0022318460C37BD465DF8047B7047F7
:1025B00080B485B000AF786039600023FB817B6810
:1025C00093F83D30DBB2202B2AD17B68242283F89C
:1025D0003D207B681B681A687B681B6822F001023B
:1025E0001A607B681B685B6AFB81FB8923F00F0321
:1025F000FB813B689AB2FB891343FB817B681B68B4
:10260000FA895A627B681B681A687B681B6842F00B
:1026100001021A607B68202283F83D20002300E03D
:10262000022318461437BD465DF8047B704700004E
:1026300080B586B000AF78607B68002B01D10123A4
:1026400067E27B681B6803F00103002B75D0884BA1
:102650009B6803F00C03042B0CD0854B9B6803F0A4
:102660000C03082B12D1824B5B6803F48003B3F593
:10267000800F0BD17E4B1B6803F40033002B5BD023
:102680007B685B68002B57D1012342E27B685B6863
:10269000B3F5803F06D1764B1B68754A43F480330F
:1026A00013601DE07B685B68B3F5A02F0CD1704B05
:1026B0001B686F4A43F4802313606D4B1B686C4AA0
:1026C00043F4803313600BE0694B1B68684A23F4C2
:1026D00080331360664B1B68654A23F480231360C4
:1026E0007B685B68002B13D000F05CFF386108E06A
:1026F00000F058FF02463B69D31A642B01D903232B
:1027000007E25B4B1B6803F40033002BF0D014E0AE
:1027100000F048FF386108E000F044FF02463B69E2
:10272000D31A642B01D90323F3E1514B1B6803F443
:102730000033002BF0D100E000BF7B681B6803F082
:102740000203002B63D04A4B9B6803F00C03002B61
:102750000BD0474B9B6803F00C03082B1CD1444B58
:102760005B6803F48003002B16D1414B1B6803F018
:102770000203002B05D07B68DB68012B01D001230D
:10278000C7E13B4B1B6823F0F8027B681B69DB0049
:10279000374913430B603AE07B68DB68002B20D09D
:1027A000344B01221A6000F0FDFE386108E000F0B1
:1027B000F9FE02463B69D31A022B01D90323A8E193
:1027C0002B4B1B6803F00203002BF0D0284B1B6837
:1027D00023F0F8027B681B69DB00254913430B607B
:1027E00015E0244B00221A6000F0DCFE386108E09E
:1027F00000F0D8FE02463B69D31A022B01D903230D
:1028000087E11B4B1B6803F00203002BF0D17B68B0
:102810001B6803F00803002B36D07B685B69002B34
:1028200016D0154B01221A6000F0BCFE386108E09A
:1028300000F0B8FE02463B69D31A022B01D90323EC
:1028400067E10B4B5B6F03F00203002BF0D01BE042
:10285000094B00221A6000F0A5FE38610EE000F07E
:10286000A1FE02463B69D31A022B07D9032350E18C
:102870000038024000004742800E4742884B5B6FA1
:1028800003F00203002BEAD17B681B6803F004030A
:10289000002B00F097800023FB75814B1B6C03F02D
:1028A0008053002B0FD10023BB607D4B1B6C7C4AF7
:1028B00043F0805313647A4B1B6C03F08053BB606E
:1028C000BB680123FB75774B1B6803F48073002BF7
:1028D00018D1744B1B68734A43F48073136000F083
:1028E00061FE386108E000F05DFE02463B69D31AE4
:1028F000022B01D903230CE16A4B1B6803F480739C
:10290000002BF0D07B689B68012B06D1644B1B6FBA
:10291000634A43F0010313671CE07B689B68052B47
:102920000CD15F4B1B6F5E4A43F0040313675C4B93
:102930001B6F5B4A43F0010313670BE0584B1B6F9F
:10294000574A23F001031367554B1B6F544A23F07A
:10295000040313677B689B68002B15D000F022FEF0
:1029600038610AE000F01EFE02463B69D31A41F2CC
:102970008832934201D90323CBE0494B1B6F03F00C
:102980000203002BEED014E000F00CFE38610AE0E8
:1029900000F008FE02463B69D31A41F288329342A6
:1029A00001D90323B5E03E4B1B6F03F00203002B5C
:1029B000EED1FB7D012B05D1394B1B6C384A23F03E
:1029C000805313647B689B69002B00F0A180344B1B
:1029D0009B6803F00C03082B5CD07B689B69022B7F
:1029E00041D1314B00221A6000F0DCFD386108E073
:1029F00000F0D8FD02463B69D31A022B01D903230C
:102A000087E0274B1B6803F00073002BF0D17B6835
:102A1000DA697B681B6A1A437B685B6A9B011A430D
:102A20007B689B6A5B08013B1B041A437B68DB6A7B
:102A30001B061B4913434B601B4B01221A6000F01D
:102A4000B1FD386108E000F0ADFD02463B69D31AE4
:102A5000022B01D903235CE0114B1B6803F00073C8
:102A6000002BF0D054E0104B00221A6000F09AFDC9
:102A7000386108E000F096FD02463B69D31A022B4C
:102A800001D9032345E0064B1B6803F00073002BBC
:102A9000F0D13DE07B689B69012B07D1012338E031
:102AA0000038024000700040600047421B4B5B68EA
:102AB000FB607B689B69012B28D0FB6803F48002D4
:102AC0007B68DB699A4221D1FB6803F03F027B6897
:102AD0001B6A9A421AD1FA6847F6C07313407A68A3
:102AE000526A9201934211D1FB6803F440327B6831
:102AF0009B6A5B08013B1B049A4207D1FB6803F009
:102B000070627B68DB6A1B069A4201D0012300E0F9
:102B1000002318461837BD4680BD00BF003802406C
:102B200080B584B000AF786039607B68002B01D13C
:102B30000123CCE0684B1B6803F00F033A689A420C
:102B40000CD9654B3A68D2B21A70634B1B6803F01C
:102B50000F033A689A4201D00123B8E07B681B68F2
:102B600003F00203002B20D07B681B6803F00403F2
:102B7000002B05D0594B9B68584A43F4E0539360AF
:102B80007B681B6803F00803002B05D0534B9B6840
:102B9000524A43F460439360504B9B6823F0F00229
:102BA0007B689B684D4913438B607B681B6803F00F
:102BB0000103002B44D07B685B68012B07D1474B96
:102BC0001B6803F40033002B19D101237FE07B68DD
:102BD0005B68022B03D07B685B68032B07D13F4BFC
:102BE0001B6803F00073002B09D101236FE03B4BFE
:102BF0001B6803F00203002B01D1012367E0374B70
:102C00009B6823F003027B685B68344913438B6045
:102C100000F0C8FCF8600AE000F0C4FC0246FB6863
:102C2000D31A41F28832934201D903234FE02B4B50
:102C30009B6803F00C027B685B689B009A42EBD1B7
:102C4000254B1B6803F00F033A689A420CD2224BC3
:102C50003A68D2B21A70204B1B6803F00F033A682F
:102C60009A4201D0012332E07B681B6803F0040321
:102C7000002B08D0194B9B6823F4E0527B68DB687B
:102C8000164913438B607B681B6803F00803002B15
:102C900009D0124B9B6823F460427B681B69DB0000
:102CA0000E4913438B6000F021F802460B4B9B68E2
:102CB0001B0903F00F030A49CB5C22FA03F3094A0C
:102CC0001360094B1B68184600F028FC00231846C7
:102CD0001037BD4680BD00BF003C024000380240B6
:102CE0008080000808000020000000202DE9B04F7F
:102CF00090B000AF00237B630023FB6300233B63A2
:102D00000023BB63594B9B6803F00C03082B0DD0C9
:102D1000082B00F2A180002B02D0042B03D09BE0F3
:102D2000534BBB639BE0534BBB6398E04F4B5B68DB
:102D300003F03F037B634D4B5B6803F48003002B80
:102D400028D04A4B5B689B0900223B627A623B6A4F
:102D5000C3F308000021474B03FB01F2002300FBF3
:102D600003F31344434AA0FB0212FA620A46BA6212
:102D7000FA6A1344FB627B6B0022BB61FA61D7E9FC
:102D80000623D7E90A01FDF731FE02460B4613463A
:102D9000FB6353E0354B5B689B0900223B617A6122
:102DA0003B69C3F3080A4FF0000B52465B464FF0F5
:102DB00000004FF00001590141EAD2615001024682
:102DC0000B46B2EB0A0863EB0B094FF000024FF021
:102DD00000034FEA891343EA98634FEA8812B2EB83
:102DE000080463EB09054FF000024FF00003EB000D
:102DF00043EA5473E20014461D4614EB0A033B6099
:102E000045EB0B037B604FF000024FF00003D7E966
:102E1000004529468B02214643EA915321468A0206
:102E2000104619467B6B0022BB60FA60D7E902238B
:102E3000FDF7DCFD02460B461346FB630B4B5B685C
:102E40001B0C03F0030301335B003B63FA6B3B6B2A
:102E5000B2FBF3F3BB6302E0054BBB6300BFBB6B8C
:102E600018464037BD46BDE8B08F00BF003802406D
:102E70000024F40040787D0180B400AF034B1B6850
:102E80001846BD465DF8047B704700BF080000206F
:102E900080B500AFFFF7F0FF0246054B9B689B0A29
:102EA00003F007030349CB5C22FA03F3184680BD05
:102EB000003802409080000880B500AFFFF7DCFFCB
:102EC0000246054B9B685B0B03F007030349CB5C91
:102ED00022FA03F3184680BD0038024090800008B3
:102EE00080B489B000AF7860396000237B61002333
:102EF0003B610023BB610023FB6177E10122FB6999
:102F000002FA03F37B613B681B687A6913403B61FB
:102F10003A697B699A4240F066813B685B6803F0DE
:102F20000303012B05D03B685B6803F00303022B0E
:102F300030D17B689B68BB61FB695B00032202FAAE
:102F400003F3DB43BA691340BB613B68DA68FB6992
:102F50005B0002FA03F3BA691343BB617B68BA6989
:102F60009A607B685B68BB610122FB6902FA03F32C
:102F7000DB43BA691340BB613B685B681B0903F024
:102F80000102FB6902FA03F3BA691343BB617B6870
:102F9000BA695A603B685B6803F00303032B17D0E0
:102FA0007B68DB68BB61FB695B00032202FA03F309
:102FB000DB43BA691340BB613B689A68FB695B00FD
:102FC00002FA03F3BA691343BB617B68BA69DA603A
:102FD0003B685B6803F00303022B23D1FB69DA082B
:102FE0007B68083253F82230BB61FB6903F00703AA
:102FF0009B000F2202FA03F3DB43BA691340BB6163
:103000003B681A69FB6903F007039B0002FA03F3AC
:10301000BA691343BB61FB69DA087B680832B96996
:1030200043F822107B681B68BB61FB695B000322CD
:1030300002FA03F3DB43BA691340BB613B685B6888
:1030400003F00302FB695B0002FA03F3BA6913435E
:10305000BB617B68BA691A603B685B6803F4403304
:10306000002B00F0C0800023FB60664B5B6C654A60
:1030700043F480435364634B5B6C03F48043FB6015
:10308000FB68614AFB699B08023352F82330BB613D
:10309000FB6903F003039B000F2202FA03F3DB43F7
:1030A000BA691340BB617B68584A934237D07B684A
:1030B000574A934231D07B68564A93422BD07B6863
:1030C000554A934225D07B68544A93421FD07B686F
:1030D000534A934219D07B68524A934213D07B687B
:1030E000514A93420DD07B68504A934207D07B6887
:1030F0004F4A934201D1092312E00A2310E008232A
:103100000EE007230CE006230AE0052308E0042371
:1031100006E0032304E0022302E0012300E0002391
:10312000FA6902F0030292009340BA691343BB614B
:103130003549FB699B080233BA6941F823203D4BAE
:103140009B68BB613B69DB43BA691340BB613B6869
:103150005B6803F48013002B03D0BA693B69134307
:10316000BB61344ABB699360324BDB68BB613B692E
:10317000DB43BA691340BB613B685B6803F400132F
:10318000002B03D0BA693B691343BB61294ABB6971
:10319000D360284B5B68BB613B69DB43BA69134072
:1031A000BB613B685B6803F40033002B03D0BA6952
:1031B0003B691343BB611F4ABB6953601D4B1B68CE
:1031C000BB613B69DB43BA691340BB613B685B6829
:1031D00003F48033002B03D0BA693B691343BB610E
:1031E000144ABB691360FB690133FB61FB690F2B58
:1031F0007FF684AE00BF00BF2437BD465DF8047B78
:10320000704700BF00380240003801400000024013
:103210000004024000080240000C0240001002407E
:103220000014024000180240001C0240002002402E
:1032300000240240003C014080B483B000AF7860BD
:103240000B467B8013467B707B78002B03D07A88FB
:103250007B689A6103E07B881A047B689A6100BFEF
:103260000C37BD465DF8047B7047000080B582B026
:1032700000AF00237B6000233B60204B1B6C1F4A88
:1032800043F0805313641D4B1B6C03F080533B6071
:103290003B681B4B01221A6000F084F9786009E05A
:1032A00000F080F902467B68D31AB3F57A7F01D922
:1032B00003231FE0134B5B6803F48033B3F5803FB7
:1032C000EED1114B01221A6000F06CF9786009E030
:1032D00000F068F902467B68D31AB3F57A7F01D90A
:1032E000032307E0074B5B6803F40033B3F5003FAB
:1032F000EED1002318460837BD4680BD0038024095
:1033000040000E420070004044000E4280B485B080
:1033100000AF78607B6803F00703FB600C4BDB6851
:10332000BB60BA684FF6FF031340BB60FB681A022C
:10333000BB68134343F0BF6343F40033BB60044AEC
:10334000BB68D36000BF1437BD465DF8047B70478F
:1033500000ED00E080B400AF044BDB681B0A03F013
:1033600007031846BD465DF8047B704700ED00E09A
:1033700080B483B000AF03463960FB7197F9073022
:10338000002B0ADB3B68DAB20C4997F907301201CF
:10339000D2B20B4483F800230AE03B68DAB2084952
:1033A000FB7903F00F03043B1201D2B20B441A76EF
:1033B00000BF0C37BD465DF8047B704700E100E0BC
:1033C00000ED00E080B489B000AFF860B9607A60C9
:1033D000FB6803F00703FB61FB69C3F10703042BE0
:1033E00028BF0423BB61FB690433062B02D9FB69A8
:1033F000033B00E000237B614FF0FF32BB6902FA20
:1034000003F3DA43BB681A407B699A404FF0FF31FF
:103410007B6901FA03F3D9437B680B4013431846D9
:103420002437BD465DF8047B7047000080B582B04C
:1034300000AF78607B68013BB3F1807F01D301234B
:103440000FE00A4A7B68013B53600F214FF0FF30C9
:10345000FFF78EFF054B00229A60044B07221A608B
:10346000002318460837BD4680BD00BF10E000E0CD
:1034700080B582B000AF78607868FFF747FF00BF83
:103480000837BD4680BD80B586B000AF0346B96041
:103490007A60FB7300237B61FFF75CFF78617A68D9
:1034A000B9687869FFF78EFF024697F90F30114629
:1034B0001846FFF75DFF00BF1837BD4680BD80B5D9
:1034C00082B000AF78607868FFF7B0FF0346184617
:1034D0000837BD4680BD000080B500AF0E4B1B68AD
:1034E0000D4A43F4007313600B4B1B680A4A43F404
:1034F00080631360084B1B68074A43F480731360B2
:103500000320FFF7B5FF0F2000F008F8FDF788FC57
:103510000023184680BD00BF003C024080B582B049
:1035200000AF7860124B1A68124B1B7819464FF4A3
:103530007A73B3FBF1F3B2FBF3F31846FFF7BFFF67
:103540000346002B01D001230EE07B680F2B0AD825
:10355000002279684FF0FF30FFF795FF064A7B683D
:103560001360002300E0012318460837BD4680BDE4
:1035700008000020040000200000002080B400AFFC
:10358000064B1B781A46064B1B681344044A13600B
:1035900000BFBD465DF8047B704700BF04000020FB
:1035A0001801002080B400AF034B1B681846BD46CD
:1035B0005DF8047B704700BF1801002080B584B01F
:1035C00000AF7860FFF7EEFFB8607B68FB60FB68D8
:1035D000B3F1FF3F05D00A4B1B781A46FB68134432
:1035E000FB6000BFFFF7DEFF0246BB68D31AFA6834
:1035F0009A42F7D800BF00BF1037BD4680BD00BF5C
:103600000400002080B400AF064BD3F88830054A90
:1036100043F47003C2F8883000BFBD465DF8047BF8
:10362000704700BF00ED00E080B582B000AF786069
:103630007B68002B01D1012342E07B6893F8413085
:10364000DBB2002B06D17B68002283F8402078682B
:10365000FDF756FC7B68242283F841207B681B68B9
:10366000DA687B681B6822F40052DA60786800F040
:103670002BF87B681B681A697B681B6822F49042F0
:103680001A617B681B685A697B681B6822F02A02F2
:103690005A617B681B68DA687B681B6842F40052D9
:1036A000DA607B6800225A647B68202283F841201C
:1036B0007B68202283F842207B6800225A63002323
:1036C00018460837BD4680BD2DE9B04FC0B000AFE9
:1036D000C7F8F400D7F8F4301B681B6923F4405096
:1036E000D7F8F430D968D7F8F4301A6840EA010303
:1036F0001361D7F8F4309A68D7F8F4301B691A438D
:10370000D7F8F4305B691A43D7F8F430DB69134318
:10371000C7F8F830D7F8F4301B68DB6823F416419B
:1037200021F00C01D7F8F4301A68D7F8F8300B43C1
:10373000D360D7F8F4301B685B6923F44070D7F886
:10374000F4309969D7F8F4301A6840EA01035361FC
:10375000D7F8F4301A688F4B9A4205D0D7F8F43076
:103760001A688D4B9A4204D1FFF7A6FBC7F8FC00FC
:1037700003E0FFF78DFBC7F8FC00D7F8F430DB69F6
:10378000B3F5004F40F00C81D7F8FC300022C7F8A9
:10379000E830C7F8EC20D7E93A4522462B46911885
:1037A000B9655B41FB65D7E91623214612EB010899
:1037B000294643EB01094FF000024FF000034FEAA6
:1037C000C90343EA58734FEAC80290469946234614
:1037D00018EB0303C7F8E0302B4649EB0303C7F8A7
:1037E000E430D7F8F4305B680022C7F8D830C7F867
:1037F000DC20D7E936120B46DB183B65134642EB5B
:1038000003037B65D7E91423D7E93801FDF7EEF808
:1038100002460B46614BA3FB02235B091C01D7F850
:10382000FC300022C7F8D030C7F8D420D7E934895B
:1038300042464B469118B9645B41FB64D7E91223B9
:10384000414612EB010A494643EB010B4FF00002DF
:103850004FF000034FEACB0343EA5A734FEACA0220
:1038600092469B4643461AEB0303C7F8C8304B46C3
:103870004BEB0303C7F8CC30D7F8F4305B68002279
:10388000C7F8C030C7F8C420D7E930120B46DB18A0
:103890003B64134642EB03037B64D7E91023D7E96B
:1038A0003201FDF7A3F802460B4611463B4BA3FB42
:1038B00001235B09642202FB03F3CB1ADB0003F153
:1038C0003202364BA3FB02235B095B0003F4F8735F
:1038D0001C44D7F8FC300022C7F8B830C7F8BC2029
:1038E000D7E92E8942464B469118B9635B41FB6389
:1038F000D7E90E2341465118396349464B417B6352
:103900004FF000024FF00003D7E90CAB5946CB0053
:10391000514643EA51735146CA00104619460346C0
:1039200042469B18C7F8B0304B460A4642EB0303A9
:10393000C7F8B430D7F8F4305B680022C7F8A83075
:10394000C7F8AC20D7E92A120B46DB18BB62134636
:1039500042EB0303FB62D7E90A23D7E92C01FDF709
:1039600045F802460B460D4BA3FB02135B0964218D
:1039700001FB03F3D31ADB003233084AA2FB032313
:103980005B0903F00702D7F8F4301B6822449A6001
:1039900006E100BF00100140001401401F85EB51FB
:1039A000D7F8FC300022C7F8A030C7F8A420D7E928
:1039B000288942464B46911839625B417B62D7E9C0
:1039C000082341465418494643EB01054FF00002D5
:1039D0004FF00003EB0043EA5473E20014461D4627
:1039E0004346E318C7F898304B4645EB0303C7F846
:1039F0009C30D7F8F4305B680022C7F89030C7F8E5
:103A000094204FF000024FF00003D7E924452946E7
:103A10008B00214643EA917321468A00D7E92601AB
:103A2000FCF7E4FF02460B46604BA3FB02235B0955
:103A30001C01D7F8FC300022C7F88830C7F88C206A
:103A4000D7E9228942464B469118B9615B41FB6137
:103A5000D7E9062341465118396149464B417B61FC
:103A60004FF000024FF00003D7E904AB5946CB00FA
:103A7000514643EA51735146CA001046194603465F
:103A800042469B18C7F880304B460A4642EB030378
:103A9000C7F88430D7F8F4305B680022BB67FA6758
:103AA0004FF000024FF00003D7E91E8949468B0012
:103AB000414643EA917341468A00D7E92001FCF769
:103AC00095FF02460B461146384BA3FB01235B09C9
:103AD000642202FB03F3CB1A1B013233334AA2FBED
:103AE00003235B0903F0F0031C44D7F8FC300022E9
:103AF0003B677A67D7E91C8942464B469118B96003
:103B00005B41FB60D7E902234146511839604946C1
:103B10004B417B604FF000024FF00003D7E900AB50
:103B20005946CB00514643EA51735146CA001046EC
:103B30001946034642469B18BB664B460A4642EB73
:103B40000303FB66D7F8F4305B6800223B667A66B5
:103B50004FF000024FF00003D7E9188949468B0067
:103B6000414643EA917341468A00D7E91A01FCF7BE
:103B70003DFF02460B460D4BA3FB02135B0964217C
:103B800001FB03F3D31A1B013233084AA2FB0323C0
:103B90005B0903F00F02D7F8F4301B6822449A60E7
:103BA00000BF07F58077BD46BDE8B08F1F85EB519C
:103BB00090B58DB000AF78607B681B683B623B6A54
:103BC000FB617B681B68184601F029FF0346002B48
:103BD00040F08C847B681B68184601F08DFE03461C
:103BE000002B00F08284FB6903F500639B681B0ACD
:103BF000C3F30D027B68C3F8D4247B681B681846A6
:103C000001F07AFE034603F00203022B07D17B6822
:103C10001B685A697B681B6802F002025A617B6864
:103C20001B68184601F068FE034603F01003102BD2
:103C300061D17B681B689A697B681B6822F010025F
:103C40009A613B6A1B6ABB61BB6903F00F021346B2
:103C5000DB0013449B0003F514737A6813440433A8
:103C60007B61BB6903F4F013B3F5802F24D1BA69EB
:103C700047F6F0731340002B35D07B69D968BB69D8
:103C80001B099BB2C3F30A039BB21A46386A01F0C0
:103C9000E1FC7B69DA68BB691B09C3F30A031A44B8
:103CA0007B69DA607B695A69BB691B09C3F30A0344
:103CB0001A447B695A6116E0BB6903F4F013B3F54B
:103CC000402F10D17B6803F29C4308221946386AC2
:103CD00001F0C0FC7B695A69BB691B09C3F30A0385
:103CE0001A447B695A617B681B689A697B681B6808
:103CF00042F010029A617B681B68184601F0FCFDD7
:103D0000034603F40023B3F5002F40F0A7800023FF
:103D10007B627B681B68184601F001FEB86299E07F
:103D2000BB6A03F00103002B00F08E807B681B68E8
:103D30007A6AD2B21146184601F025FE38613B6915
:103D400003F00103002B0CD07B6A5A01FB6913447A
:103D500003F530631A4601239360796A786800F0AE
:103D60003FFE3B6903F00803002B0CD07B6A5A012D
:103D7000FB69134403F530631A4608239360796A9C
:103D8000786800F015FF3B6903F01003002B08D0A2
:103D90007B6A5A01FB69134403F530631A4610230A
:103DA00093603B6903F00203002B30D03B6A5B69F0
:103DB00003F08003802B09D1FB6903F500635B6886
:103DC000FA6902F5006243F4806353607A6A13462D
:103DD000DB0013449B0003F514737A681344043327
:103DE0007B617B69DB78012B08D17B690022DA706B
:103DF0007B6ADBB21946786801F078FF7B6A5A016A
:103E0000FB69134403F530631A46022393603B6950
:103E100003F02003002B08D07B6A5A01FB6913448E
:103E200003F530631A46202393603B6903F4005383
:103E3000002B09D07B6A5A01FB69134403F53063F8
:103E40001A464FF4005393607B6A01337B62BB6A6E
:103E50005B08BB62BB6A002B7FF462AF7B681B68A8
:103E6000184601F049FD034603F48023B3F5802F83
:103E700040F0DB807B681B68184601F06AFDB86281
:103E800000237B62CDE0BB6A03F00103002B00F04E
:103E9000C2807B681B687A6AD2B21146184601F06C
:103EA00090FD38613B6903F00103002B57D07B6A1A
:103EB00003F00F03012202FA03F3FB60FB6903F531
:103EC00000635A6BFB68DB43F96901F5006113403D
:103ED0004B637B6A5A01FB69134403F510631A466E
:103EE000012393607B689B79012B32D179687A6AD0
:103EF0001346DB0013449B000B4420331968786899
:103F00007A6A1346DB0013449B0003441C331B688E
:103F1000194478687A6A1346DB0013449B00034413
:103F2000203319607B6A002B13D179687A6A1346B3
:103F3000DB0013449B000B4424331B68002B08D187
:103F40007B6818687B6803F29C431A46012101F0E4
:103F500097FD7B6ADBB21946786801F042FE3B6947
:103F600003F00803002B08D07B6A5A01FB69134455
:103F700003F510631A46082393603B6903F01003AE
:103F8000002B08D07B6A5A01FB69134403F51063C8
:103F90001A46102393603B6903F04003002B08D0BE
:103FA0007B6A5A01FB69134403F510631A464023E8
:103FB00093603B6903F00203002B23D0796A386ACF
:103FC00000F0EAFE7A6A1346DB0013449B001033CC
:103FD0007A68134404337B617B69DB78012B08D159
:103FE0007B690022DA707B6ADBB21946786801F0DF
:103FF0008FFE7B6A5A01FB69134403F510631A466E
:10400000022393603B6903F08003002B03D0796A9D
:10401000786800F059FC7B6A01337B62BB6A5B08FD
:10402000BB62BB6A002B7FF42EAF7B681B6818460F
:1040300001F062FC034603F00043B3F1004F22D1CC
:10404000FB6903F500635B68FA6902F5006223F01F
:10405000010353607B6893F8CC34012B08D17B6853
:10406000002283F8CC240021786800F0E7FD02E00C
:10407000786801F02DFE7B681B685A697B681B68B5
:1040800002F000425A617B681B68184601F034FC5C
:10409000034603F40063B3F5006F12D1FB6903F527
:1040A00000639B6803F00103012B02D1786801F0E3
:1040B000E9FD7B681B685A697B681B6802F4006233
:1040C0005A617B681B68184601F016FC034603F42E
:1040D0008053B3F5805F40F0B780FB6903F5006360
:1040E0005B68FA6902F5006223F0010353607B68A4
:1040F0001B681021184600F04FFE0023FB6246E0CB
:10410000FB6A5A01FB69134403F510631A464FF624
:104110007F339360FB6A5A01FB69134403F5106314
:104120001B68FA6A5101FA690A4402F5106223F425
:1041300000131360FB6A5A01FB69134403F53063F3
:104140001A464FF67F339360FB6A5A01FB691344AA
:1041500003F530631B68FA6A5101FA690A4402F5F3
:10416000306223F400131360FB6A5A01FB691344A5
:1041700003F530631B68FA6A5101FA690A4402F5D3
:10418000306243F000631360FB6A0133FB627B68BB
:104190001B791A46FB6A9342B2D3FB6903F50063AD
:1041A000DB69FA6902F5006243F00113D3617B68B1
:1041B000DB7B002B16D0FB6903F50063D3F884305A
:1041C000FA6902F5006243F00B03C2F88430FB6920
:1041D00003F500635B6CFA6902F5006243F00B03C0
:1041E000536415E0FB6903F500635B69FA6902F546
:1041F000006243F4005343F02B035361FB6903F562
:1042000000631B69FA6902F5006243F00B03136156
:10421000FB6903F500631B68FA6902F5006223F489
:10422000FE6313607B6818687B6899797B6803F28A
:104230009C431A4601F024FC7B681B685A697B6822
:104240001B6802F480525A617B681B68184601F0B3
:1042500053FB034603F40053B3F5005F23D17B689F
:104260001B68184601F0E9FB7B681B68184600F0E4
:10427000C5FD03461A467B68DA717B681C68FEF749
:10428000FBFD01467B68DB791A46204600F0E2FC24
:10429000786801F0CEFC7B681B685A697B681B68F4
:1042A00002F400525A617B681B68184601F024FB37
:1042B000034603F00803082B0AD1786801F0ABFC31
:1042C0007B681B685A697B681B6802F008025A61A8
:1042D0007B681B68184601F00FFB034603F0800360
:1042E000802B23D13B6A9B6923F080023B6A9A6151
:1042F00001237B6214E079687A6A1346DB00134479
:104300009B000B4403F257231B78012B05D17B6ADA
:10431000DBB21946786800F0A6FA7B6A01337B624B
:104320007B681B791A467B6A9342E4D37B681B68DF
:10433000184601F0E1FA034603F48013B3F5801F39
:104340003CD101237B622BE07B6A5A01FB69134459
:1043500003F510631B68BB6179687A6A1346DB005A
:1043600013449B000B4418331B78012B15D1BB69F8
:10437000002B12DA79687A6A1346DB0013449B003B
:104380000B44173301221A707B6ADBB263F07F03A0
:10439000DBB21946786800F066FA7B6A01337B620B
:1043A0007B681B791A467B6A9342CDD37B681B6876
:1043B0005A697B681B6802F480125A617B681B682B
:1043C000184601F099FA034603F40013B3F5001FF1
:1043D00056D101237B6245E07B6A5A01FB69134495
:1043E00003F530631B68BB6179687A6A1346DB00AA
:1043F00013449B000B4403F516731B78012B2ED13D
:10440000BB69002B2BDABB6903F480327B68D3F8DD
:10441000D43403F001039A4221D179687A6A1346B1
:10442000DB0013449B000B4403F2572301221A7054
:104430003B6A9B6943F080023B6A9A613B6A5B6915
:1044400003F08003002B0AD1FB6903F500635B686E
:10445000FA6902F5006243F40073536008E07B6A76
:1044600001337B627B681B791A467B6A9342B3D324
:104470007B681B685A697B681B6802F400125A61EA
:104480007B681B68184601F037FA034603F0804347
:10449000B3F1804F0AD1786801F04CFC7B681B684F
:1044A0005A697B681B6802F080425A617B681B680E
:1044B000184601F021FA034603F00403042B15D13A
:1044C0007B681B685B68BB61BB6903F00403002B5E
:1044D00002D0786801F03CFC7B681B6859687B68F7
:1044E0001B68BA690A435A6000E000BF3437BD4612
:1044F00090BD80B582B000AF78600B46FB707B68E2
:1045000093F89434012B01D1022312E07B6801223D
:1045100083F894247B68FA785A747B681B68FA786D
:104520001146184601F0C2F97B68002283F89424F2
:10453000002318460837BD4680BD80B584B000AF63
:104540007860084611461A460346FB700B463B80CE
:104550001346BB700023FB7297F90330002B0FDA70
:10456000FB7803F00F021346DB0013449B0010336B
:104570007A6813440433FB60FB6801225A700FE031
:10458000FB7803F00F021346DB0013449B0003F596
:1045900014737A6813440433FB60FB6800225A707A
:1045A000FB7803F00F03DAB2FB681A703A88FB68F5
:1045B0009A60FB68BA781A71FB685B78002B04D0AC
:1045C000FB681B781A46FB685A83BB78022B02D122
:1045D000FB6800225A717B6893F89434012B01D157
:1045E00002230EE07B68012283F894247B681B6819
:1045F000F968184600F027FC7B68002283F89424B1
:10460000FB7A18461037BD4680BD80B586B000AF36
:10461000F8607A603B600B46FB72FB7A03F00F0296
:104620001346DB0013449B0003F51473FA6813442C
:1046300004337B617B697A68DA607B693A681A6166
:104640007B6900225A617B6900225A70FB7A03F071
:104650000F03DAB27B691A70FB689B79012B02D1D8
:104660007A687B69DA61FB681868FB689B791A468F
:10467000796900F06FFC002318461837BD4680BDED
:1046800080B586B000AFF8607A603B600B46FB7285
:10469000FB7A03F00F021346DB0013449B00103338
:1046A000FA68134404337B617B697A68DA607B695A
:1046B0003A681A617B6900225A617B6901225A704B
:1046C000FB7A03F00F03DAB27B691A70FB689B79FF
:1046D000012B02D17A687B69DA61FB681868FB6894
:1046E0009B791A46796900F035FC00231846183783
:1046F000BD4680BD80B584B000AF78600B46FB70CE
:10470000FB7803F00F037A681279934201D90123F1
:104710004FE097F90330002B0FDAFB7803F00F021C
:104720001346DB0013449B0010337A6813440433B0
:10473000FB60FB6801225A700DE0FA781346DB003B
:1047400013449B0003F514737A6813440433FB602D
:10475000FB6800225A70FB6801229A70FB7803F014
:104760000F03DAB2FB681A707B6893F89434012B5C
:1047700001D102231DE07B68012283F894247B6829
:104780001B68F968184600F0BDFFFB7803F00F03C3
:10479000002B09D17B6818687B6899797B6803F2E4
:1047A0009C431A4601F06CF97B68002283F894243C
:1047B000002318461037BD4680BD80B584B000AFD9
:1047C00078600B46FB70FB7803F00F037A68127970
:1047D000934201D9012342E097F90330002B0FDA0D
:1047E000FB7803F00F021346DB0013449B001033E9
:1047F0007A6813440433FB60FB6801225A700FE0AF
:10480000FB7803F00F021346DB0013449B0003F513
:1048100014737A6813440433FB60FB6800225A70F7
:10482000FB6800229A70FB7803F00F03DAB2FB6892
:104830001A707B6893F89434012B01D102230EE0A7
:104840007B68012283F894247B681B68F96818460A
:1048500000F0C6FF7B68002283F8942400231846EA
:104860001037BD4680BD80B584B000AF78600B4680
:10487000FB7097F90330002B0CDAFB7803F00F0282
:104880001346DB0013449B0010337A68134404334F
:10489000FB600CE0FB7803F00F021346DB001344CF
:1048A0009B0003F514737A6813440433FB607B6840
:1048B0001B68F968184600F0E5FD0346FB72FB7AB9
:1048C00018461037BD4680BD80B58AB002AF78600B
:1048D00039607B681B687B617B693B613A68134682
:1048E000DB0013449B0010337A6813440433FB60ED
:1048F000FB685A69FB681B699A4201D901236BE086
:10490000FB681A69FB685B69D31AFB61FB689B68EB
:10491000FA699A4202D9FB689B68FB61FB69033321
:104920009B08BB612AE0FB681A69FB685B69D31AC4
:10493000FB61FB689B68FA699A4202D9FB689B6835
:10494000FB61FB6903339B08BB61FB68D9683B686B
:10495000DAB2FB6998B27B689B7900930346786969
:1049600000F03AFEFB68DA68FB691A44FB68DA601B
:10497000FB685A69FB691A44FB685A613B685A0133
:104980003B69134403F510639B699BB2BA699A4271
:1049900009D8FB685A69FB681B699A4203D2FB6815
:1049A0001B69002BBFD1FB681A69FB685B699A42DF
:1049B00011D83B6803F00F03012202FA03F3BB6036
:1049C0003B6903F500635A6BBB68DB43396901F54A
:1049D000006113404B63002318462037BD4680BD5D
:1049E00080B588B000AF786039607B681B68FB6178
:1049F000FB69BB61FB693C3304331B687B613B682B
:104A00005A01BB69134403F530639B683B617B68C3
:104A10009B79012B7BD13B6903F00803002B15D058
:104A20007B69614A934240F2B9803B6903F40043D9
:104A3000002B00F0B3803B685A01BB69134403F5B7
:104A400030631A464FF400439360A7E03B6903F0DC
:104A50002003002B09D03B685A01BB69134403F5BE
:104A600030631A462023936098E03B6903F02803E3
:104A7000002B40F093807B694B4A93420FD93B69EE
:104A800003F40043002B0AD03B685A01BB6913446E
:104A900003F530631A464FF4004393607EE03A68B2
:104AA0001346DB0013449B0003F514737A68134428
:104AB0000433FB60FB681A6A3B685901BB690B440D
:104AC00003F530631B69C3F31203D21AFB685A6102
:104AD0003B68002B14D1FB681B69002B09D17B6854
:104AE00018687B6803F29C431A46012100F0C8FF56
:104AF00006E0FB68DA68FB685B691A44FB68DA6009
:104B00003B68DBB21946786801F050F846E07B69F3
:104B1000264A934224D13B6903F40043002B0AD078
:104B20003B685A01BB69134403F530631A464FF4DE
:104B30000043936032E03B6903F02003002B08D070
:104B40003B685A01BB69134403F530631A462023BE
:104B500093603B68DBB21946786801F027F81DE0E6
:104B60003B68002B14D179683A681346DB00134484
:104B70009B000B4403F519731B68002B08D17B685D
:104B800018687B6803F29C431A46002100F078FF06
:104B90003B68DBB21946786801F008F80023184634
:104BA0002037BD4680BD00BF0A30544F0A31544FF4
:104BB00080B586B000AF786039607B681B687B6128
:104BC0007B693B617B693C3304331B68FB603B685A
:104BD0005A013B69134403F530639B68BB60FB6873
:104BE000154A93420ED9BB6803F40043002B09D049
:104BF0003B685A013B69134403F530631A464FF48E
:104C000000439360786800F0BFFFFB680A4A934254
:104C10000CD97B689B79012B08D17B6818687B686D
:104C200003F29C431A46012100F02AFF0023184694
:104C30001837BD4680BD00BF0A30544F80B483B0E2
:104C400000AF78600B46FB7000BF0C37BD465DF8C7
:104C5000047B704780B487B000AFF860B96013463A
:104C6000FB71FB79022B65D1BB68414A934206D99F
:104C7000BB68404A934202D20F237B6162E0BB686B
:104C80003C4A934206D3BB683B4A934202D20E236E
:104C90007B6157E0BB68384A934206D3BB68374A0A
:104CA000934202D20D237B614CE0BB68334A9342AE
:104CB00006D3BB68324A934202D80C237B6141E0A1
:104CC000BB682F4A934206D9BB682E4A934202D84A
:104CD0000B237B6136E0BB682A4A934206D9BB6846
:104CE000294A934202D80A237B612BE0BB68264AFB
:104CF000934206D9BB68254A934202D209237B61BD
:104D000020E0BB68214A934206D3BB68204A934205
:104D100002D808237B6115E0BB681D4A934206D97F
:104D2000BB681C4A934202D207237B610AE0062338
:104D30007B6107E0FB79002B02D109237B6101E055
:104D400009237B61FB68DB6823F47052FB68DA603F
:104D5000FB68DA687B699B0203F470531A43FB68B3
:104D6000DA60002318461C37BD465DF8047B7047A7
:104D7000BFACD800C0E1E4000024F4008073060159
:104D80009F491A01FF2C31013FA44C0100366E01EE
:104D90001FABA6010048E80180B485B000AF786081
:104DA00039600023FB60FB680133FB60FB68B3F1F3
:104DB000706F01D903231BE07B681B69002BF2DABB
:104DC0000023FB603B689B0143F020027B681A6173
:104DD000FB680133FB60FB68B3F1706F01D90323FB
:104DE00006E07B681B6903F02003202BF0D0002332
:104DF00018461437BD465DF8047B704780B487B011
:104E000000AF78607B683B613B6903F500639B689A
:104E100003F00603FB60FB68002B02D10023FB7547
:104E20000AE0FB68022B02D0FB68062B02D10223AA
:104E3000FB7501E00F23FB75FB7D18461C37BD4653
:104E40005DF8047B704780B485B000AF786039604E
:104E50007B68FB603B681B78BB603B685B78012B21
:104E60003AD1FB6803F50063DA693B681B7803F00D
:104E70000F03012101FA03F39BB2F96801F5006108
:104E80001343CB61BB685A01FB68134403F51063FD
:104E90001B6803F40043002B55D1BB685A01FB6823
:104EA000134403F510631A683B689B68C3F30A0157
:104EB0003B681B799B041943BB689B050B43134359
:104EC000BA685101FA680A4402F5106243F080534F
:104ED00043F40043136036E0FB6803F50063DA69CE
:104EE0003B681B7803F00F03012101FA03F31B0455
:104EF000F96801F500611343CB61BB685A01FB6897
:104F0000134403F530631B6803F40043002B1AD1EC
:104F1000BB685A01FB68134403F530631A683B68A9
:104F20009B68C3F30A013B681B799B040B43134343
:104F3000BA685101FA680A4402F5306243F08053BE
:104F400043F400431360002318461437BD465DF850
:104F5000047B704780B58AB002AFF860B960134631
:104F6000FB71FB68FB61BB681B78BB61BB685B784E
:104F7000012B40F07A81BB681B69002B32D1BB69E1
:104F80005A01FB69134403F510631B69BA695101A7
:104F9000FA690A4402F5106223F0FF5323F4C013A8
:104FA0001361BB695A01FB69134403F510631B6964
:104FB000BA695101FA690A4402F5106243F4002308
:104FC0001361BB695A01FB69134403F510631B6944
:104FD000BA695101FA690A4402F51062DB0CDB047C
:104FE000136192E0BB695A01FB69134403F5106336
:104FF0001B69BA695101FA690A4402F51062DB0CB7
:10500000DB041361BB695A01FB69134403F51063A8
:105010001B69BA695101FA690A4402F5106223F06A
:10502000FF5323F4C0131361BB69002B1AD1BB6873
:105030001A69BB689B689A4203D9BB689A68BB68C7
:105040001A61BB695A01FB69134403F510631B69BC
:10505000BA695101FA690A4402F5106243F4002367
:1050600013611BE0BB695A01FB69134403F510632C
:105070001A69BB681969BB689B680B44591EBB68F9
:105080009B68B1FBF3F3D904A24B0B40B96948010B
:10509000F969014401F5106113430B61BB695A01C1
:1050A000FB69134403F510631A69BB681B69C3F3FA
:1050B0001203B9694801F969014401F5106113430C
:1050C0000B61BB681B79012B1FD1BB695A01FB69BE
:1050D000134403F510631B69BA695101FA690A4464
:1050E00002F5106223F0C0431361BB695A01FB69EA
:1050F000134403F510631B69BA695101FA690A4444
:1051000002F5106243F000531361FB79012B4BD180
:10511000BB68DB69002B09D0BB695A01FB691344EA
:1051200003F510631A46BB68DB695361BB681B79E2
:10513000012B28D1FB6903F500639B6803F480739E
:10514000002B10D1BB695A01FB69134403F51063AE
:105150001B68BA695101FA690A4402F5106243F00A
:10516000005313600FE0BB695A01FB69134403F558
:1051700010631B68BA695101FA690A4402F51062AA
:1051800043F080531360BB695A01FB69134403F574
:1051900010631B68BA695101FA690A4402F510628A
:1051A00043F00443136065E1BB695A01FB69134492
:1051B00003F510631B68BA695101FA690A4402F5E4
:1051C000106243F004431360BB681B79012B15D0B8
:1051D000BB681B69002B00F04D81FB6903F5006380
:1051E0005A6BBB681B7803F00F03012101FA03F32C
:1051F000F96901F5006113434B633BE1FB6903F57A
:1052000000639B6803F48073002B10D1BB695A01C3
:10521000FB69134403F510631B68BA695101FA690D
:105220000A4402F5106243F0005313600FE0BB69BB
:105230005A01FB69134403F510631B68BA695101F5
:10524000FA690A4402F5106243F080531360BB68A8
:10525000D968BB681A78BB681B6998B2FB79009360
:105260000346F86800F0B8F904E1BB695A01FB692C
:10527000134403F530631B69BA695101FA690A44A2
:1052800002F53062DB0CDB041361BB695A01FB6978
:10529000134403F530631B69BA695101FA690A4482
:1052A00002F5306223F0FF5323F4C0131361BB698E
:1052B000002B31D1BB681B69002B03D0BB689A68F7
:1052C000BB681A61BB689A68BB681A62BB695A01FD
:1052D000FB69134403F530631A69BB681B6AC3F3A7
:1052E0001203B9694801F969014401F530611343BA
:1052F0000B61BB695A01FB69134403F530631B69F9
:10530000BA695101FA690A4402F5306243F4002394
:10531000136161E00000F81FBB681B69002B23D1FB
:10532000BB695A01FB69134403F530631A69BB6812
:105330009B68C3F31203B9694801F969014401F597
:10534000306113430B61BB695A01FB69134403F5D8
:1053500030631B69BA695101FA690A4402F5306287
:1053600043F40023136137E0BB681A69BB689B688C
:1053700013445A1EBB689B68B2FBF3F3FB82BB6805
:105380009B68FA8A03FB02F2BB681A62BB695A0186
:10539000FB69134403F530631A69FB8AD904384B5F
:1053A0000B40B9694801F969014401F530611343C3
:1053B0000B61BB695A01FB69134403F530631A6939
:1053C000BB681B6AC3F31203B9694801F969014458
:1053D00001F5306113430B61FB79012B0DD1BB68E3
:1053E000DB68002B09D0BB68D968BB695A01FB692F
:1053F000134403F530630A465A61BB681B79012BDD
:1054000028D1FB6903F500639B6803F48073002BCC
:1054100010D1BB695A01FB69134403F530631B6863
:10542000BA695101FA690A4402F5306243F0005347
:1054300013600FE0BB695A01FB69134403F5306345
:105440001B68BA695101FA690A4402F5306243F0F7
:1054500080531360BB695A01FB69134403F5306341
:105460001B68BA695101FA690A4402F5306243F0D7
:1054700004431360002318462037BD4680BD00BF9B
:105480000000F81F80B487B000AF78603960002357
:10549000FB600023FB757B683B613B685B78012BFD
:1054A0004AD13B681B785A013B69134403F51063EA
:1054B0001B6803F00043B3F1004F40F086803B6867
:1054C0001B785A013B69134403F510631B683A6863
:1054D000127851013A690A4402F5106243F0006300
:1054E00013603B681B785A013B69134403F5106352
:1054F0001B683A68127851013A690A4402F5106251
:1055000043F080431360FB680133FB60FB6842F2A9
:105510001072934202D90123FB7556E03B681B7859
:105520005A013B69134403F510631B6803F0004301
:10553000B3F1004FE7D048E03B681B785A013B6964
:10554000134403F530631B6803F00043B3F1004FCD
:105550003BD13B681B785A013B69134403F5306328
:105560001B683A68127851013A690A4402F53062C0
:1055700043F0006313603B681B785A013B69134496
:1055800003F530631B683A68127851013A690A449E
:1055900002F5306243F080431360FB680133FB6027
:1055A000FB6842F21072934202D90123FB750CE0B2
:1055B0003B681B785A013B69134403F530631B6851
:1055C00003F00043B3F1004FE7D0FB7D18461C37D2
:1055D000BD465DF8047B704780B489B000AFF860C9
:1055E000B96011461A460B46FB711346BB80FB6837
:1055F0007B61BB68FB6197F82830002B23D1BB8807
:1056000003339B083B610023BB6118E0FB791A035D
:105610007B69134403F580531A46FB691B681360CA
:10562000FB690133FB61FB690133FB61FB690133FA
:10563000FB61FB690133FB61BB690133BB61BA6983
:105640003B699A42E2D3002318462437BD465DF8F1
:10565000047B704780B48BB000AFF860B96013462C
:10566000FB80FB68BB61BB687B62FB889B089BB2CD
:105670007B61FB8803F00303FB8300233B6214E0A0
:10568000BB6903F580531A687B6A1A607B6A013331
:105690007B627B6A01337B627B6A01337B627B6A5C
:1056A00001337B623B6A01333B623A6A7B699A420F
:1056B000E6D3FB8B002B1ED000233B62BB6903F5B6
:1056C00080531A4607F1100312681A603A693B6A60
:1056D000DBB2DB0022FA03F3DAB27B6A1A703B6AB0
:1056E00001333B627B6A01337B62FB8B013BFB83B3
:1056F000FB8B002BEAD17B6A18462C37BD465DF840
:10570000047B704780B485B000AF786039607B68F7
:10571000FB603B681B78BB603B685B78012B2CD13E
:10572000BB685A01FB68134403F510631B68002B28
:1057300012DBBB68002B0FD0BB685A01FB68134417
:1057400003F510631B68BA685101FA680A4402F550
:10575000106223F080431360BB685A01FB68134456
:1057600003F510631B68BA685101FA680A4402F530
:10577000106243F4001313602BE0BB685A01FB680E
:10578000134403F530631B68002B12DBBB68002B4E
:105790000FD0BB685A01FB68134403F530631B68E4
:1057A000BA685101FA680A4402F5306223F0804376
:1057B0001360BB685A01FB68134403F530631B6830
:1057C000BA685101FA680A4402F5306243F40013E2
:1057D0001360002318461437BD465DF8047B7047FC
:1057E00080B485B000AF786039607B68FB603B684F
:1057F0001B78BB603B685B78012B28D1BB685A01E2
:10580000FB68134403F510631B68BA685101FA681A
:105810000A4402F5106223F4001313603B681B79FD
:10582000032B03D03B681B79022B38D1BB685A018C
:10583000FB68134403F510631B68BA685101FA68EA
:105840000A4402F5106243F08053136027E0BB68FE
:105850005A01FB68134403F530631B68BA685101B1
:10586000FA680A4402F5306223F4001313603B68BF
:105870001B79032B03D03B681B79022B0FD1BB682C
:105880005A01FB68134403F530631B68BA68510181
:10589000FA680A4402F5306243F080531360002333
:1058A00018461437BD465DF8047B704780B485B058
:1058B00000AF78600B46FB707B68FB60FB6803F50C
:1058C00000631B68FA6802F5006223F4FE6313604C
:1058D000FB6803F500631A68FB781B0103F4FE63A1
:1058E000F96801F5006113430B6000231846143773
:1058F000BD465DF8047B704780B485B000AF78602A
:105900007B685B69FB607B689B69FA681340FB609E
:10591000FB6818461437BD465DF8047B704780B4B9
:1059200085B000AF78607B68FB60FB6803F50063BF
:105930009B69BB60FB6803F50063DB69BA681340D1
:10594000BB60BB681B0C18461437BD465DF8047B72
:10595000704780B485B000AF78607B68FB60FB68FF
:1059600003F500639B69BB60FB6803F50063DB69BB
:10597000BA681340BB60BB689BB218461437BD467B
:105980005DF8047B704780B485B000AF78600B464B
:10599000FB707B68FB60FB785A01FB68134403F5DE
:1059A00030639B68BB60FB6803F500635B69BA68A2
:1059B0001340BB60BB6818461437BD465DF8047BD6
:1059C000704780B487B000AF78600B46FB707B688F
:1059D0007B617B6903F500631B693B617B6903F5B0
:1059E00000635B6BFB60FB7803F00F03FA6822FA3D
:1059F00003F3DB01DBB23A6913433B61FB785A01E5
:105A00007B69134403F510639B683A691340BB60DC
:105A1000BB6818461C37BD465DF8047B704780B4F0
:105A200083B000AF78607B685B6903F001031846C0
:105A30000C37BD465DF8047B704780B485B000AF7D
:105A400078607B68FB60FB6803F510631B68FA688D
:105A500002F5106223F4FF6323F007031360FB6871
:105A600003F500635B68FA6802F5006243F4807333
:105A70005360002318461437BD465DF8047B704719
:105A800080B487B000AFF8600B467A60FB72FB68A9
:105A90007B61FB683C3304331B683B613B69264AEE
:105AA00093420AD97B6903F530631B6803F0004316
:105AB000B3F1004F01D1002337E07B6903F5306378
:105AC0001A46002313617B6903F530631B697A6909
:105AD00002F5306243F4002313617B6903F5306300
