:020000040800F2
:1000000000000320B9400008F90F000801100008A3
:100010000910000811100008191000080000000065
:100020000000000000000000000000002110000897
:100030002F100008000000003D1000084B100008C1
:100040000941000809410008094100080941000868
:100050000941000809410008094100080941000858
:100060000941000809410008094100080941000848
:100070000941000809410008094100080941000838
:100080000941000809410008094100080941000828
:100090000941000809410008094100080941000818
:1000A0000941000809410008094100080941000808
:1000B00009410008094100080941000809410008F8
:1000C00009410008094100080941000809410008E8
:1000D00009410008094100080941000809410008D8
:1000E00009410008094100080941000809410008C8
:1000F00009410008094100080941000809410008B8
:1001000009410008094100080941000809410008A7
:100110000941000809410008094100080941000897
:100120000941000809410008094100080941000887
:100130000941000809410008094100080941000877
:100140000941000809410008094100080941000867
:100150000941000809410008094100080941000857
:100160000941000809410008094100080941000847
:100170000941000809410008094100080000000089
:100180000941000809410008094100080941000827
:100190000941000809410008094100080941000817
:0C01A0000941000809410008094100085D
:1001B00001F0FF01102A2BDB10F0070F08D010F818
:1001C000013B013A8B422DD010F0070F42B3F6D11C
:1001D000F0B441EA012141EA014122F007047FF035
:1001E00000070023F0E80256083C85EA010586EA8C
:1001F000010685FA47F5A3FA87F586FA47F6A5FAC8
:1002000087F68EB9EED1F0BC01F0FF0102F00702D3
:1002100032B110F8013B013A83EA010313B1F8D17E
:100220000020704701387047002D06BF354603385F
:10023000073815F0010F07D1013015F4807F02BF98
:10024000013015F4C03F0130F0BC0138704700BFE9
:10025000034613F8012B002AFBD1181A0138704706
:1002600081F0004102E000BF83F0004330B54FEA67
:1002700041044FEA430594EA050F08BF90EA020FD4
:100280001FBF54EA000C55EA020C7FEA645C7FEA67
:10029000655C00F0E2804FEA5454D4EB5555B8BF8A
:1002A0006D420CDD2C4480EA020281EA030382EAFB
:1002B000000083EA010180EA020281EA0303362D8D
:1002C00088BF30BD11F0004F4FEA01314FF4801C60
:1002D0004CEA113102D0404261EB410113F0004F72
:1002E0004FEA03334CEA133302D0524263EB430329
:1002F00094EA050F00F0A780A4F10104D5F1200EC7
:100300000DDB02FA0EFC22FA05F2801841F1000121
:1003100003FA0EF2801843FA05F359410EE0A5F1F5
:1003200020050EF1200E012A03FA0EFC28BF4CF026
:10033000020C43FA05F3C01851EBE37101F00045DC
:1003400007D54FF0000EDCF1000C7EEB00006EEBE9
:100350000101B1F5801F1BD3B1F5001F0CD3490873
:100360005FEA30004FEA3C0C04F101044FEA4452CA
:1003700012F5800F80F09A80BCF1004F08BF5FEA51
:10038000500C50F1000041EB045141EA050130BD31
:100390005FEA4C0C404141EB0101013C28BFB1F543
:1003A000801FE9D291F0000F04BF01460020B1FA8E
:1003B00081F308BF2033A3F10B03B3F120020CDA61
:1003C0000C3208DD02F1140CC2F10C0201FA0CF03F
:1003D00021FA02F10CE002F11402D8BFC2F1200CA4
:1003E00001FA02F120FA0CFCDCBF41EA0C0190405A
:1003F000E41AA2BF01EB0451294330BD6FEA0404A3
:100400001F3C1CDA0C340EDC04F11404C4F120028D
:1004100020FA04F001FA02F340EA030021FA04F39F
:1004200045EA030130BDC4F10C04C4F1200220FAF6
:1004300002F001FA04F340EA0300294630BD21FA34
:1004400004F0294630BD94F0000F83F4801306BFFA
:1004500081F480110134013D4EE77FEA645C18BFEE
:100460007FEA655C29D094EA050F08BF90EA020F85
:1004700005D054EA000C04BF1946104630BD91EA7D
:10048000030F1EBF0021002030BD5FEA545C05D180
:100490004000494128BF41F0004130BD14F58004BF
:1004A0003CBF01F5801130BD01F0004545F0FE4133
:1004B00041F470014FF0000030BD7FEA645C1ABF68
:1004C000194610467FEA655C1CBF0B46024650EA9F
:1004D000013406BF52EA033591EA030F41F40021CB
:1004E00030BD00BF90F0000F04BF0021704730B551
:1004F0004FF4806404F132044FF000054FF0000126
:1005000050E700BF90F0000F04BF0021704730B5E6
:100510004FF4806404F1320410F0004548BF4042BB
:100520004FF000013EE700BF42004FEAE2014FEA10
:1005300031014FEA02701FBF12F07F4393F07F4FEB
:1005400081F06051704732F07F4208BF704793F0EE
:100550007F4F04BF41F40021704730B54FF4607401
:1005600001F0004521F000411CE700BF50EA010204
:1005700008BF704730B54FF000050AE050EA0102AD
:1005800008BF704730B511F0004502D5404261EB1D
:1005900041014FF4806404F132045FEA915C3FF45E
:1005A000D8AE4FF003025FEADC0C18BF03325FEAFB
:1005B000DC0C18BF033202EBDC02C2F1200300FAAC
:1005C00003FC20FA02F001FA03FE40EA0E0021FAD1
:1005D00002F11444BDE600BF70B54FF0FF0C4CF4BF
:1005E000E06C1CEA11541DBF1CEA135594EA0C0F71
:1005F00095EA0C0F00F0DEF82C4481EA030621EAAC
:100600004C5123EA4C5350EA013518BF52EA0335E6
:1006100041F4801143F4801338D0A0FB02CE4FF098
:100620000005E1FB02E506F00042E0FB03E54FF0C8
:100630000006E1FB03569CF0000F18BF4EF0010EC0
:10064000A4F1FF04B6F5007F64F5407404D25FEABC
:100650004E0E6D4146EB060642EAC62141EA55516F
:100660004FEAC52040EA5E504FEACE2EB4F1FD0CB1
:1006700088BFBCF5E06F1ED8BEF1004F08BF5FEA2F
:10068000500E50F1000041EB045170BD06F00046E1
:1006900046EA010140EA020081EA0301B4EB5C048E
:1006A000C2BFD4EB0C0541EA045170BD41F4801186
:1006B0004FF0000E013C00F3AB8014F1360FDEBFAB
:1006C000002001F0004170BDC4F10004203C35DA87
:1006D0000C341BDC04F11404C4F1200500FA05F30A
:1006E00020FA04F001FA05F240EA020001F00042AB
:1006F00021F0004110EBD37021FA04F642EB060121
:100700005EEA430E08BF20EAD37070BDC4F10C044A
:10071000C4F1200500FA04F320FA05F001FA04F20E
:1007200040EA020001F0004110EBD37041F10001FA
:100730005EEA430E08BF20EAD37070BDC4F1200505
:1007400000FA05F24EEA020E20FA04F301FA05F26D
:1007500043EA020321FA04F001F0004121FA04F215
:1007600020EA020000EBD3705EEA430E08BF20EAE5
:10077000D37070BD94F0000F0FD101F0004640001F
:1007800041EB010111F4801F08BF013CF7D041EAA1
:10079000060195F0000F18BF704703F000465200A5
:1007A00043EB030313F4801F08BF013DF7D043EA76
:1007B0000603704794EA0C0F0CEA135518BF95EA2C
:1007C0000C0F0CD050EA410618BF52EA4306D1D1B3
:1007D00081EA030101F000414FF0000070BD50EAD2
:1007E000410606BF1046194652EA430619D094EA5C
:1007F0000C0F02D150EA013613D195EA0C0F05D146
:1008000052EA03361CBF104619460AD181EA030199
:1008100001F0004141F0FE4141F470014FF0000051
:1008200070BD41F0FE4141F4780170BD70B54FF0EC
:10083000FF0C4CF4E06C1CEA11541DBF1CEA13556C
:1008400094EA0C0F95EA0C0F00F0A7F8A4EB05044E
:1008500081EA030E52EA03354FEA013100F0888045
:100860004FEA03334FF0805545EA131343EA12630E
:100870004FEA022245EA111545EA10654FEA0026C3
:100880000EF000419D4208BF964244F1FD0404F57C
:10089000407402D25B084FEA3202B61A65EB0305D8
:1008A0005B084FEA32024FF480104FF4002CB6EB95
:1008B000020E75EB030E22BFB61A754640EA0C0015
:1008C0005B084FEA3202B6EB020E75EB030E22BF55
:1008D000B61A754640EA5C005B084FEA3202B6EB96
:1008E000020E75EB030E22BFB61A754640EA9C0055
:1008F0005B084FEA3202B6EB020E75EB030E22BF25
:10090000B61A754640EADC0055EA060E18D04FEAE2
:10091000051545EA16754FEA06164FEAC30343EA82
:1009200052734FEAC2025FEA1C1CC0D111F4801F4F
:100930000BD141EA00014FF000004FF0004CB6E748
:1009400011F4801F04BF01430020B4F1FD0C88BFE7
:10095000BCF5E06F3FF6AFAEB5EB030C04BFB6EBF2
:10096000020C5FEA500C50F1000041EB045170BDE5
:100970000EF0004E4EEA113114EB5C04C2BFD4EB12
:100980000C0541EA045170BD41F480114FF0000E96
:10099000013C90E645EA060E8DE60CEA135594EA12
:1009A0000C0F08BF95EA0C0F3FF43BAF94EA0C0F15
:1009B0000AD150EA01347FF434AF95EA0C0F7FF48A
:1009C00025AF104619462CE795EA0C0F06D152EADE
:1009D00003353FF4FDAE1046194622E750EA4106C2
:1009E00018BF52EA43067FF4C5AE50EA41047FF4D3
:1009F0000DAF52EA43057FF4EBAE12E74FF0FF3C38
:100A000006E000BF4FF0010C02E000BF4FF0010C08
:100A10004DF804CD4FEA410C7FEA6C5C4FEA430C81
:100A200018BF7FEA6C5C1BD001B050EA410C0CBFD0
:100A300052EA430C91EA030F02BF90EA020F002032
:100A4000704710F1000F91EA030F58BF994208BF99
:100A500090422CBFD8176FEAE37040F00100704756
:100A60004FEA410C7FEA6C5C02D150EA013C07D1AD
:100A70004FEA430C7FEA6C5CD6D152EA033CD3D0F8
:100A80005DF8040B704700BF8446104662468C46F2
:100A90001946634600E000BF01B5FFF7B7FF002825
:100AA00048BF10F1000F01BD4DF808EDFFF7F4FF4E
:100AB0000CBF012000205DF808FB00BF4DF808EDD9
:100AC000FFF7EAFF34BF012000205DF808FB00BFFC
:100AD0004DF808EDFFF7E0FF94BF012000205DF81E
:100AE00008FB00BF4DF808EDFFF7CEFF94BF0120D3
:100AF00000205DF808FB00BF4DF808EDFFF7C4FFCC
:100B000034BF012000205DF808FB00BF4FEA410C14
:100B10007FEA6C5C02D150EA013C0AD14FEA430CF7
:100B20007FEA6C5C02D152EA033C02D14FF0000034
:100B300070474FF0010070474FEA410212F5001272
:100B400015D211D56FF47873B3EB625212D94FEA14
:100B5000C12343F0004343EA505311F0004F23FAFE
:100B600002F018BF404270474FF00000704750EA53
:100B7000013005D111F0004008BF6FF00040704710
:100B80004FF00000704700BF4FEA4102B2F1E0436E
:100B900024BFB3F5001CDCF1FE5C0DD901F0004C64
:100BA0004FEAC0024CEA5070B2F1004F40EB8300B4
:100BB00008BF20F00100704711F0804F21D113F1E0
:100BC0003872BCBF01F00040704741F480114FEA19
:100BD0005252C2F11802C2F1200C10FA0CF320FAA2
:100BE00002F018BF40F001004FEAC1234FEAD323BF
:100BF00003FA0CFC40EA0C0023FA02F34FEA430329
:100C0000CCE77FEA625307D150EA01331EBF4FF0B1
:100C1000FE4040F44000704701F0004040F0FE40CC
:100C200040F40000704700BF53B94AB9002908BF1B
:100C300000281CBF4FF0FF314FF0FF3000F00CB820
:100C4000ADF1080C6DE904CE06F0DAF8DDF804E049
:100C5000DDE9022304B07047704700BF0348044B2E
:100C6000834202D0034B03B118477047D4010020E0
:100C7000D4010020000000000548064B1B1AD90FC4
:100C800001EBA301491002D0034B03B11847704791
:100C9000D4010020D40100200000000010B5064C53
:100CA000237843B9FFF7DAFF044B13B10448AFF3DD
:100CB00000800123237010BDD4010020000000003B
:100CC000BC70000808B5054B1BB105490548AFF3DA
:100CD0000080BDE80840FFF7CFBF00BF0000000064
:100CE000D8010020BC70000880B5ADF5207D02AFB2
:100CF00002F02EFD00F052F800F026F900F0BAF8EC
:100D000000F0F8F81F4B204A2049214800F06EFA05
:100D100007F5FC711B4B00931B4B1C4A1C4800F051
:100D2000DBFA642002F086FDD7E98023C7E99C2323
:100D3000D7E98223C7E99A23D7E98423C7E998230F
:100D4000D7E98A23C7E99623D7E99601FFF71CFF65
:100D500003461846FFF7E8FB02460B46381D0D49CF
:100D600003F0EAFEC7F85402D7F854329AB2391D9C
:100D70006423094802F0E4FD642002F05BFD00BF3B
:100D8000C6E700BF9C020020940200208C020020D5
:100D9000F0010020E07000084402002080B594B00B
:100DA00000AF07F1200330220021184603F027FF8F
:100DB00007F10C0300221A605A609A60DA601A6127
:100DC0000023BB60294B1B6C284A43F080531364FB
:100DD000264B1B6C03F08053BB60BB6800237B6019
:100DE000234B1B6823F44043214A43F480431360A0
:100DF0001F4B1B6803F440437B607B6802233B620C
:100E00000123FB6210233B630223BB630023FB63CC
:100E10000F233B6490237B640223BB640523FB64A4
:100E200007F12003184601F08FFD0346002B01D087
:100E300000F0DCF80F23FB6002233B6100237B61A1
:100E40004FF4A053BB614FF48053FB6107F10C03D7
:100E50000221184601F0F0FF0346002B01D000F0FC
:100E6000C5F800BF5037BD4680BD00BF0038024006
:100E70000070004080B500AF1B4B1C4A1A601A4B33
:100E80001B4A5A60184B00229A60174B0022DA6006
:100E9000154B4FF480421A61134B00225A61124BDA
:100EA00000229A61104B0022DA610F4B00221A6275
:100EB0000D4800F07BFB0346002B01D000F096F8B4
:100EC0000021094801F0C4FC0346002B01D000F0CA
:100ED0008DF80021044801F0F7FC0346002B01D0F7
:100EE00000F084F800BF80BDF001002000540040F5
:100EF000A086010080B500AF114B124A1A60104B5A
:100F00004FF4E1325A600E4B00229A600C4B0022E3
:100F1000DA600B4B00221A61094B0C225A61084B14
:100F200000229A61064B0022DA61054802F0B8FC03
:100F30000346002B01D000F059F800BF80BD00BF70
:100F4000440200200010014080B588B000AF07F1D6
:100F50000C0300221A605A609A60DA601A6100235A
:100F6000BB60204B1B6B1F4A43F0010313631D4BF7
:100F70001B6B03F00103BB60BB6800237B60194B54
:100F80001B6B184A43F040031363164B1B6B03F0B3
:100F900040037B607B6800233B60124B1B6B114A54
:100FA00043F0020313630F4B1B6B03F002033B6020
:100FB0003B6800224FF4C0410B4802F0C9FA4FF4DD
:100FC000C043FB6001233B6100237B610023BB61C5
:100FD00007F10C031946044802F00EF900BF203750
:100FE000BD4680BD003802400018024080B400AF0A
:100FF00072B600BF00BFFDE780B400AF00BFFDE7E1
:1010000080B400AF00BFFDE780B400AF00BFFDE7D4
:1010100080B400AF00BFFDE780B400AF00BFFDE7C4
:1010200080B400AF00BFBD465DF8047B704780B45C
:1010300000AF00BFBD465DF8047B704780B400AFD1
:1010400000BFBD465DF8047B704780B500AF02F07D
:10105000D1FB00BF80BD000080B483B000AF00238F
:101060007B60104B5B6C0F4A43F4804353640D4B21
:101070005B6C03F480437B607B6800233B60094B1F
:101080001B6C084A43F080531364064B1B6C03F03F
:1010900080533B603B6800BF0C37BD465DF8047B66
:1010A000704700BF0038024080B58AB000AF78605A
:1010B00007F1140300221A605A609A60DA601A611C
:1010C0007B681B68194A93422BD100233B61184B64
:1010D0001B6B174A43F002031363154B1B6B03F0A2
:1010E00002033B613B69C0237B611223BB61002388
:1010F000FB6103233B6204237B6207F1140319465F
:101100000C4802F079F80023FB60094B1B6C084A7D
:1011100043F400131364064B1B6C03F40013FB60D1
:10112000FB6800BF2837BD4680BD00BF00540040AB
:10113000003802400004024080B58AB000AF7860F9
:1011400007F1140300221A605A609A60DA601A618B
:101150007B681B68194A93422CD100233B61184BD2
:101160005B6C174A43F010035364154B5B6C03F040
:1011700010033B613B690023FB60114B1B6B104A62
:1011800043F0010313630E4B1B6B03F00103FB6081
:10119000FB684FF4C0637B610223BB610023FB61EA
:1011A00003233B6207237B6207F1140319460548BA
:1011B00002F022F800BF2837BD4680BD0010014074
:1011C000003802400000024080B584B000AF786073
:1011D0004FF47A730622D021786800F057FE034658
:1011E000FB73FB7B18461037BD4680BD80B58AB0C7
:1011F00004AFF860B9607A603B60F868FFF7E4FF1D
:101200000346FB75FB7D002B0CD164230293012365
:10121000019307F11303009301237522D021F8688D
:1012200000F002FCFB7C682B42D10023BB746423DA
:1012300002930123019307F11203009301236B2210
:10124000D021F86800F0F6FA0346BB750723BB749B
:10125000BB7C1A46642302930123019307F1120316
:1012600000930123D021F86800F0E4FA0823BB744E
:10127000642302930123019307F1120300930123D6
:101280001B22D021F86800F0D5FA03467B750823AD
:10129000BB74642302930123019307F112030093AB
:1012A00001231C22D021F86800F0C4FA03463B75E4
:1012B000B6EE000AB86800F041F9B6EE000A7868A8
:1012C00000F03CF9B6EE000A386800F037F900BFCC
:1012D0001837BD4680BD000080B58CB004AFF86003
:1012E000B9607A603B60642302930623019307F19F
:1012F0001803009301233B22D021F86800F094FBEF
:101300000346FB773B7E1BB21B021AB27B7E1BB2ED
:1013100013431AB2BB681A80BB7E1BB21B021AB2FF
:10132000FB7E1BB213431AB2BB685A803B7F1BB2D1
:101330001B021AB27B7F1BB213431AB2BB689A809E
:10134000BB68B3F900301846FFF7DCF876A3D3E9A1
:101350000023FFF741F902460B46104619464FF0AD
:101360000002754BFFF762FA02460B46B968C1E905
:101370000223BB68B3F902301846FFF7C3F86AA32B
:10138000D3E90023FFF728F902460B461046194619
:101390004FF00002684BFFF749FA02460B46B96866
:1013A000C1E90423BB68B3F904301846FFF7AAF873
:1013B0005DA3D3E90023FFF70FF902460B46104661
:1013C00019464FF000025C4BFFF730FA02460B461D
:1013D000B968C1E90623BB68D3E902231046194660
:1013E000FFF7D2FB034600EE103A786800F0B5F83C
:1013F00010EE103A1846FFF797F802460B46B96808
:10140000C1E90823BB68D3E9042310461946FFF756
:10141000BBFB034600EE103A386800F09EF810EE71
:10142000103A1846FFF780F802460B46B968C1E942
:101430000A23BB68D3E9062310461946FFF7A4FB2D
:10144000034600EE103AB86A00F087F810EE103A42
:101450001846FFF769F802460B46B968C1E90C2344
:10146000642302930623019307F1100300930123E1
:101470004322D021F86800F0D7FA0346FB773B7C83
:101480001BB21B021AB27B7C1BB213431AB2BB689D
:101490001A87BB7C1BB21B021AB2FB7C1BB2134324
:1014A0001AB2BB685A873B7D1BB21B021AB27B7D06
:1014B0001BB213431AB2BB689A87BB68B3F93830C2
:1014C0001846FFF71FF81AA3D3E90023FFF7AEF978
:1014D00002460B46B968C1E91023BB68B3F93A303C
:1014E0001846FFF70FF812A3D3E90023FFF79EF980
:1014F00002460B46B968C1E91223BB68B3F93C3018
:101500001846FEF7FFFF0AA3D3E90023FFF78EF981
:1015100002460B46B968C1E9142300BF2037BD4617
:1015200080BD00BFAFF300801F85EB51B89E234004
:1015300000000000006050400000C04080B483B054
:1015400000AF786087ED000A7B683A681A6000BFD8
:101550000C37BD465DF8047B704780B483B000AFA4
:10156000786087ED000A7B68D3ED007AB7EE007AE9
:1015700037EE677AD7ED007A27EE277A7B68D3EDCE
:10158000006A7B68D3ED017A66EEA77A77EE277A58
:101590007B68C3ED017A7B685B6807EE903AB0EE3A
:1015A000670A0C37BD465DF8047B704780B584B090
:1015B00000AF78607B68002B01D101232BE17B68B1
:1015C00093F83D30DBB2002B06D17B68002283F814
:1015D0003C207868FFF768FD7B68242283F83D2073
:1015E0007B681B681A687B681B6822F001021A601E
:1015F0007B681B681A687B681B6842F400421A60AB
:101600007B681B681A687B681B6822F400421A60BA
:1016100001F0CAFDF8607B685B68814A934207D895
:10162000FB68804A934294BF01230023DBB206E0AB
:10163000FB687D4A934294BF01230023DBB2002B59
:1016400001D00123E7E0FB68784AA2FB03239B0C4F
:10165000BB607B681B685B6823F03F017B681B688D
:10166000BA680A435A607B681B681B6A23F03F0113
:101670007B685B686A4A934202D8BB68013309E021
:10168000BB684FF4967202FB03F3694AA2FB032383
:101690009B0901337A6812680B4313627B681B68ED
:1016A000DB6923F44F4222F0FF027B685B685C49F0
:1016B0008B4219D8FB68591E7B685B685B00B1FBE5
:1016C000F3F3591C40F6FC730B40002B0AD0FB6867
:1016D000591E7B685B685B00B1FBF3F30133C3F316
:1016E0000B0351E004234FE07B689B68002B11D172
:1016F000FB68581E7B6859680B465B000B44B0FBC7
:10170000F3F30133C3F30B03002B0CBF01230023BE
:10171000DBB212E0FB68581E7B6859680B469B00E1
:101720000B4499000B44B0FBF3F30133C3F30B03F9
:10173000002B0CBF01230023DBB2002B01D00123BF
:1017400022E07B689B68002B0ED1FB68581E7B68EB
:1017500059680B465B000B44B0FBF3F30133C3F352
:101760000B0343F400430FE0FB68581E7B68596885
:101770000B469B000B4499000B44B0FBF3F3013381
:10178000C3F30B0343F44043796809681343CB6107
:101790007B681B681B6823F0C0017B68DA697B6883
:1017A0001B6A1A437B681B680A431A607B681B68C4
:1017B0009B6823F4034323F0FF037A6811697A6876
:1017C000D26811437A6812680B4393607B681B6888
:1017D000DB6823F0FF017B685A697B689B691A43C9
:1017E0007B681B680A43DA607B681B681A687B6841
:1017F0001B6842F001021A607B6800221A647B6851
:10180000202283F83D207B6800221A637B68002237
:1018100083F83E20002318461037BD4680BD00BF28
:10182000A08601007F841E00FF083D0083DE1B436D
:10183000D34D621080B588B002AFF86008461146FB
:101840001A4603467B810B463B811346FB8001F021
:10185000E5FF7861FB6893F83D30DBB2202B40F068
:10186000D9807B690093192301226D49F86800F043
:10187000B9FD0346002B01D00223CCE0FB6893F8AE
:101880003C30012B01D10223C5E0FB68012283F823
:101890003C20FB681B681B6803F00103012B07D089
:1018A000FB681B681A68FB681B6842F001021A603B
:1018B000FB681B681A68FB681B6822F400621A60E8
:1018C000FB68212283F83D20FB68402283F83E20FC
:1018D000FB6800221A64FB683A6A5A62FB68BA8C99
:1018E0005A85FB685B8D9AB2FB681A85FB684D4A86
:1018F000DA62F8883A8979897B690193BB6A009337
:101900000346F86800F0F0FB0346002B52D0012399
:1019100081E07A69B96AF86800F07EFE0346002B20
:101920000DD0FB681B6C042B07D1FB681B681A6881
:10193000FB681B6842F400721A6001236BE0FB68CD
:101940005B6A1A78FB681B681A61FB685B6A5A1C41
:10195000FB685A62FB681B8D013B9AB2FB681A85D3
:10196000FB685B8D9BB2013B9AB2FB685A85FB68B2
:101970001B685B6903F00403042B1BD1FB681B8D00
:10198000002B17D0FB685B6A1A78FB681B681A612A
:10199000FB685B6A5A1CFB685A62FB681B8D013B43
:1019A0009AB2FB681A85FB685B8D9BB2013B9AB2C9
:1019B000FB685A85FB681B8D002BAAD17A69B96A2E
:1019C000F86800F071FE0346002B0DD0FB681B6C1D
:1019D000042B07D1FB681B681A68FB681B6842F47C
:1019E00000721A60012316E0FB681B681A68FB6826
:1019F0001B6842F400721A60FB68202283F83D20C5
:101A0000FB68002283F83E20FB68002283F83C201C
:101A1000002300E0022318461837BD4680BD00BFF2
:101A2000020010000000FFFF80B58CB002AFF8602C
:101A3000084611461A4603467B810B463B811346F6
:101A4000FB8001F0EBFE7862FB6893F83D30DBB27F
:101A5000202B40F014827B6A0093192301227B49DA
:101A6000F86800F0BFFC0346002B01D0022307E218
:101A7000FB6893F83C30012B01D1022300E2FB68A4
:101A8000012283F83C20FB681B681B6803F00103FC
:101A9000012B07D0FB681B681A68FB681B6842F0C3
:101AA00001021A60FB681B681A68FB681B6822F455
:101AB00000621A60FB68222283F83D20FB68402206
:101AC00083F83E20FB6800221A64FB683A6B5A6276
:101AD000FB68BA8E5A85FB685B8D9AB2FB681A85E3
:101AE000FB685B4ADA62F8883A8979897B6A0193F4
:101AF000BB6B00930346F86800F08CFB0346002B99
:101B000001D00123BCE1FB681B8D002B13D1002306
:101B10003B62FB681B685B693B62FB681B689B69F7
:101B20003B623B6AFB681B681A68FB681B6842F4EF
:101B300000721A6090E1FB681B8D012B1BD1FB68C2
:101B40001B681A68FB681B6822F480621A60002315
:101B5000FB61FB681B685B69FB61FB681B689B6939
:101B6000FB61FB69FB681B681A68FB681B6842F431
:101B700000721A6070E1FB681B8D022B1BD1FB68A1
:101B80001B681A68FB681B6822F480621A60FB6895
:101B90001B681A68FB681B6842F400621A60002325
:101BA000BB61FB681B685B69BB61FB681B689B6969
:101BB000BB61BB6950E100237B61FB681B685B690B
:101BC0007B61FB681B689B697B617B6944E1FB6807
:101BD0001B8D032B00F2F180FB681B8D012B23D1A1
:101BE0007A6AB96BF86800F0A7FD0346002B01D0B4
:101BF000012345E1FB681B681A69FB685B6AD2B286
:101C00001A70FB685B6A5A1CFB685A62FB681B8D82
:101C1000013B9AB2FB681A85FB685B8D9BB2013B66
:101C20009AB2FB685A8517E1FB681B8D022B4ED1D7
:101C30007B6A0093BB6B00220649F86800F0D2FB78
:101C40000346002B08D001231AE100BF0200100058
:101C50000000FFFF04000100FB681B681A68FB68B6
:101C60001B6842F400721A60FB681B681A69FB6803
:101C70005B6AD2B21A70FB685B6A5A1CFB685A62D4
:101C8000FB681B8D013B9AB2FB681A85FB685B8D74
:101C90009BB2013B9AB2FB685A85FB681B681A69C4
:101CA000FB685B6AD2B21A70FB685B6A5A1CFB68FD
:101CB0005A62FB681B8D013B9AB2FB681A85FB6870
:101CC0005B8D9BB2013B9AB2FB685A85C4E07B6A8C
:101CD0000093BB6B00226C49F86800F083FB03465D
:101CE000002B01D00123CBE0FB681B681A68FB685E
:101CF0001B6822F480621A60FB681B681A69FB6823
:101D00005B6AD2B21A70FB685B6A5A1CFB685A6243
:101D1000FB681B8D013B9AB2FB681A85FB685B8DE3
:101D20009BB2013B9AB2FB685A857B6A0093BB6BFE
:101D300000225549F86800F055FB0346002B01D0FE
:101D400001239DE0FB681B681A68FB681B6842F46E
:101D500000721A60FB681B681A69FB685B6AD2B282
:101D60001A70FB685B6A5A1CFB685A62FB681B8D21
:101D7000013B9AB2FB681A85FB685B8D9BB2013B05
:101D80009AB2FB685A85FB681B681A69FB685B6A34
:101D9000D2B21A70FB685B6A5A1CFB685A62FB6815
:101DA0001B8D013B9AB2FB681A85FB685B8D9BB269
:101DB000013B9AB2FB685A854EE07A6AB96BF868C3
:101DC00000F0BAFC0346002B01D0012358E0FB6869
:101DD0001B681A69FB685B6AD2B21A70FB685B6A9F
:101DE0005A1CFB685A62FB681B8D013B9AB2FB6868
:101DF0001A85FB685B8D9BB2013B9AB2FB685A85E2
:101E0000FB681B685B6903F00403042B24D1FB68A7
:101E10001B8D032B07D1FB681B681A68FB681B68C6
:101E200022F480621A60FB681B681A69FB685B6AAF
:101E3000D2B21A70FB685B6A5A1CFB685A62FB6874
:101E40001B8D013B9AB2FB681A85FB685B8D9BB2C8
:101E5000013B9AB2FB685A85FB681B8D002B7FF40F
:101E6000B6AEFB68202283F83D20FB68002283F891
:101E70003E20FB68002283F83C20002300E0022380
:101E800018462837BD4680BD0400010080B58AB0E1
:101E900002AFF8607A603B600B467B8101F0BEFCCC
:101EA000F8610023BB61FB6893F83D30DBB2202B67
:101EB00040F01181FB690093192301228849F868D9
:101EC00000F090FA0346002B01D0022304E1FB68E6
:101ED00093F83C30012B01D10223FDE0FB68012285
:101EE00083F83C20FB681B681B6803F00103012B8F
:101EF00007D0FB681B681A68FB681B6842F0010288
:101F00001A60FB681B681A68FB681B6822F4006291
:101F10001A60FB68242283F83D20FB6800221A64C3
:101F2000FB68704ADA62FB681B681A68FB681B680A
:101F300042F480721A60FB6900933B6800224FF004
:101F40000111F86800F04EFA0346002B0DD0FB6833
:101F50001B681B6803F48073B3F5807F03D1FB68B3
:101F60004FF400721A640323B6E07B89DBB21A4691
:101F7000FB681B6802F0FE021A6101F04FFCF86179
:101F8000FB681B685B6903F00203022B0CBF012393
:101F90000023DBB2FB75FB681B685B6903F480639D
:101FA000B3F5806F0CBF01230023DBB2BB7525E0C6
:101FB00001F034FC0246FB69D31A3A689A4202D314
:101FC0003B68002B03D1FB68A02283F83D20FB680F
:101FD0001B685B6903F00203022B0CBF0123002383
:101FE000DBB2FB75FB681B685B6903F48063B3F5C8
:101FF000806F0CBF01230023DBB2BB75FB6893F835
:102000003D30DBB2A02B05D0FB7D002B02D1BB7D88
:10201000002BCDD0FB68202283F83D20FB681B6895
:102020005B6903F00203022B29D1FB681B681A6865
:10203000FB681B6842F400721A6000233B61FB6876
:102040001B685B693B61FB681B689B693B613B6983
:10205000FB690093192301222149F86800F0C2F9B5
:102060000346002B01D0012336E0FB68202283F8D1
:102070003D20FB68002283F83C2000232CE0FB6815
:102080001B681A68FB681B6842F400721A60FB68E0
:102090001B686FF480625A61FB6900931923012267
:1020A0000F49F86800F09EF90346002B01D0012388
:1020B00012E0BB690133BB61BA697B689A42FFF4E5
:1020C00032AFFB68202283F83D20FB68002283F8B2
:1020D0003C20012300E0022318462037BD4680BD86
:1020E000020010000000FFFF80B588B002AFF8606A
:1020F000084611461A4603467B810B463B81134630
:10210000FB80FB681B681A68FB681B6842F48072DE
:102110001A607B6A00933B6A00224FF00111F86855
:1021200000F060F90346002B0DD0FB681B681B68AC
:1021300003F48073B3F5807F03D1FB684FF4007222
:102140001A6403235FE07B89DBB21A46FB681B68D5
:1021500002F0FE021A617B6A3A6A2D49F86800F0C3
:10216000BBF90346002B01D001234CE000237B6127
:10217000FB681B685B697B61FB681B689B697B6113
:102180007B697A6A396AF86800F046FA0346002BE0
:102190000DD0FB681B6C042B07D1FB681B681A6809
:1021A000FB681B6842F400721A6001232BE0FB8875
:1021B000012B05D13B89DAB2FB681B681A6121E06B
:1021C0003B891B0A9BB2DAB2FB681B681A617A6A08
:1021D000396AF86800F020FA0346002B0DD0FB683E
:1021E0001B6C042B07D1FB681B681A68FB681B6813
:1021F00042F400721A60012305E03B89DAB2FB6801
:102200001B681A61002318461837BD4680BD00BF01
:102210000200010080B588B002AFF86008461146A0
:102220001A4603467B810B463B811346FB80FB68C5
:102230001B681A68FB681B6842F480621A60FB68BE
:102240001B681A68FB681B6842F480721A607B6A1C
:1022500000933B6A00224FF00111F86800F0C2F8C9
:102260000346002B0DD0FB681B681B6803F48073CA
:10227000B3F5807F03D1FB684FF400721A64032327
:10228000AAE07B89DBB21A46FB681B6802F0FE02FB
:102290001A617B6A3A6A5249F86800F01DF90346F0
:1022A000002B01D0012397E000237B61FB681B68B2
:1022B0005B697B61FB681B689B697B617B697A6AF0
:1022C000396AF86800F0A8F90346002B0DD0FB68C6
:1022D0001B6C042B07D1FB681B681A68FB681B6822
:1022E00042F400721A60012376E0FB88012B05D1CD
:1022F0003B89DAB2FB681B681A6121E03B891B0A43
:102300009BB2DAB2FB681B681A617A6A396AF868AC
:1023100000F082F90346002B0DD0FB681B6C042BE8
:1023200007D1FB681B681A68FB681B6842F40072DF
:102330001A60012350E03B89DAB2FB681B681A611E
:102340007A6A396AF86800F067F90346002B0DD005
:10235000FB681B6C042B07D1FB681B681A68FB68C1
:102360001B6842F400721A60012335E0FB681B68A9
:102370001A68FB681B6842F480721A607B6A0093DB
:102380003B6A00224FF00111F86800F02BF8034679
:10239000002B0DD0FB681B681B6803F48073B3F53A
:1023A000807F03D1FB684FF400721A64032313E0AB
:1023B0007B89DBB243F00103DAB2FB681B681A6168
:1023C0007B6A3A6A0649F86800F086F80346002BF3
:1023D00001D0012300E0002318461837BD4680BD18
:1023E0000200010080B584B000AFF860B9603B60C6
:1023F0001346FB7148E03B68B3F1FF3F44D001F066
:102400000DFA0246BB69D31A3A689A4202D33B6876
:10241000002B39D1BB681B0CDBB2012B0DD1FB6843
:102420001B685B69DA43BB6813409BB2002B0CBF8F
:1024300001230023DBB21A460CE0FB681B689B6992
:10244000DA43BB6813409BB2002B0CBF012300236F
:10245000DBB21A46FB799A4216D1FB6800221A6356
:10246000FB68202283F83D20FB68002283F83E2091
:10247000FB681B6C43F02002FB681A64FB680022B7
:1024800083F83C20012323E0BB681B0CDBB2012B4B
:102490000DD1FB681B685B69DA43BB6813409BB2D4
:1024A000002B0CBF01230023DBB21A460CE0FB68B3
:1024B0001B689B69DA43BB6813409BB2002B0CBFBF
:1024C00001230023DBB21A46FB799A4293D0002302
:1024D00018461037BD4680BD80B584B000AFF860A7
:1024E000B9607A603B6071E0FB681B685B6903F46C
:1024F0008063B3F5806F23D1FB681B681A68FB68A3
:102500001B6842F400721A60FB681B686FF48062FB
:102510005A61FB6800221A63FB68202283F83D2081
:10252000FB68002283F83E20FB681B6C43F004022A
:10253000FB681A64FB68002283F83C20012367E0F3
:102540007B68B3F1FF3F41D001F068F902463B6878
:10255000D31A7A689A4202D37B68002B36D1BB68C3
:102560001B0CDBB2012B0CD1FB681B685B69DA43E7
:10257000BB6813409BB2002B14BF01230023DBB2C6
:102580000BE0FB681B689B69DA43BB6813409BB296
:10259000002B14BF01230023DBB2002B16D0FB68F5
:1025A00000221A63FB68202283F83D20FB6800228A
:1025B00083F83E20FB681B6C43F02002FB681A6422
:1025C000FB68002283F83C20012321E0BB681B0C40
:1025D000DBB2012B0CD1FB681B685B69DA43BB687B
:1025E00013409BB2002B14BF01230023DBB20BE08E
:1025F000FB681B689B69DA43BB6813409BB2002BE6
:1026000014BF01230023DBB2002B7FF46DAF002346
:1026100018461037BD4680BD80B584B000AFF86065
:10262000B9607A6034E0F86800F0E3F80346002B04
:1026300001D0012334E0BB68B3F1FF3F28D001F0A3
:10264000EDF802467B68D31ABA689A4202D3BB6897
:10265000002B1DD1FB681B685B6903F08003802B96
:1026600016D0FB6800221A63FB68202283F83D2005
:10267000FB68002283F83E20FB681B6C43F02002BD
:10268000FB681A64FB68002283F83C20012307E002
:10269000FB681B685B6903F08003802BC3D10023B8
:1026A00018461037BD4680BD80B584B000AFF860D5
:1026B000B9607A6034E0F86800F09BF80346002BBC
:1026C00001D0012334E0BB68B3F1FF3F28D001F013
:1026D000A5F802467B68D31ABA689A4202D3BB684F
:1026E000002B1DD1FB681B685B6903F00403042BFE
:1026F00016D0FB6800221A63FB68202283F83D2075
:10270000FB68002283F83E20FB681B6C43F020022C
:10271000FB681A64FB68002283F83C20012307E071
:10272000FB681B685B6903F00403042BC3D100231F
:1027300018461037BD4680BD80B584B000AFF86044
:10274000B9607A6049E0FB681B685B6903F01003BD
:10275000102B19D1FB681B686FF010025A61FB68DF
:1027600000221A63FB68202283F83D20FB680022C8
:1027700083F83E20FB681A6CFB681A64FB68002231
:1027800083F83C20012330E001F048F802467B68E2
:10279000D31ABA689A4202D3BB68002B1DD1FB68DA
:1027A0001B685B6903F04003402B16D0FB680022D6
:1027B0001A63FB68202283F83D20FB68002283F81F
:1027C0003E20FB681B6C43F02002FB681A64FB6828
:1027D000002283F83C20012307E0FB681B685B694B
:1027E00003F04003402BAED1002318461037BD46FE
:1027F00080BD80B483B000AF78607B681B685B6984
:1028000003F48063B3F5806F1BD17B681B686FF4A2
:1028100080625A617B6800221A637B68202283F8F9
:102820003D207B68002283F83E207B681B6C43F0D0
:1028300004027B681A647B68002283F83C20012331
:1028400000E0002318460C37BD465DF8047B704756
:1028500080B483B000AF786039607B6893F83D3016
:10286000DBB2202B29D17B68242283F83D207B68B2
:102870001B681A687B681B6822F001021A607B687B
:102880001B685A6A7B681B6822F010025A627B68D8
:102890001B68596A7B681B683A680A435A627B68FE
:1028A0001B681A687B681B6842F001021A607B682B
:1028B000202283F83D20002300E0022318460C3735
:1028C000BD465DF8047B704780B485B000AF78608A
:1028D00039600023FB817B6893F83D30DBB2202B0D
:1028E0002AD17B68242283F83D207B681B681A6804
:1028F0007B681B6822F001021A607B681B685B6AB8
:10290000FB81FB8923F00F03FB813B689AB2FB89B3
:102910001343FB817B681B68FA895A627B681B68DA
:102920001A687B681B6842F001021A607B682022EB
:1029300083F83D20002300E0022318461437BD46EB
:102940005DF8047B7047000080B586B000AF78600A
:102950007B68002B01D1012367E27B681B6803F0D1
:102960000103002B75D0884B9B6803F00C03042BEC
:102970000CD0854B9B6803F00C03082B12D1824BC3
:102980005B6803F48003B3F5800F0BD17E4B1B68AB
:1029900003F40033002B5BD07B685B68002B57D1BE
:1029A000012342E27B685B68B3F5803F06D1764B3A
:1029B0001B68754A43F4803313601DE07B685B68D5
:1029C000B3F5A02F0CD1704B1B686F4A43F48023E2
:1029D00013606D4B1B686C4A43F4803313600BE04B
:1029E000694B1B68684A23F480331360664B1B688D
:1029F000654A23F4802313607B685B68002B13D047
:102A000000F00CFF386108E000F008FF02463B6967
:102A1000D31A642B01D9032307E25B4B1B6803F431
:102A20000033002BF0D014E000F0F8FE386108E02D
:102A300000F0F4FE02463B69D31A642B01D903234C
:102A4000F3E1514B1B6803F40033002BF0D100E09D
:102A500000BF7B681B6803F00203002B63D04A4B66
:102A60009B6803F00C03002B0BD0474B9B6803F0D3
:102A70000C03082B1CD1444B5B6803F48003002B30
:102A800016D1414B1B6803F00203002B05D07B6875
:102A9000DB68012B01D00123C7E13B4B1B6823F00E
:102AA000F8027B681B69DB00374913430B603AE08F
:102AB0007B68DB68002B20D0344B01221A6000F0C9
:102AC000ADFE386108E000F0A9FE02463B69D31A6A
:102AD000022B01D90323A8E12B4B1B6803F002034F
:102AE000002BF0D0284B1B6823F0F8027B681B6991
:102AF000DB00254913430B6015E0244B00221A60CC
:102B000000F08CFE386108E000F088FE02463B6968
:102B1000D31A022B01D9032387E11B4B1B6803F057
:102B20000203002BF0D17B681B6803F00803002B25
:102B300036D07B685B69002B16D0154B01221A60DA
:102B400000F06CFE386108E000F068FE02463B6968
:102B5000D31A022B01D9032367E10B4B5B6F03F000
:102B60000203002BF0D01BE0094B00221A6000F09A
:102B700055FE38610EE000F051FE02463B69D31A63
:102B8000022B07D9032350E10038024000004742DE
:102B9000800E4742884B5B6F03F00203002BEAD1A3
:102BA0007B681B6803F00403002B00F09780002370
:102BB000FB75814B1B6C03F08053002B0FD100235E
:102BC000BB607D4B1B6C7C4A43F0805313647A4B93
:102BD0001B6C03F08053BB60BB680123FB75774B14
:102BE0001B6803F48073002B18D1744B1B68734A65
:102BF00043F48073136000F011FE386108E000F0C8
:102C00000DFE02463B69D31A022B01D903230CE1C6
:102C10006A4B1B6803F48073002BF0D07B689B68C1
:102C2000012B06D1644B1B6F634A43F0010313670A
:102C30001CE07B689B68052B0CD15F4B1B6F5E4AC9
:102C400043F0040313675C4B1B6F5B4A43F00103C3
:102C500013670BE0584B1B6F574A23F001031367B0
:102C6000554B1B6F544A23F0040313677B689B6822
:102C7000002B15D000F0D2FD38610AE000F0CEFD47
:102C800002463B69D31A41F28832934201D90323A9
:102C9000CBE0494B1B6F03F00203002BEED014E096
:102CA00000F0BCFD38610AE000F0B8FD02463B6967
:102CB000D31A41F28832934201D90323B5E03E4B47
:102CC0001B6F03F00203002BEED1FB7D012B05D11E
:102CD000394B1B6C384A23F0805313647B689B6923
:102CE000002B00F0A180344B9B6803F00C03082BF1
:102CF0005CD07B689B69022B41D1314B00221A606A
:102D000000F08CFD386108E000F088FD02463B6968
:102D1000D31A022B01D9032387E0274B1B6803F04A
:102D20000073002BF0D17B68DA697B681B6A1A4359
:102D30007B685B6A9B011A437B689B6A5B08013B6B
:102D40001B041A437B68DB6A1B061B4913434B6059
:102D50001B4B01221A6000F061FD386108E000F0B1
:102D60005DFD02463B69D31A022B01D903235CE0C7
:102D7000114B1B6803F00073002BF0D054E0104B94
:102D800000221A6000F04AFD386108E000F046FDBC
:102D900002463B69D31A022B01D9032345E0064BB7
:102DA0001B6803F00073002BF0D13DE07B689B694A
:102DB000012B07D1012338E00038024000700040A9
:102DC000600047421B4B5B68FB607B689B69012B83
:102DD00028D0FB6803F480027B68DB699A4221D12A
:102DE000FB6803F03F027B681B6A9A421AD1FA68BB
:102DF00047F6C07313407A68526A9201934211D128
:102E0000FB6803F440327B689B6A5B08013B1B0450
:102E10009A4207D1FB6803F070627B68DB6A1B068D
:102E20009A4201D0012300E0002318461837BD461E
:102E300080BD00BF0038024080B584B000AF78602C
:102E400039607B68002B01D10123CCE0684B1B6803
:102E500003F00F033A689A420CD9654B3A68D2B234
:102E60001A70634B1B6803F00F033A689A4201D053
:102E70000123B8E07B681B6803F00203002B20D01D
:102E80007B681B6803F00403002B05D0594B9B683B
:102E9000584A43F4E05393607B681B6803F00803CF
:102EA000002B05D0534B9B68524A43F46043936018
:102EB000504B9B6823F0F0027B689B684D4913439D
:102EC0008B607B681B6803F00103002B44D07B6898
:102ED0005B68012B07D1474B1B6803F40033002BC1
:102EE00019D101237FE07B685B68022B03D07B68EC
:102EF0005B68032B07D13F4B1B6803F00073002B6B
:102F000009D101236FE03B4B1B6803F00203002B48
:102F100001D1012367E0374B9B6823F003027B68F4
:102F20005B68344913438B6000F078FCF8600AE07A
:102F300000F074FC0246FB68D31A41F288329342D7
:102F400001D903234FE02B4B9B6803F00C027B68F5
:102F50005B689B009A42EBD1254B1B6803F00F0383
:102F60003A689A420CD2224B3A68D2B21A70204B7D
:102F70001B6803F00F033A689A4201D0012332E044
:102F80007B681B6803F00403002B08D0194B9B6877
:102F900023F4E0527B68DB68164913438B607B683F
:102FA0001B6803F00803002B09D0124B9B6823F425
:102FB00060427B681B69DB000E4913438B6000F0A5
:102FC00021F802460B4B9B681B0903F00F030A49CB
:102FD000CB5C22FA03F3094A1360094B1B681846BD
:102FE00000F0D8FB002318461037BD4680BD00BF57
:102FF000003C024000380240E87000080800002051
:10300000000000202DE9B04F90B000AF00237B639B
:103010000023FB6300233B630023BB63594B9B6886
:1030200003F00C03082B0DD0082B00F2A180002B1D
:1030300002D0042B03D09BE0534BBB639BE0534B6C
:10304000BB6398E04F4B5B6803F03F037B634D4BE2
:103050005B6803F48003002B28D04A4B5B689B0914
:1030600000223B627A623B6AC3F308000021474BAF
:1030700003FB01F2002300FB03F31344434AA0FBCC
:103080000212FA620A46BA62FA6A1344FB627B6B66
:103090000022BB61FA61D7E90623D7E90A01FDF7EF
:1030A000C3FD02460B461346FB6353E0354B5B689A
:1030B0009B0900223B617A613B69C3F3080A4FF028
:1030C000000B52465B464FF000004FF000015901E3
:1030D00041EAD261500102460B46B2EB0A0863EBAB
:1030E0000B094FF000024FF000034FEA891343EA47
:1030F00098634FEA8812B2EB080463EB09054FF0BE
:1031000000024FF00003EB0043EA5473E200144660
:103110001D4614EB0A033B6045EB0B037B604FF04D
:1031200000024FF00003D7E9004529468B022146F3
:1031300043EA915321468A02104619467B6B0022CE
:10314000BB60FA60D7E90223FDF76EFD02460B462D
:103150001346FB630B4B5B681B0C03F0030301334B
:103160005B003B63FA6B3B6BB2FBF3F3BB6302E0C8
:10317000054BBB6300BFBB6B18464037BD46BDE87F
:10318000B08F00BF003802400024F40040787D0179
:1031900080B400AF034B1B681846BD465DF8047B46
:1031A000704700BF0800002080B500AFFFF7F0FFB8
:1031B0000246054B9B689B0A03F007030349CB5C5F
:1031C00022FA03F3184680BD00380240F870000868
:1031D00080B500AFFFF7DCFF0246054B9B685B0B39
:1031E00003F007030349CB5C22FA03F3184680BDC2
:1031F00000380240F870000880B489B000AF7860F1
:10320000396000237B6100233B610023BB61002305
:10321000FB6177E10122FB6902FA03F37B613B6802
:103220001B687A6913403B613A697B699A4240F0B6
:1032300066813B685B6803F00303012B05D03B68A4
:103240005B6803F00303022B30D17B689B68BB6192
:10325000FB695B00032202FA03F3DB43BA69134004
:10326000BB613B68DA68FB695B0002FA03F3BA6989
:103270001343BB617B68BA699A607B685B68BB611A
:103280000122FB6902FA03F3DB43BA691340BB6115
:103290003B685B681B0903F00102FB6902FA03F358
:1032A000BA691343BB617B68BA695A603B685B6863
:1032B00003F00303032B17D07B68DB68BB61FB695A
:1032C0005B00032202FA03F3DB43BA691340BB61DC
:1032D0003B689A68FB695B0002FA03F3BA6913431F
:1032E000BB617B68BA69DA603B685B6803F0030323
:1032F000022B23D1FB69DA087B68083253F82230AD
:10330000BB61FB6903F007039B000F2202FA03F382
:10331000DB43BA691340BB613B681A69FB6903F080
:1033200007039B0002FA03F3BA691343BB61FB690D
:10333000DA087B680832B96943F822107B681B6899
:10334000BB61FB695B00032202FA03F3DB43BA694A
:103350001340BB613B685B6803F00302FB695B00E1
:1033600002FA03F3BA691343BB617B68BA691A6056
:103370003B685B6803F44033002B00F0C0800023FF
:10338000FB60664B5B6C654A43F480435364634B5C
:103390005B6C03F48043FB60FB68614AFB699B083C
:1033A000023352F82330BB61FB6903F003039B0037
:1033B0000F2202FA03F3DB43BA691340BB617B6857
:1033C000584A934237D07B68574A934231D07B6842
:1033D000564A93422BD07B68554A934225D07B684E
:1033E000544A93421FD07B68534A934219D07B685A
:1033F000524A934213D07B68514A93420DD07B6866
:10340000504A934207D07B684F4A934201D1092327
:1034100012E00A2310E008230EE007230CE0062345
:103420000AE0052308E0042306E0032304E0022366
:1034300002E0012300E00023FA6902F00302920097
:103440009340BA691343BB613549FB699B0802335A
:10345000BA6941F823203D4B9B68BB613B69DB4364
:10346000BA691340BB613B685B6803F48013002BAF
:1034700003D0BA693B691343BB61344ABB699360AB
:10348000324BDB68BB613B69DB43BA691340BB610C
:103490003B685B6803F40013002B03D0BA693B69F7
:1034A0001343BB61294ABB69D360284B5B68BB618E
:1034B0003B69DB43BA691340BB613B685B6803F45B
:1034C0000033002B03D0BA693B691343BB611F4A29
:1034D000BB6953601D4B1B68BB613B69DB43BA6929
:1034E0001340BB613B685B6803F48033002B03D05F
:1034F000BA693B691343BB61144ABB691360FB693A
:103500000133FB61FB690F2B7FF684AE00BF00BF68
:103510002437BD465DF8047B704700BF0038024089
:103520000038014000000240000402400008024050
:10353000000C02400010024000140240001802403B
:10354000001C02400020024000240240003C0140D8
:1035500080B483B000AF78600B467B8013467B70ED
:103560007B78002B03D07A887B689A6103E07B88A4
:103570001A047B689A6100BF0C37BD465DF8047B76
:103580007047000080B485B000AF78607B6803F0BE
:103590000703FB600C4BDB68BB60BA684FF6FF03A8
:1035A0001340BB60FB681A02BB68134343F0BF6360
:1035B00043F40033BB60044ABB68D36000BF1437D8
:1035C000BD465DF8047B704700ED00E080B400AFBD
:1035D000044BDB681B0A03F007031846BD465DF881
:1035E000047B704700ED00E080B483B000AF034679
:1035F0003960FB7197F90730002B0ADB3B68DAB2C0
:103600000C4997F907301201D2B20B4483F800231A
:103610000AE03B68DAB20849FB7903F00F03043B88
:103620001201D2B20B441A7600BF0C37BD465DF8CA
:10363000047B704700E100E000ED00E080B489B059
:1036400000AFF860B9607A60FB6803F00703FB61C4
:10365000FB69C3F10703042B28BF0423BB61FB698B
:103660000433062B02D9FB69033B00E000237B6196
:103670004FF0FF32BB6902FA03F3DA43BB681A402A
:103680007B699A404FF0FF317B6901FA03F3D9431C
:103690007B680B40134318462437BD465DF8047B16
:1036A0007047000080B582B000AF78607B68013B56
:1036B000B3F1807F01D301230FE00A4A7B68013B0D
:1036C00053600F214FF0FF30FFF78EFF054B0022B4
:1036D0009A60044B07221A60002318460837BD463B
:1036E00080BD00BF10E000E080B582B000AF786020
:1036F0007868FFF747FF00BF0837BD4680BD80B53B
:1037000086B000AF0346B9607A60FB7300237B612B
:10371000FFF75CFF78617A68B9687869FFF78EFF18
:10372000024697F90F3011461846FFF75DFF00BFBC
:103730001837BD4680BD80B582B000AF786078682C
:10374000FFF7B0FF034618460837BD4680BD0000AE
:1037500080B500AF0E4B1B680D4A43F40073136035
:103760000B4B1B680A4A43F480631360084B1B68C9
:10377000074A43F4807313600320FFF7B5FF0F205F
:1037800000F008F8FDF768FC0023184680BD00BF74
:10379000003C024080B582B000AF7860124B1A68DE
:1037A000124B1B7819464FF47A73B3FBF1F3B2FB5B
:1037B000F3F31846FFF7BFFF0346002B01D00123A8
:1037C0000EE07B680F2B0AD8002279684FF0FF309B
:1037D000FFF795FF064A7B681360002300E0012392
:1037E00018460837BD4680BD0800002004000020B0
:1037F0000000002080B400AF064B1B781A46064B31
:103800001B681344044A136000BFBD465DF8047B87
:10381000704700BF04000020A402002080B400AF65
:10382000034B1B681846BD465DF8047B704700BF1C
:10383000A402002080B584B000AF7860FFF7EEFFEF
:10384000B8607B68FB60FB68B3F1FF3F05D00A4BB3
:103850001B781A46FB681344FB6000BFFFF7DEFFCE
:103860000246BB68D31AFA689A42F7D800BF00BF75
:103870001037BD4680BD00BF0400002080B400AFFB
:10388000064BD3F88830054A43F47003C2F88830F9
:1038900000BFBD465DF8047B704700BF00ED00E04F
:1038A00080B582B000AF78607B68002B01D1012326
:1038B00042E07B6893F84130DBB2002B06D17B6895
:1038C000002283F840207868FDF736FC7B682422CC
:1038D00083F841207B681B68DA687B681B6822F4E8
:1038E0000052DA60786800F073F97B681B681A6927
:1038F0007B681B6822F490421A617B681B685A69D6
:103900007B681B6822F02A025A617B681B68DA68B0
:103910007B681B6842F40052DA607B6800225A64BC
:103920007B68202283F841207B68202283F8422094
:103930007B6800225A63002318460837BD4680BDC5
:1039400080B58AB002AFF860B9603B601346FB8077
:1039500000237B61FB6893F84130DBB2202B75D1EB
:10396000BB68002B02D0FB88002B01D101236EE045
:10397000FB6800225A64FB68212283F84120FFF78C
:103980004DFF7861FB68FA889A84FB68FA88DA84CC
:10399000FB689B68B3F5805F08D1FB681B69002B4F
:1039A00004D10023FB61BB68BB6103E0BB68FB6122
:1039B0000023BB612EE03B6800937B6900228021DD
:1039C000F86800F048F80346002B05D0FB68202279
:1039D00083F8412003233AE0FB69002B0BD1BB693C
:1039E0001B881A46FB681B68C2F308025A60BB6951
:1039F0000233BB6107E0FB691A78FB681B685A60F9
:103A0000FB690133FB61FB68DB8C9BB2013B9AB223
:103A1000FB68DA84FB68DB8C9BB2002BCBD13B6864
:103A200000937B6900224021F86800F014F80346F7
:103A3000002B05D0FB68202283F84120032306E0F9
:103A4000FB68202283F84120002300E0022318466F
:103A50002037BD4680BD80B586B000AFF860B96044
:103A60003B601346FB713BE03B6AB3F1FF3F37D04D
:103A7000FFF7D4FE02463B68D31A3A6A9A4202D351
:103A80003B6A002B01D103233AE0FB681B68DB682B
:103A900003F00403002B23D0BB68802B20D0BB682D
:103AA000402B1DD0FB681B681B6803F00803082B24
:103AB00016D100237B61FB681B681B687B61FB6878
:103AC0001B685B687B617B69F86800F01DF8FB6828
:103AD00008225A64FB68002283F8402001230FE08B
:103AE000FB681B681A68BB681340BA689A420CBF2F
:103AF00001230023DBB21A46FB799A42B4D000239B
:103B000018461837BD4680BD80B495B000AF7860C8
:103B10007B681B680C337B637B6B53E8003F3B6324
:103B20003B6B23F49073FB647B681B680C33FA6C6B
:103B30003A64FB63F96B3A6C41E80023BB63BB6BEF
:103B4000002BE5D17B681B6814333B623B6A53E86A
:103B5000003FFB61FB6923F00103BB647B681B68CA
:103B60001433BA6CFA62BB62B96AFA6A41E800239C
:103B70007B627B6A002BE5D17B681B6B012B19D123
:103B80007B681B680C33FB60FB6853E8003FBB603D
:103B9000BB6823F010037B647B681B680C337A6C72
:103BA000BA617B617969BA6941E800233B613B698D
:103BB000002BE5D17B68202283F842207B6800221D
:103BC0001A6300BF5437BD465DF8047B70470000A0
:103BD0002DE9B04FC0B000AFC7F8F400D7F8F4300B
:103BE0001B681B6923F44050D7F8F430D968D7F824
:103BF000F4301A6840EA01031361D7F8F4309A6888
:103C0000D7F8F4301B691A43D7F8F4305B691A43CC
:103C1000D7F8F430DB691343C7F8F830D7F8F4303D
:103C20001B68DB6823F4164121F00C01D7F8F4304F
:103C30001A68D7F8F8300B43D360D7F8F4301B6814
:103C40005B6923F44070D7F8F4309969D7F8F43001
:103C50001A6840EA01035361D7F8F4301A688F4BB1
:103C60009A4205D0D7F8F4301A688D4B9A4204D1A5
:103C7000FFF7AEFAC7F8FC0003E0FFF795FAC7F8C4
:103C8000FC00D7F8F430DB69B3F5004F40F00C814D
:103C9000D7F8FC300022C7F8E830C7F8EC20D7E9A5
:103CA0003A4522462B469118B9655B41FB65D7E939
:103CB0001623214612EB0108294643EB01094FF078
:103CC00000024FF000034FEAC90343EA58734FEA7A
:103CD000C80290469946234618EB0303C7F8E03024
:103CE0002B4649EB0303C7F8E430D7F8F4305B68A0
:103CF0000022C7F8D830C7F8DC20D7E936120B46C7
:103D0000DB183B65134642EB03037B65D7E91423BD
:103D1000D7E93801FCF788FF02460B46614BA3FB4D
:103D200002235B091C01D7F8FC300022C7F8D03011
:103D3000C7F8D420D7E9348942464B469118B96474
:103D40005B41FB64D7E91223414612EB010A494665
:103D500043EB010B4FF000024FF000034FEACB039F
:103D600043EA5A734FEACA0292469B4643461AEB0D
:103D70000303C7F8C8304B464BEB0303C7F8CC30FE
:103D8000D7F8F4305B680022C7F8C030C7F8C42009
:103D9000D7E930120B46DB183B64134642EB0303B2
:103DA0007B64D7E91023D7E93201FCF73DFF0246D7
:103DB0000B4611463B4BA3FB01235B09642202FB2C
:103DC00003F3CB1ADB0003F13202364BA3FB0223D1
:103DD0005B095B0003F4F8731C44D7F8FC30002245
:103DE000C7F8B830C7F8BC20D7E92E8942464B4601
:103DF0009118B9635B41FB63D7E90E234146511823
:103E0000396349464B417B634FF000024FF000039A
:103E1000D7E90CAB5946CB00514643EA51735146A2
:103E2000CA0010461946034642469B18C7F8B030F0
:103E30004B460A4642EB0303C7F8B430D7F8F430D8
:103E40005B680022C7F8A830C7F8AC20D7E92A126F
:103E50000B46DB18BB62134642EB0303FB62D7E958
:103E60000A23D7E92C01FCF7DFFE02460B460D4B77
:103E7000A3FB02135B09642101FB03F3D31ADB00EC
:103E80003233084AA2FB03235B0903F00702D7F889
:103E9000F4301B6822449A6006E100BF0010014024
:103EA000001401401F85EB51D7F8FC300022C7F801
:103EB000A030C7F8A420D7E9288942464B4691187C
:103EC00039625B417B62D7E9082341465418494671
:103ED00043EB01054FF000024FF00003EB0043EA13
:103EE0005473E20014461D464346E318C7F8983061
:103EF0004B4645EB0303C7F89C30D7F8F4305B68BA
:103F00000022C7F89030C7F894204FF000024FF01D
:103F10000003D7E9244529468B00214643EA9173E3
:103F200021468A00D7E92601FCF77EFE02460B46B1
:103F3000604BA3FB02235B091C01D7F8FC30002275
:103F4000C7F88830C7F88C20D7E9228942464B460B
:103F50009118B9615B41FB61D7E9062341465118CD
:103F6000396149464B417B614FF000024FF000033D
:103F7000D7E904AB5946CB00514643EA5173514649
:103F8000CA0010461946034642469B18C7F88030BF
:103F90004B460A4642EB0303C7F88430D7F8F430A7
:103FA0005B680022BB67FA674FF000024FF0000326
:103FB000D7E91E8949468B00414643EA9173414641
:103FC0008A00D7E92001FCF72FFE02460B46114676
:103FD000384BA3FB01235B09642202FB03F3CB1ADA
:103FE0001B013233334AA2FB03235B0903F0F003C6
:103FF0001C44D7F8FC3000223B677A67D7E91C895C
:1040000042464B469118B9605B41FB60D7E90223F9
:1040100041465118396049464B417B604FF00002E0
:104020004FF00003D7E900AB5946CB00514643EAB5
:1040300051735146CA0010461946034642469B1822
:10404000BB664B460A4642EB0303FB66D7F8F430E7
:104050005B6800223B667A664FF000024FF0000377
:10406000D7E9188949468B00414643EA9173414696
:104070008A00D7E91A01FCF7D7FD02460B460D4B23
:10408000A3FB02135B09642101FB03F3D31A1B0199
:104090003233084AA2FB03235B0903F00F02D7F86F
:1040A000F4301B6822449A6000BF07F58077BD4654
:1040B000BDE8B08F1F85EB51DFF834D0FFF7DEFB92
:1040C0000C480D490D4A002302E0D458C450043373
:1040D000C4188C42F9D30A4A0A4C002301E0136049
:1040E0000432A242FBD300F0DDFDFCF7FDFD70477A
:1040F0000000032000000020D40100208474000888
:10410000D4010020F8030020FEE72DE9FF4757EC1B
:10411000106B002F0C4619463B46BBBF07F100430E
:104120001F4600232D230B700D9BDDF830A0914618
:1041300023F02008BCBF32461646B8F1460F05D022
:10414000B8F1450F00D10134022100E0032103AB97
:10415000019302AB009347EC106B5346224600F0EC
:104160005FFEB8F1470F054619D119F0010F0ED0C7
:1041700000EB04090022002330463946FCF794FC8A
:1041800008B1CDF80C903022039B4B451ED3039B06
:104190000E9A5B1B2846136004B0BDE8F087B8F1A7
:1041A000460F00EB0409E5D10378302B0AD1002239
:1041B000002330463946FCF777FC18B9C4F10104F6
:1041C000CAF80040DAF800309944D3E7591C03914B
:1041D0001A70D9E7F7B50029BABF49422D232B231E
:1041E00009290270437029DD0DF107031D460A27D6
:1041F0001A46B1FBF7F607FB1614303402F8014CEF
:104200000C46632C03F1FF333146F1DC3031941E50
:1042100003F8011C411C2346AB420AD30DF10903EC
:104220009B1AAC4288BF002302330344181A03B020
:10423000F0BD13F8016B01F8016FEDE73023303169
:104240008370C170031DF1E72DE9F04F8DB00C466E
:10425000DDF8588016461F46054600F0D9FC036875
:1042600004931846FBF7F4FF00230A93D8F80030B4
:104270000590073323F0070303F1080294F818A010
:10428000D4F800B0C8F80020D3E9008929F0004331
:104290000793CDF81880C4E91289DDE906019C4B2B
:1042A0004FF0FF32FCF732FC70BBDDE90601984BA2
:1042B0004FF0FF32FCF70CFC30BB002200234046DD
:1042C0004946FCF7FBFB10B12D2384F84330914A9B
:1042D000914BBAF1470F8CBF904698460323236158
:1042E0002BF0040323604FF00009009733460BAA1C
:1042F0002146284600F0D2F9013040F08D804FF081
:10430000FF300DB0BDE8F08F42464B46404649466F
:10431000FCF7FCFB40B14B46002BBCBF2D2384F8BF
:1043200043307E4A7E4BD4E763680AF0DF02069290
:104330005A1C3BD1062363604BF480620023226049
:1043400003930AABCDE901A309AB0093616849EC83
:10435000108B0DF123032846FFF7D7FE069B099922
:10436000472B804629D1C81C02DB6368994241DD96
:10437000AAF1020A5FFA8AFA0139524604F15000A2
:104380000991FFF727FF0A9A1318012A8146236132
:1043900002DC2268D20701D5013323619DF8233066
:1043A000002BA2D02D2384F843309EE7069A472A9B
:1043B000C2D1002BC0D10123BDE7BAF1650FDBD913
:1043C000BAF1660F18D1002963680BDD216113B9BA
:1043D0002268D00702D501330B442361A1654FF059
:1043E0000009DBE713B92268D20701D50233F4E7ED
:1043F0000123F2E74FF0670A0A9B994205DB236825
:104400002161D807EAD54B1CE7E70029D4BFC1F1E9
:10441000020201221344E0E723685A0507D4236906
:10442000424631462846B84701302BD167E7BAF1FA
:10443000650F40F2DD80D4E9120100220023FCF771
:1044400033FB002833D0374A012331462846B8478A
:1044500001303FF454AFDDE90938434502DB2368FE
:10446000D8070FD5DDE9042331462846B847013087
:104470003FF445AF4FF0000908F1FF3804F11A0A84
:10448000C84509DC23689B0700F10381E0680B9BAA
:104490009842B8BF184634E70123524631462846B1
:1044A000B84701303FF42BAF09F10109E8E7099B58
:1044B000002B39DC1B4A012331462846B84701301E
:1044C0003FF41DAFDDE9093959EA030302D123683E
:1044D000D907D7D5DDE9042331462846B84701304E
:1044E0003FF40DAF4FF0000A04F11A0B099B5B4239
:1044F000534501DC4B4693E701235A463146284693
:10450000B84701303FF4FBAE0AF1010AEEE700BF05
:10451000FFFFEF7F04710008007100080C710008B4
:104520000871000810710008A36DDDF828A053453C
:10453000A8BF5346002B994636DC4FF0000B29EA02
:10454000E97904F11A02A36D0693A3EB09035B4515
:1045500031DC099B9A453ADC2368DA0737D4099B9A
:10456000AAEB0309069BAAEB03039945A8BF99464A
:10457000B9F1000F33DC4FF0000829EAE97904F1C2
:104580001A0B099BAAEB0303A3EB090343457FF72F
:1045900079AF01235A4631462846B84701303FF4E7
:1045A000AEAE08F10108ECE7424631462846B8476E
:1045B0000130C2D1A3E60123314628460692B8470E
:1045C00001303FF49CAE069A0BF1010BBBE7DDE92D
:1045D000042331462846B8470130C0D18FE6069AF9
:1045E0004B46424431462846B8470130C3D186E69F
:1045F000DDF828A0BAF1010F01DCDB0736D5012375
:10460000424631462846B84701303FF478AEDDE9EE
:10461000042331462846B84701303FF470AED4E950
:104620001201002200230AF1FF3AFCF73DFAC0B95B
:10463000534608F1010231462846B84701300CD1F3
:104640005DE601235A4631462846B84701303FF41B
:1046500056AE08F10108D045F3DB4B4604F1500299
:10466000DFE64FF0000804F11A0BF4E7012342469D
:10467000E1E701234A4631462846B84701303FF476
:104680003EAE08F10108E3680B995B1A4345F0DC84
:10469000FCE64FF0000804F11909F4E72DE9F047B2
:1046A000164698468A680B69DDF820909342B8BF99
:1046B0001346336091F8432007460C460AB1013394
:1046C00033602368990642BF33680233336025683C
:1046D00015F0060506D104F1190AE36832689B1A41
:1046E000AB4226DC94F843302268003B18BF01231C
:1046F00092062BD404F1430241463846C8470130A4
:104700001ED02368226903F00603042B02BFE5686C
:104710003368ED1AA3680CBF25EAE57500259342BE
:10472000C4BF9B1AED1800261A34B5421AD10020D6
:1047300008E00123524641463846C847013003D1BC
:104740004FF0FF30BDE8F0870135C6E7E1185A1C8D
:10475000302081F84300224494F8451082F8431039
:104760000233C7E70123224641463846C847013095
:10477000E6D00136D9E700002DE9FF470F7E0C9EF9
:10478000782F914680460C469A4601F1430207D89D
:10479000622F0AD8002F00F0D180582F00F0B88087
:1047A00004F1420684F842703AE0A7F16303152B46
:1047B000F6D801A151F823F0114800082548000857
:1047C000A1470008A1470008A1470008A147000829
:1047D00025480008A1470008A1470008A147000894
:1047E000A1470008234900084F480008DD48000899
:1047F000A1470008A147000845490008A147000853
:104800004F480008A1470008A1470008E5480008F4
:1048100033681A1D1B68326004F1420684F8423086
:1048200001239CE033682068191D3160060601D51C
:104830001D6803E04506FBD5B3F90050002D03DAEF
:104840002D236D4284F8433058480A2311E0216833
:104850003368080653F8045B02D4490648BFADB27A
:104860006F2F5248336014BF0A230823002184F8B5
:1048700043106668A660002E05DB21682E4321F0F8
:10488000040121604BD01646B5FBF3F103FB115731
:10489000C75D06F8017D2F46BB420D46F4D9082BB3
:1048A0000BD12368DF0708D5236961689942DEBF11
:1048B000302306F8013C06F1FF36921B2261CDF849
:1048C00000A04B4603AA21464046FFF7E7FE013011
:1048D0004AD14FF0FF3004B0BDE8F087236843F0C1
:1048E000200323603248782784F8457023683168B4
:1048F0001F0651F8045B02D45F0648BFADB23160B9
:10490000D90744BF43F0200323601DB11023ADE756
:104910002648E9E7236823F020032360F6E71646DC
:10492000BDE7336825686169181D30602E061B6875
:1049300001D5196002E06806FBD5198000232361C8
:104940001646BCE733681A1D32601E686268002193
:104950003046FBF72DFC08B1801B60606368236163
:10496000002384F84330AAE723693246494640468B
:10497000D0470130ADD023689B0713D4E068039B78
:104980009842B8BF1846A6E701233246494640463A
:10499000D04701309DD00135E36803995B1AAB42E3
:1049A000F2DCEBE7002504F11906F5E712710008C7
:1049B00023710008002310B50446C0E90033C0E9A4
:1049C0000433836081814366C28183611946082272
:1049D0005C3000F014F90D4B63620D4BA3620D4B7C
:1049E000E3620D4B23630D4B24629C4206D003F11E
:1049F0006802944202D0D0339C4205D104F15800A1
:104A0000BDE8104000F072B910BD00BF794B00083E
:104A10009B4B0008D34B0008F74B0008A80200206E
:104A2000024A0349034800F069B800BF0C000020A7
:104A3000416600081C00002041680C4B994210B5EB
:104A4000044601D001F0FCFDA168094B994202D057
:104A5000204601F0F5FDE168064B994204D020465E
:104A6000BDE8104001F0ECBD10BD00BFA802002061
:104A7000100300207803002010B50B4B0B4C0C4AA0
:104A80001A60204600220421FFF794FF04F1680019
:104A900001220921FFF78EFF04F1D0000222BDE8B8
:104AA00010401221FFF786BFE0030020A80200207B
:104AB000214A0008014800F01AB900BFE9030020AC
:104AC000014800F015B900BFE903002010B5044605
:104AD000FFF7F0FF236A1BB1BDE81040FFF7F0BFFE
:104AE000044B2362044B1B68002BF5D1FFF7C4FF76
:104AF000F2E700BF394A0008E00300202DE9F8433F
:104B00000746884614460026D4E90195B9F1010903
:104B100005D52468002CF7D13046BDE8F883AB8971
:104B2000012B07D9B5F90E30013303D02946384699
:104B3000C04706436835E9E70EB400B59CB01DAB2D
:104B4000029006906FF000410948079104910949CD
:104B500053F8042B05910068019302A901F0F0FBC2
:104B6000029B00221A701CB05DF804EB03B0704782
:104B7000180000200802FFFF10B50C46B1F90E1016
:104B800000F06CF80028ABBF636DA3891B1823F4F9
:104B90008053ACBF6365A38110BD2DE9F0411F4672
:104BA0008B89DB0505460C46164605D5B1F90E1076
:104BB0000223002200F040F8A389B4F90E1023F478
:104BC0008053A38132463B462846BDE8F04100F0C1
:104BD00057B810B50C46B1F90E1000F02DF8431C73
:104BE000A38915BF606523F4805343F48053A381E8
:104BF00018BFA38110BDB1F90E1000F00DB802442A
:104C00000346934200D1704703F8011BF9E7000007
:104C1000004870475801002038B5064D002304466F
:104C200008462B6002F09CF8431C02D12B6803B1AC
:104C3000236038BDE403002038B5074D044608461C
:104C4000114600222A601A4602F0B2F8431C02D133
:104C50002B6803B1236038BDE403002038B5074D4D
:104C600004460846114600222A601A4602F0A8F8B7
:104C7000431C02D12B6803B1236038BDE40300203C
:104C800038B5074D04460846114600222A601A46E8
:104C900002F0ACF8431C02D12B6803B1236038BD8D
:104CA000E403002070B50D4D0D4C641BA4100026CC
:104CB000A64209D10B4D0C4C02F000FA641BA41063
:104CC0000026A64205D170BD55F8043B9847013631
:104CD000EEE755F8043B98470136F2E77C7400088C
:104CE0007C7400087C74000880740008704770476A
:104CF00070470A44914200F1FF3300D1704710B56C
:104D000011F8014B03F8014F9142F9D110BD2DE983
:104D1000F74F03690C69A34207467EDB013C01F1B2
:104D20001408A30000F11405009305EB840301931C
:104D300058F8243055F8242001339A4208EB8409AE
:104D4000B2FBF3F62ED34FF0000AC446AE46D3466C
:104D50005CF8043B98B206FB00A0020C1B0C06FB9F
:104D60000323DEF8002080B292B2121A5A44DEF811
:104D700000004FEA134A9BB2C3EB224303EB1043FC
:104D800092B242EA0342E1454EF8042B4FEA234B2C
:104D9000DED2009BEB582BB9019B043B9D421A4687
:104DA0002FD33C61384601F067F9002825DB2946FE
:104DB000002058F8042BD1F800C01FFA82FE1FFA19
:104DC0008CF3A3EB0E030344120CC2EB234202EB61
:104DD0001C429BB243EA0243C14541F8043B4FEAFF
:104DE0002240E6D255F8242005EB840322B9043B87
:104DF0009D421A460BD33C610136304603B0BDE8F4
:104E0000F08F1268043B002ACBD1013CC6E7126840
:104E1000043B002AEFD1013CEAE70020EEE7000066
:104E20002DE9F04FC76999B08DED040B55EC104B8F
:104E3000229E099183460E9213937FB9102000F0B1
:104E4000F3FD0246CBF81C0020B9A54BEF21A54885
:104E500001F048FCC0E901770760C760DBF81C304F
:104E6000196859B15A684A60012393408B605846CB
:104E700000F0D0FEDBF81C3000221A602B1EB9BFF8
:104E800023F00043059300233360059F964BBCBF7E
:104E900001223260BB4312D1139A42F20F731360A6
:104EA000C7F31303234300F04385239BDFF84CA291
:104EB000002B00F045850AF1030300F03FBD9DED96
:104EC000047B002251EC170B00238DED0C7BFBF7CC
:104ED000EBFD804658B1139A01231360239B13B155
:104EE000239A824B1360DFF818A200F029BD9DEDD4
:104EF0000C0B16AA17A9584601F06EF9C7F30A560B
:104F00008146002E77D00D9BCDF85080C3F313035C
:104F1000DDE90C0143F07F5343F44013A6F2FF3662
:104F200019460022724BFBF79FF967A3D3E90023D0
:104F3000FBF752FB66A3D3E90023FBF797F904467E
:104F400030460D46FBF7DEFA63A3D3E90023FBF7F7
:104F500043FB02460B4620462946FBF787F90446E9
:104F60000D46FBF7E9FD00220746002320462946AF
:104F7000FBF7A4FD40B13846FBF7C4FA22462B46A6
:104F8000FBF792FD00B9013F162F51D8594B03EBA7
:104F9000C703D3E90023DDE90C01FBF78FFD0028EF
:104FA00048D0013F00231293169B9B1B5A1E44BFFF
:104FB000C3F101080023089254BF4FF00008089382
:104FC000002F39DB089B0F973B44089300230A937B
:104FD000099B092B61D8052BC4BF043B0993099B8E
:104FE000A3F10203CCBF00240124032B61D8DFE826
:104FF00003F05052352ADDE916631E4406F23243AF
:10500000202BC1BFC3F140039F4006F2124324FA94
:1050100003F3D6BFC3F1200347EA030004FA03F009
:10502000FBF760FA0122A1F1F873013E149277E7D1
:105030000123B8E71290B7E77B420A930023A8EB5D
:1050400007080F93C4E701230B930E9BFB180093F3
:105050000133012B0393B8BF012306E001230B9317
:105060000E9B002B28DD00930393DBF81C0000212E
:10507000042202F114059D4223D94160584600F0F4
:1050800089FD824600283DD11B4B024640F2AF11FC
:10509000DDE60023E3E70023D6E70124002309939C
:1050A0000B944FF0FF3300930393002212230E92D0
:1050B000DBE701230B93F4E70123009303931A46E4
:1050C000F5E701315200D4E761436F63A787D23F10
:1050D000B3C8608B288AC63FFB799F501344D33FE7
:1050E00041710008587100080000F07F117100083C
:1050F0000000F83FA8720008B17100083D71000877
:1051000010710008DBF81C301860039B0E2B00F2B6
:10511000A180002C00F09E80002F33DD9C4B07F017
:105120000F0203EBC20393ED007BF8058DED067BC8
:105130004FEA271416D5974BDDE90C01D3E9082374
:10514000FBF774FBCDE9040104F00F040326914D35
:1051500054B9DDE90623DDE90401FBF767FBCDE97E
:10516000040128E00226F2E7E10708D5DDE906019F
:10517000D5E90023FBF730FACDE9060101366410CA
:105180000835E5E700F0AF807C42814B814D04F0AB
:105190000F0203EBC203D3E90023DDE90C01FBF7A7
:1051A0001BFACDE90401241100230226002C40F053
:1051B0008F80002BD3D1129BDDE90445002B00F03A
:1051C0009480754B002220462946FBF777FC002887
:1051D00000F08B80039B002B00F08780009B002B4E
:1051E00034DD7B1E069320466C4B00222946FBF7DC
:1051F000F3F9CDE90401009C01363046FBF782F952
:10520000DDE90423FBF7E8F9654B0022FBF72EF8F4
:105210000546A1F15076002C6AD1DDE90401614B0D
:105220000022FBF721F802460B46CDE904232A466B
:105230003346FBF761FC002840F08782DDE904017A
:105240002A4606F10043FBF739FC38BBDDE90C3494
:10525000CDE90434179B002BC0F258810E2F00F3C8
:1052600055814B4B03EBC70393ED007B0E9B002B4B
:105270008DED007B80F2E580039B002B00F3E18045
:105280000CD1484B002251EC170BFBF7A5F9DDE9D7
:105290000423FBF727FC002800F055820024254654
:1052A0000E9BDB430693564600272146584600F0E6
:1052B000B1FC002D00F0BD802FB1AF4203D03946C4
:1052C000584600F0A7FC2946584600F0A3FCB0E081
:1052D000E20705D5D5E90023FBF77EF90136012366
:1052E0006410083562E7022665E7039C069784E7A9
:1052F000274B0B9903EBC40353E9022354440029C1
:1053000054D029490020FBF791FA33462A46FAF790
:10531000ABFFCDE910015646DDE90401FBF70CFCBB
:105320000546FBF7EFF802460B46DDE90401FAF704
:105330009BFF303502460B46CDE9042306F8015B9E
:10534000DDE91023FBF7BAFB002872D1DDE9042365
:1053500011490020FAF788FFDDE91023FBF7AEFBC7
:10536000002840F0B480A6423FF470AFDDE91001A0
:105370000A4B0022FBF730F9084BCDE9100100225F
:10538000DDE90401FBF728F9CDE90401C4E700BF1A
:10539000A8720008807200080000F03F000024405E
:1053A00000001C40000014400000E03F3146284649
:1053B000FBF712F9CDE9100115945646DDE9040119
:1053C000FBF7BAFB0546FBF79DF802460B46DDE905
:1053D0000401FAF749FF303506F8015B02460B4637
:1053E000A642CDE904234FF0000224D1AB4BDDE906
:1053F0001001FAF73BFF02460B46DDE90401FBF71B
:105400007BFB002863D1DDE91023A4490020FAF7D3
:105410002BFF02460B46DDE90401FBF74FFB00289A
:105420003FF414AF159E731E159316F8013C302BF4
:10543000F8D0069F3BE09A4BFBF7CEF8CDE904018C
:10544000BCE7DDE904455646DDE900232046294650
:10545000FBF7ECF9FBF770FB8046FBF753F8DDE94F
:105460000023FBF7B9F802460B462046294608F10F
:105470003004FAF7F9FE06F8014B039DA6EB0A0487
:10548000A54202460B4634D1FAF7F0FEDDE90023CF
:1054900004460D46FBF730FBC0B9DDE9002320468A
:1054A0002946FBF701FB10B118F0010F0ED1494658
:1054B000584600F0AFFB00233370139B01371F6089
:1054C000239B002B00F03C821E6039E20697334696
:1054D0001E4613F8012D392A07D19A45F8D1069AAC
:1054E0000132069230228AF800201A7801321A70AE
:1054F0009FE76B4B0022FBF76FF800220023044666
:105500000D46FBF7D1FA00289ED0D0E70B9A002A6F
:1055100000F0E180099A012A00F3C480149A002A5D
:1055200000F0B78003F233430A9C4646089A0121F3
:105530001A4458469844089200F020FC05465EB193
:10554000089B002B08DDB342089AA8BF3346A8EB9E
:105550000308F61AD31A08930A9BF3B10B9B002B8E
:1055600000F0BD808CB129462246584600F0BEFCB2
:105570004A4601460546584600F016FC4946069044
:10558000584600F047FB069B99460A9B1A1B04D01D
:105590004946584600F0AAFC81460121584600F0D1
:1055A000EDFB0F9B0446002B00F0CE811A4601460E
:1055B000584600F09BFC099B012B044600F39580A4
:1055C000049B002B40F08D80059BC3F31303002B3D
:1055D00040F08980059B23F000431B0D1B052BB178
:1055E000089B0133089308F1010801230A930F9BDC
:1055F000002B00F0AF81236904EB8303186900F0EE
:1056000071FBC0F12000089B184410F01F0077D0F8
:10561000C0F12003042B6BDD089BC0F11C00034488
:10562000804406440893B8F1000F05DD4946424620
:10563000584600F0B5FC8146089B002B05DD21464D
:105640001A46584600F0ACFC0446129B002B59D079
:105650002146484600F010FD002853DA7B1E0693D1
:10566000494600230A22584600F0F6FA0B9B814671
:10567000002B00F07181002329460A22584600F0D1
:10568000EBFA009B002B054667DC099B022B41DCF3
:1056900063E0169BC3F1360346E700BF0000E03F1E
:1056A00000002440039B5C1E0A9BA34209DB1C1BD9
:1056B000039B002BBFF639AF039BA8EB0306002327
:1056C00034E70A9B0F9A0A94E31A1A440F92039B39
:1056D000464600242AE70A9C0B9D46462FE70A9A75
:1056E00056E7002382E7049B80E700230A9382E7C2
:1056F00099D0089A1C331A4498441E44089292E7A1
:105700000346F6E7039B0697002B20DC0093099BDA
:10571000022B1EDD009B002B7FF4C2AD214605222B
:10572000584600F099FA01460446484600F0A4FCA9
:1057300000287FF7B5AD5646312306F8013B069B9E
:1057400001330693B0E5039C06972546F3E7039BD8
:1057500000930B9B002B00F00381002E05DD2946F2
:105760003246584600F01CFC05460A9B002B5AD0D6
:105770006968584600F00EFA064628B9834B02467F
:1057800040F2EF21FFF763BB2A690232920005F174
:105790000C010C30FFF7ADFA01223146584600F0FB
:1057A000FFFB0AF101030393009B53440B93049BFB
:1057B00003F001032F460A930546039B2146013B54
:1057C00048460093FFF7A3FA3946049000F13008E9
:1057D000484600F051FC2A4608902146584600F001
:1057E00067FCC268064602BB0146484600F044FC1E
:1057F0000246314658460E9200F00CFA099B0E9A6A
:10580000039E42EA03010A9B194310D1B8F1390FF4
:1058100029D0089B002B02DD049B03F13108009B7B
:1058200083F8008041E52846BBE70122E1E7089BB9
:10583000002B04DB09990B430A990B4320D1002A62
:10584000EDDD49460122584600F0AAFB214681467B
:1058500000F012FC002803DCE1D118F0010FDED0CB
:10586000B8F1390FD8D1009A3923137033461E4648
:10587000013B16F8012C392A51D001321A7014E577
:10588000002A07DDB8F1390FEDD0009A08F10103C5
:1058900013700AE5039B0B9A03F8018C934228D0FE
:1058A000494600230A22584600F0D6F9AF42814605
:1058B0004FF000034FF00A023946584607D100F076
:1058C000CBF907460546039B0133039375E700F0C8
:1058D000C3F92946074600230A22584600F0BCF9BE
:1058E0000546F0E7009B002BCCBF1E460126564420
:1058F000002749460122584600F052FB21468146C6
:1059000000F0BAFB0028B1DC02D118F0010FADD1D4
:1059100033461E4613F8012D302AFAD0C5E49A45C5
:10592000A5D1069B0133069331238AF80030BCE4ED
:10593000239BDFF85CA01BB10AF10803239A1360D4
:10594000504619B0BDE8F08F099B012B7FF738AEA8
:105950000F9B0A93012056E6009B002B7FF7D7AEE2
:10596000564621464846FFF7D2F900F1300806F8BE
:10597000018B009BA6EB0A029342B3DD494600234C
:105980000A22584600F068F98146EAE7B17100083A
:105990003471000838B50546002941D051F8043C5F
:1059A0000C1F002BB8BFE41800F0E8F81D4A13687C
:1059B00033B9636014602846BDE8384000F0E4B8AD
:1059C000A34208D9206821188B4201BF19685B687F
:1059D00009182160EDE71A465B680BB1A342FAD9BA
:1059E00011685018A0420BD120680144501883421E
:1059F0001160E0D118685B68536008441060DAE712
:105A000002D90C232B60D6E7206821188B4204BFF3
:105A100019685B68636004BF091821605460CAE7B5
:105A200038BD00BFF0030020024B0146186800F0AB
:105A300025B800BF1800002070B50F4E0C46316825
:105A4000054611B900F03EFE30602146284600F0C0
:105A500039FE431C03D14FF0FF34204670BDC41CF7
:105A600024F00304A042F8D0211A284600F02AFEB0
:105A70000130F2D1EFE700BFEC0300202DE9F8433D
:105A8000CD1C25F0030508350C2D38BF0C25002D45
:105A9000064601DBA94204D90C2333600020BDE88F
:105AA000F883DFF8D48000F069F8D8F800301C469D
:105AB00044BB29463046FFF7BFFF431C044658D17C
:105AC000D8F800402746002F43D1002C4BD0236844
:105AD0003946304604EB030900F0F4FD814542D11C
